:020000040800F2
:10000000B006002045010008031900087D1400080F
:10001000011900086B0200083D1B000800000000E9
:1000200000000000000000000000000007190008A8
:100030006D020008000000000519000809190008F9
:100040005F0100085F0100085F0100085F01000810
:100050005F0100085F0100085F0100085F01000800
:100060005F0100085F0100085F0100085F010008F0
:100070005F0100085F0100085F0100085F010008E0
:100080005F0100085F0100085F0100085F010008D0
:100090005F0100085F0100085F0100085F010008C0
:1000A0005F0100085F0100085F0100085F010008B0
:1000B0005F0100085F0100085F0100085F010008A0
:1000C0005F0100085F0100085F0100085F01000890
:1000D0005F010008311B00085F0100085F01000894
:1000E0005F0100085F0100085F0100085F01000870
:1000F0005F0100085F0100085F0100085F01000860
:100100005F0100085F0100085F0100085F0100084F
:100110005F0100085F0100085F0100085F0100083F
:100120005F0100085F0100085F0100085F0100082F
:10013000DFF80CD000F078F8004800471D200008D8
:10014000B00600200648804706480047FEE7FEE765
:10015000FEE7FEE7FEE7FEE7FEE7FEE7FEE7FEE777
:100160005B19000831010008202A04DB203A21FA3B
:1001700002F00021704721FA02F3D040C2F12002C0
:100180009140084319467047D2B201E000F8012BB4
:10019000491EFBD270470022F6E710B513460A4607
:1001A00004461946FFF7F0FF204610BD30B504465F
:1001B0000020034600E05B1C934203D2E05CCD5C70
:1001C000401BF8D030BD2DE9F05F05460020924677
:1001D0009B4688460646814640241BE02846414609
:1001E00047462246FFF7C0FF53465A46C01A914180
:1001F00010D311461846224600F028F82D1A67EB56
:1002000001084F4622460120002100F01FF817EB9D
:1002100000094E41201EA4F10104DFDC48463146AE
:100220002A464346BDE8F09F064C074D06E0E068CD
:1002300040F0010394E8070098471034AC42F6D32D
:10024000FFF77AFF6022000880220008202A04DBE2
:10025000203A00FA02F1002070479140C2F12003D9
:1002600020FA03F3194390407047FEE77047704748
:100270002DE9F05F90F821100024022903D0042119
:100280008163012485E001680A6822F00E020A6099
:1002900001680A6822F001020A603F4E3E4FB21523
:1002A000DFF8F4C0DFF8F090DFF8ECA0DFF8E8B09A
:1002B000DFF8E4E00168783F13011502ACF1640C4B
:1002C000A9F15009AAF13C0AABF1280BAEF1140ECA
:1002D0004FF48018B14227D9B9420ED0614512D0EF
:1002E00049451DD0514518D0594518D0714501D107
:1002F000424615E0294EB14201D1012210E0274EBD
:100300001436B14201D110220AE0244E2836B142FF
:1003100006D0224A3C32914201D11A4600E02A46D8
:100320001E49091F0A602BE0B94213D0614517D05E
:10033000494522D051451DD059451DD0714501D1A7
:1003400042461AE0B14202D14FF0807215E0134EDE
:10035000B14201D1012210E0104E1436B14201D158
:1003600010220AE00D4E2836B14206D00B4A3C322C
:10037000914201D11A4600E02A46074980394A6075
:10038000012180F82110002180F82010416B01B17B
:1003900088472046BDE8F09F8000024008040240E4
:1003A00070B5044600F00AF90546601C02D0044806
:1003B0000078044400F002F9401BA042FAD370BD5B
:1003C000040000202DE9F84FDFF8C891002409F15E
:1003D000040A0AF1040B23460F270BF1040ED1E0A7
:1003E0000125A54006EA0502AA4276D1DFF8A8C198
:1003F0004E68A6EB0C0866452BD00DDC032E34D0DE
:1004000005DC36B3012E19D0022E2FD11BE0112EA0
:1004100016D0122E2AD119E0B8F5881F19D006DCA3
:10042000B8F5803F15D0B8F5801F1FD111E0B8F5A1
:10043000001F0ED0B8F5041F18D10AE0CB6815E0F4
:10044000CB681B1D12E0CB6808330FE0CB680C3380
:100450000CE08B682BB1012B4FF0080303D04561F2
:1004600004E0042302E0056100E00023FF2A01D834
:10047000064601E000F104064FEA840501D9A5F122
:100480002005D6F8008007FA05FC28EA0C0803FAD4
:1004900005F548EA0508C6F800804D68ED0070D5FE
:1004A0003E4DAE6946F00106AE61AD6924F003062B
:1004B00005F0010500953A4D06EB050CDCF80850F7
:1004C000A607360F07FA06F825EA0805DFF8D480F4
:1004D000404503D14FF0000825E052E0DFF8C88026
:1004E000404502D14FF001081DE0DFF8C0804045D3
:1004F00002D14FF0020816E0DFF8B480404502D187
:100500004FF003080FE0DFF8AC80404502D14FF018
:10051000040808E0DFF8A080404502D14FF005084C
:1005200001E04FF0060808FA06F848EA0508CCF89A
:1005300008804D68D9F80060ED034D4601D516439B
:1005400000E096432E604D68DAF80060AD03554632
:1005500001D5164300E096432E604D68DBF800603D
:10056000ED025D4601D5164300E096432E604D68CE
:10057000DEF80060AD02754601D5164300E09643F3
:100580002E60641C0A681646E2407FF429AFBDE87D
:10059000F88F00000004014000001110001002401C
:1005A0000000014000080140000C01400010014023
:1005B0000014014000180140001C014001488068FF
:1005C000704700000400002070B5040025D094F8A6
:1005D0003D00002520B984F83C50204600F078FA10
:1005E000242084F83D002068016821F001010160A9
:1005F0002068016841F4004101602068016821F42D
:100600000041016000F0C2FB4D4A6168914201D88F
:100610004C4900E04C49884201D2012070BD4B4951
:100620002368B0FBF1F15E6826F03F060E435E6082
:100630006368934206D94FF4967359434FF47A7323
:10064000B1FBF3F12368491C1E6A26F03F063143D3
:1006500019626168914210D84900401EB0FBF1F266
:10066000521CC2F30B02042A01D2042022E0B0FB88
:10067000F1F0401CC0F30B001CE0A268F2B301EBE8
:10068000C10303EB0116431EB3FBF6F35B1C43F4FB
:1006900080431B0549D092B301EBC10202EB01116B
:1006A000401EB0FBF1F0401CC0F30B0040F4804052
:1006B00040F400402168CA694CF6FF739A43104326
:1006C000C861D4E9071001432068026822F0C00223
:1006D00011430160D4E9030101432068826848F2B4
:1006E000FF339A4311438160D4E90501084321682F
:1006F000CA6822F0FF021043C86001E00EE016E075
:100700002068016841F0010101602564202084F81F
:100710003D00256384F83E50002070BD01EB41068A
:10072000431EB3FBF6F35B1CB3E70120C2E701EB0A
:100730004101401EB0FBF1F0401CC0F30B00B7E7D5
:10074000A086010080841E0000093D0040420F0089
:100750002DE9FF4F83B00025DDE910799A469346D5
:100760000446DDF848800095FFF728FF064694F818
:100770003D0020287CD1192301228549204600967E
:1007800000F08CFF0028F5D194F83C0001286FD0D0
:10079000012084F83C0020680168C90703D1016882
:1007A00041F0010101602068016821F400610160ED
:1007B000222084F83D00402084F83E0025646762D2
:1007C000A4F82A90608D20857248E062CDE9008609
:1007D00053465A462046049900F068FE00287DD111
:1007E000208DDFF8B491202768B1012814D00228A9
:1007F000206801681ED041F4806101602068416971
:1008000080690090B6E020684169816900910168C3
:1008100041F400710160ADE02068016821F480615D
:10082000016072B62068416981690091016841F4F4
:1008300000710AE041F40061016072B6206841690C
:1008400081690091016821F48061016062B691E0E4
:10085000032868D801280CD0022843464FF0000234
:100860004946204600960FD000F018FFB0BB10E0BC
:100870008BE032464146204600F08FFF70BB206877
:100880000069616A08706CE000F008FF30BB72B666
:1008900034E02068016821F48061016072B620684C
:1008A0000069616A0870606A401C6062208D401EA9
:1008B0002085608D401E6085384846F2A81100688A
:1008C000B0FBF1F0C0EBC00000EB80000090401ED8
:1008D000009008D020684069C04300E029E040074C
:1008E0000CD50098F3E744F8305F6773A57320696F
:1008F00040F02000206162B625731AE0206801688C
:1009000041F40071016020680069616A0870606AE2
:10091000401C6062218D491E2185618D491E6185C3
:1009200062B621681BE032464146204600F035FFA2
:1009300018B1012007B0BDE8F08F20680069616A36
:100940000870606A401C6062218D491E2185618D9E
:10095000491E618521684A69D24352070AD4096950
:100960000170606A401C6062208D401E2085608D91
:10097000401E6085208D00287FF46AAF84F83D70AA
:1009800084F83E5084F83C50D4E70220D2E70000BF
:10099000020010000000FFFF040001001000002012
:1009A0002DE9FF4F83B09A46DDE91197934604463F
:1009B000DDF84080FFF702FE054694F83D00202850
:1009C0007FD11923012240492046009500F066FEA0
:1009D000002876D194F83C00012872D0012084F8D8
:1009E0003C0020680168C90703D1016841F001019A
:1009F00001602068016821F400610160212084F811
:100A00003D00402084F83E0000262664C4F824807F
:100A1000A4F82A90608D20852C48E062CDE900750D
:100A200053465A462046049900F0BEFD70B930E0A6
:100A30002A463946204600F0E3FE58B1206C0428CF
:100A400004D12068016841F400710160012007B001
:100A5000BDE8F08F606A216800780861606A401C18
:100A60006062218D491E89B22185628D521E628588
:100A700022685369DB435B070BD469B100781061CE
:100A8000606A401C6062208D401E2085608D401E83
:100A90006085208D0028CBD12A463946204600F0BB
:100AA000D7FD0028CAD154F83D0B016841F400710C
:100AB0000160202004F81E09E67766770020C6E76B
:100AC000FFE70220C3E70000020010000000FFFF64
:100AD00010B586B000210091019102910391006848
:100AE000104988421BD1104CA06940F00800A06159
:100AF000A069694600F0080004904FF4406000903F
:100B000012200190032003900848FFF75BFCE06986
:100B100040F48000E061E06900F48000049006B0D9
:100B200010BD00000058004000100240000C0140C1
:100B300002488168027811448160704704000020F7
:100B4000074810B5016841F010010160032000F072
:100B500075F8002000F006F800F024F8002010BD21
:100B60000020024070B50D4D04464FF47A7128788C
:100B7000B1FBF0F00A490968B1FBF0F000F0ECFAC3
:100B800048B9102C07D200222146501E00F036F83A
:100B900000206C6070BD012070BD000004000020CA
:100BA000100000200C4808B5816941F00101816105
:100BB000816901F001010091C16941F08051C16179
:100BC000C06900F0805000900448416821F0E06165
:100BD00041F00071416008BD00100240000001407A
:100BE000002809DB00F01F0201219140400980002C
:100BF00000F1E020C0F8001170470000F0B40E4B87
:100C00001B680C46C3F30223C3F10705042D00D96A
:100C10000425191D072901D2002300E0DB1E01264F
:100C200006FA05F1491E214099409E40761E164065
:100C30003143F0BC00F094BF0CED00E0064900F039
:100C4000070208684FF6FF03184040EA0220034AF3
:100C500010430860704700000CED00E00000FA054A
:100C60002DE9F0470F46050061D0434E306800F093
:100C70000700B84209D2306820F0070038433060DE
:100C8000306800F00700B84251D128683B4C81071A
:100C900012D5400703D5606840F4E06060602878B2
:100CA000000703D5606840F4605060606068A96820
:100CB00020F0F000084360602878C00728D06868FA
:100CC000012810D02168022810D0890700292EDAC7
:100CD000616821F0030101436160FFF76FFC80460A
:100CE00041F288390DE021688903EFE78901EDE7DA
:100CF000FFF764FCA0EB0801494502D90320BDE8D9
:100D0000F0876068696800F00C00B0EB810FEFD1EC
:100D1000306800F00700B8420BD9306820F00700B7
:100D200038433060306800F00700B84201D001203D
:100D3000E5E72878400705D56068E96820F4E060B9
:100D4000084360602878000706D56068296920F4A8
:100D5000605040EAC100606000F038F86168084AFD
:100D6000C1F30311515CC840064908600648006899
:100D7000FFF7F8FE0020C2E700200240001002400A
:100D8000C021000810000020080000200448054988
:100D900000684968044AC1F30221515CC8407047A9
:100DA0001000002000100240D0210008044805492E
:100DB00000684968044AC1F3C221515CC8407047C9
:100DC0001000002000100240D021000812A185B0C0
:100DD0000FC98DE80F0014A0144A006804905168F0
:100DE000134801F00C03042B10D0082B0ED1C1F3D3
:100DF0008343C9031DF803000AD5516804AAC1F34F
:100E00004041515C0A4A5043B0FBF1F005B07047D5
:100E100008494843FAE700000203040506070809E9
:100E20000A0B0C0D0E0F1010010200000010024002
:100E300000127A0000093D002DE9F84F040070D03F
:100E40002078C04DC00749D06868C0F381000128F0
:100E500007D06868C0F38100022809D16868C00320
:100E600006D52868800339D560680028E7D035E0CA
:100E70006068B0F5803F0BD010B1B0F5A02F11D055
:100E8000286820F480302860286820F4802002E060
:100E9000286840F480302860606890B1FFF78EFBCE
:100EA00006460AE0286840F480202860F0E700BF8A
:100EB000FFF784FB801B642873D828688003F7D56C
:100EC0000CE0FFF77BFB064605E000BFFFF776FB73
:100ED000801B6428F0D828688003F7D420789A4EC5
:100EE00080074FF001094FF0000839D5686810F00D
:100EF0000C0F07D06868C0F38100022809D1686828
:100F0000C00306D42868800714D52069012808D1B9
:100F100010E02069B0B1C6F80090FFF74FFB07461C
:100F200005E00AE1FFF74AFBC01B0228C4D8286885
:100F30008007F7D52868616920F0F80040EAC10011
:100F400028600DE0C6F80080FFF738FB074604E094
:100F5000FFF734FBC01B022823D828688007F7D48A
:100F6000207800072CD57948A169D9B1C0F8009044
:100F7000FFF724FB074604E0FFF720FBC01B022815
:100F80000FD8686A8007F7D571484FF4FA510068A6
:100F9000B0FBF1F0009000BF0098411E0091FAD222
:100FA0000EE080E0C0F80080FFF708FB074604E091
:100FB000FFF704FBC01B022875D8686A8007F7D4C6
:100FC0002078400760D5E8690027C00008D4E869A8
:100FD00040F08050E861E869012700F080500090FF
:100FE0005C480168C90513D40168834641F48071E7
:100FF0000160FFF7E3FA824606E000BFFFF7DEFA82
:10100000A0EB0A0064284ED8DBF80000C005F5D537
:10101000E06801280AD008B1052813D0286A20F01A
:1010200001002862286A20F0040002E0286A40F0EB
:1010300001002862E06841F2883B98B1FFF7BEFAF0
:1010400082460BE0286A40F004002862EEE700BF09
:10105000FFF7B4FAA0EB0A0159455AD8286A80076D
:10106000F6D50CE0FFF7AAFA824605E0FFF7A6FAEC
:10107000A0EB0A0159454CD8286A8007F6D41FB165
:10108000E86920F08050E861E06988B36968C1F3DD
:101090008101022944D00228C6F8608004D0FFF7FD
:1010A0008DFA044638E034E0FFF788FA074604E09A
:1010B000FFF784FAC01B02282BD828688001F7D4D8
:1010C000206AB0F5803F05D16868A16820F400303F
:1010D00008436860D4E908010843696821F4741181
:1010E00008436860C6F86090FFF768FA044606E0B7
:1010F00025E000BFFFF762FA001B022809D8286824
:101100008001F7D51BE000BFFFF758FA001B02284B
:1011100002D90320BDE8F88F28688001F4D40EE0DE
:101120000128F7D06868226A00F48031914204D126
:10113000616A00F47010884201D00120EAE70020C3
:10114000E8E70000001002400000424280044242F2
:10115000100000200070004010B5401EB0F1807FEC
:1011600001D3012010BD4FF0E02460610F21601712
:1011700000F0F6FC0020A06107202061002010BDD7
:101180007047000070B5026804461068D168536962
:1011900010F00F0F53D003F0010501F490762E43A9
:1011A0005FD0C20705D0CA0503D5E26B42F0010249
:1011B000E263420705D5DA0703D0E26B42F0020290
:1011C000E263820705D5DA0703D0E26B42F004023E
:1011D000E263020707D501F020022A4303D0E26B45
:1011E00042F00802E263E26B002A34D0800604D5A4
:1011F000880602D5204600F0C7FB20684069E16BF5
:10120000C0F3801001F008010143204624D000F013
:10121000ADFB2068416949061AD5416921F04001BA
:101220004161606BA0B12D494163606BFFF720F80D
:10123000002810D0606B416BBDE870400847830602
:101240000FD58B060DD52046BDE8704000F09CBB45
:101250002046FFF795FF70BDFFF792FF0020E06387
:1012600070BD03062BD50B0629D594F8390021282B
:10127000F6D1A068B0F5805F01D12069B0B1206AD5
:10128000411C2162216800784860E08C401E000407
:10129000000CE084E4D12068C16821F08001C160C5
:1012A0002068C16841F04001C16070BD206A0088BB
:1012B000C0F308005060206A801C2062E5E7400609
:1012C000F3D54806F1D5D168204621F04001D16020
:1012D000202184F8391000F0D0F870BD5D190008A5
:1012E00070B5040004D094F83900002510B106E070
:1012F000012070BD84F83850204600F023F82420E7
:1013000084F839002068C16821F40051C16020468A
:1013100000F080FB2068016921F4904101612068A0
:10132000416921F02A0141612068C16841F40051FE
:10133000C160E563202084F8390084F83A00002079
:1013400070BD000030B585B0002400940194029473
:1013500003940068184988422CD11848816941F4E7
:1013600080418161816901F480410491816941F08A
:10137000040181618069124D00F0040004904FF473
:1013800000700090022001900320039069462846D7
:10139000FFF718F82815CDE900046946284602949D
:1013A000FFF710F8002211462520FFF727FC252023
:1013B000FFF716FC05B030BD0038014000100240B8
:1013C00000080140704700002DE9F843044690F8FA
:1013D00039001F4616460D4620284CD1C5B1BEB176
:1013E00094F83800012846D0012084F838004FF0E6
:1013F0000008C4F83C80212084F83900FFF7DEF8AB
:10140000A6848146E684A068B0F5805F03D004E03E
:101410000120BDE8F883206928B12E465FF0000561
:1014200084F838800EE00026FAE78021204600F09C
:101430004DFBA0B9AEB116F8010B21684860E08CF5
:10144000401EE084E08C4B464FF0000200970028DD
:10145000EBD14FF04001204600F038FB30B10320C3
:10146000D7E735F8020BC0F30800E6E7202084F840
:1014700039000020CDE70220CBE77047FEE7016886
:101480004A69D24352050FD46FF480624A61002149
:1014900040F8301F202242738173026942F0040237
:1014A0000261017301207047002070472DE9F84F59
:1014B0000446006889460B9D01689846174641F42A
:1014C000806101602068016841F4807101600095CD
:1014D0004FF0011B0022594620460A9B00F0DEF81F
:1014E0004FF4007A40B120680068C00501D5C4F807
:1014F00040A00320BDE8F88F216809F0FE000861D4
:101500002B46284920460A9A00F0FCF8F0BB2068D8
:101510004169806900902A4620460A9900F070F9D6
:1015200040B1206C04283AD12068016841F4007170
:10153000016034E0FEB2B8F1010F09D02168380A29
:1015400008612A4620460A9900F05AF90028E8D195
:10155000206806612A4620460A9900F051F90028C1
:10156000DFD12068016841F480710160009500229C
:10157000594620460A9B00F091F80028B3D1216813
:1015800009F0FF0040F00100086100E007E02B4691
:10159000044920460A9A00F0B5F80028AAD0012094
:1015A000A8E70000020001002DE9F84304460068A6
:1015B0000D46DDE9089701689846164641F48071AA
:1015C00001604B4600224FF001112046009700F0C9
:1015D00065F848B120680068C00502D54FF4007076
:1015E00020640320BDE8F883216805F0FE0008614F
:1015F0003B464A461549204600F084F888B92068E1
:101600004169806900903A464946204600F0F8F862
:1016100048B1206C042804D12068016841F40071AD
:1016200001600120DEE7F5B2B8F1010F09D02168B1
:10163000300A08613A464946204600F0E1F80028A1
:10164000E7D1206805610020CCE70000020001001E
:1016500070B516460D4604460DE02046FFF70FFF15
:1016600008B1012070BD681C05D0FEF7A7FF801BE4
:10167000A84207D835B120684069C0434007ECD480
:10168000002070BD002044F8300F20216173A0734A
:10169000216941F0200121612073E2E72DE9F04743
:1016A0001E4690460D460446C1F30747DDF82090DC
:1016B00008E0701C06D0FEF781FFA0EB0900B042E5
:1016C0000FD876B12068012F18D0806925EA000074
:1016D0000004000C14D000214145EAD00020BDE8F0
:1016E000F087002044F8300F20216173A073216936
:1016F00041F02001216120730120F0E74069E5E716
:101700000121E9E72DE9F0479A4691460E46044645
:1017100000254FF02008C1F3074725E02068406905
:10172000C043400514D42068016841F40071016091
:1017300021686FF480604861256384F83D8084F8F7
:101740003E50206C40F00400206484F83C501FE0C0
:10175000B9F1FF3F08D0FEF731FFA0EB0A01494580
:101760000CD8B9F1000F09D02068012F13D080697F
:1017700026EA00000004000C0BD0CFE744F8305FED
:1017800084F80D80A573206940F020002061257346
:101790000120BDE8F0874069EAE72DE9F041002526
:1017A00090460E460446202717E04069C043C00615
:1017B0000CD454F8301B6FF01000486144F81059F5
:1017C0006777A577206A2062257717E0FEF7F6FE97
:1017D000A0EB0800B04208D83EB120684169C94377
:1017E0004906E2D40020BDE8F08144F8305F677319
:1017F000A573206940F02000206125730120F2E7E5
:1018000070B516460D4604460DE02046FFF737FE3C
:1018100008B1012070BD681C05D0FEF7CFFE801B0B
:10182000A84207D835B120684069C0430006ECD40F
:10183000002070BD002044F8300F20216173A07398
:10184000216941F0200121612073E2E70D4808B5CC
:10185000816941F010018161816901F010010091FD
:10186000816941F008018161816901F008010091FD
:10187000816941F004018161806900F004000090F9
:1018800008BD0000001002400D4810B50B49016072
:101890000C49416000214FF480428160C0E903128D
:1018A00041618161C1610162FEF78EFE002803D0B3
:1018B000BDE81040FEF7DBBC10BD00000058004042
:1018C00018020020A08601000C4810B50A490160EA
:1018D0004FF4E1314160002181600C22C160C0E918
:1018E00004128161C161FFF7FBFC002803D0BDE851
:1018F0001040FEF7BCBC10BD003801406C02002057
:10190000FEE7704770477047FFF712B930B58FB0E8
:1019100028216846FEF73FFC14210AA8FEF73BFC8D
:1019200001210804CDE9001000240294022504914D
:10193000CDE907504FF4E01009906846FFF77CFAB4
:101940000F20CDE90A056802CDE90C4002210AA862
:101950000E94FFF785F90FB030BD704710B5406A9F
:101960000021C185C184FFF70BFC10BD0168CA6866
:1019700022F49072CA6001684A6922F001024A6149
:10198000202180F83A10704710B590F83A102229BB
:1019900001D0022010BD82684FF480539A4201D1D9
:1019A000016921B1816A9A421BD04AB10AE00268FA
:1019B000816A5268C2F308020A80816A891C08E0C1
:1019C000026972B10268526802F07F020A70816A8D
:1019D000491C8162C18D491E0904090CC18503D0CF
:1019E00016E002685268F1E70168CA6822F0200236
:1019F000CA600168CA6822F48072CA6001684A69D4
:101A000022F001024A61202180F83A10FFF7DAFC47
:101A1000002010BD70B5044600680169E26821F439
:101A20004051114301612169A0680843616908437D
:101A30002168CA6841F20C639A430243CA60206875
:101A40004169A26921F44071114341611E49206836
:101A5000884202D1FFF7AAF901E0FFF797F900EBFE
:101A6000C00101EB0012606864218000B2FBF0F35A
:101A7000B3FBF1F36FF018067343B2FBF0F5B2FB62
:101A8000F0F605EB8305322303EB0515B5FBF1F505
:101A9000B6FBF1F605F0F00505EB0615B2FBF0F626
:101AA000B2FBF0F0B0FBF1F06FF01802504306EB20
:101AB000800003EB0010B0FBF1F0216800F00F0094
:101AC0002844886070BD0000003801402DE9F041D5
:101AD000984617460E460446069D1DE0681C1BD01E
:101AE0002DB1FEF76BFDA0EB0800A84214D92068C9
:101AF000C16821F4D071C1602068416921F0010101
:101B00004161202084F8390084F83A00002084F8EC
:101B100038000320BDE8F0812068006836EA000044
:101B200004D00020B842D9D00020F3E70120F9E723
:101B30000148FFF727BB00006C020020FEE7000011
:101B40000FB4054B10B503A9044A029800F028F819
:101B500010BC5DF814FB00000520000814000020F4
:101B60000907090E002804DB00F1E02080F80014CA
:101B7000704700F00F0000F1E02080F8141D70475E
:101B800002E008C8121F08C1002AFAD17047704746
:101B9000002001E001C1121F002AFBD170470000A4
:101BA0002DE9FF4F8DB00F460546002606E025289B
:101BB0000BD0DDE90F1290476D1C761C28780028A9
:101BC000F5D111B03046BDE8F08F0024A246A14601
:101BD0000122EC4900E0044315F8013F203B02FAE2
:101BE00003F00842F7D128782A2810D06FF02F028E
:101BF0002878A0F13001092914D80AEB8A0102EBF8
:101C0000410144F0020400EB010A6D1CF0E701CF32
:101C10005FEA000A03D544F40054CAF1000A44F014
:101C200002046D1C28782E2817D115F8010F44F0F6
:101C300004042A280ED06FF02F022878A0F130017A
:101C400009290AD809EB890102EB410100EB0109DE
:101C50006D1CF2E757F8049B6D1C28786C280FD098
:101C600006DC4C2817D068280DD06A2814D104E06F
:101C7000742810D07A280FD10DE044F400140AE043
:101C800044F4801401E044F440146978814202D1A4
:101C900004F580146D1C6D1C2A786E2A1FD00CDC94
:101CA000632A31D004DC002A8BD0582A11D1A3E05A
:101CB000642A68D0692A0CD165E0732A2ED004DC2E
:101CC0006F2A73D0702A04D19BE0752A6FD0782ACE
:101CD0006ED01046DDE90F129047761C50E1C4F338
:101CE0000250022806D0032809D0042801CF09D0C9
:101CF000066045E101CFF117C0E9006140E101CF85
:101D000006803DE106703BE117F8040B8DF80000FA
:101D100000208DF80100EB46012003E057F804BBDA
:101D20004FF0FF3061074FF0000102D40DE008F1E1
:101D30000101884649450FDA8045F8DB1BF8081099
:101D40000029F4D108E008F1010188468142FADB5C
:101D50001BF808100029F6D1DDE90F23AAEB0800D3
:101D60008146214600F036F9304400EB080604E0D5
:101D7000DDE90F121BF8010B9047B8F10108F7D20B
:101D800021464846F7E00A21C4F302534FF0000B06
:101D90000891022B04D001CFC117032B09D00AE010
:101DA000FF1D27F00707F7E8020108E032E01FE017
:101DB00020E000B2C117042B01D140B2C117031EAD
:101DC00071F1000307DA4FF0000CD0EB0C006CEB64
:101DD00001012D2302E0230504D52B238DF82430A7
:101DE000012303E0E30701D02023F7E7984658E0FA
:101DF0000A2110E010210EE010204FF0000B089097
:101E00000CE010214FF0000B44F004044FF00809DF
:101E1000089103E008214FF0000B0891C4F302532E
:101E2000022B04D001CF0021032B06D006E0FF1DBA
:101E300027F00707F7E8020103E080B2042B00D186
:101E4000C0B24FF0000823072BD5702A07D0DDF869
:101E500020C08CF0100C5CEA0B0C05D00EE0402387
:101E60008DF82430012308E050EA010306D0302326
:101E70008DF824308DF8252002239846DDF820C007
:101E80008CF0080C5CEA0B0C0BD150EA010301D179
:101E9000630706D530238DF824304FF00108A9F1EF
:101EA0000109582A04D038A20B9208AA0A920BE022
:101EB0003AA2F9E75B46089AFEF785F90B9B9B5C13
:101EC0000A9A521E0A92137050EA0102F2D10A983D
:101ED000ADEB000000F1200B600702D524F4803444
:101EE00001E04FF00109D94502DDA9EB0B0000E04C
:101EF000002000EB0B0141440890AAEB010AE0032B
:101F000006D4DDE90F232146504600F063F806446D
:101F10004FF0000908E009A911F80900DDE90F12E6
:101F2000904709F10109761CC145F4DBE0030CD5AB
:101F3000DDE90F232146504600F04CF8064404E04A
:101F4000DDE90F1230209047761C0899481E089052
:101F50000029F5DC08E00A980A990078491C0A91E2
:101F6000DDE90F129047761CBBF10001ABF1010BCC
:101F7000F1DC21465046DDE90F2300F019F8064454
:101F80006D1C1BE6092801003031323334353637F9
:101F900038396162636465660000000030313233B5
:101FA0003435363738394142434445460000000055
:101FB0002DE9F041044600251E461746880404D446
:101FC00005E039462020B0476D1C641EF9D528462F
:101FD000BDE8F0812DE9F041044600251E469046FB
:101FE000C80301D5302700E02027880404D505E088
:101FF00041463846B0476D1C641EF9D52846BDE8F9
:10200000F081000013B54FF6FF73012269460248C4
:10201000FFF7DAF900981CBD6C0200200EB501270D
:10202000FEF78EFDFFF772FCFFF710FCFFF74CFC8C
:10203000FFF72AFCDFF8C8B0324C00253946324899
:10204000FFF77EFD25805E4620883054401C80B21C
:102050002080FF28F8D925804FF47A784FF00809BE
:102060004FF6FF7A2088CDF8088006EBC003CDE953
:1020700000390AEAC0020123A0212448FEF790FC9F
:10208000002839D022A000BFFFF75AFD1420FEF728
:1020900087F92088401C80B220802028E2D3244E7B
:1020A000FF214FF480780096CDE9018101230022C1
:1020B000A1211648FEF74CFB25802088315C1DA02D
:1020C000FFF73EFD2088401C80B22080FF28F4D915
:1020D000424617490A48FEF769F878B118A000BFD0
:1020E000FFF72EFD39462148FFF72AFD42F2107016
:1020F0007F1CFEF755F9A1E71DA0C5E724A0EFE777
:102100001800002000000020D8210008180200203C
:102110000D0A49326320636F6D6D756E696361747A
:10212000696F6E206661696C7572650D0A0000004A
:10213000180100203078253032782020000000007F
:102140000D0A454550524F4D207769746820493239
:102150004320636F6D6D756E69636174696F6E2086
:102160006661696C7572650D0A0000001C2200082A
:102170000D0A49326320636F6D6D756E696361741A
:10218000696F6E20737563636573730D0A000000D9
:102190000D0A454550524F4D2077697468204932E9
:1021A0004320636F6D6D756E69636174696F6E2036
:1021B000697320636F6D706C6574650D0A000000B3
:1021C00000000000000000000102030406070809E7
:1021D00000000000010203040D0A2F2A2A2A2A2ADD
:1021E0002A2A2A2A2A2A2A2A2A2A2A2A2A2AB5DA14
:1021F0002564B4CE493243B2E2CAD4BFAACABC2ACB
:102200002A2A2A2A2A2A2A2A2A2A2A2A2A2A2A2A2E
:102210002A2A2A2A2A2A2F0D0A0000000D0A2F2A0C
:102220002A2A2A2A2A2A2A2A2A2A2A2A2A2A2A2A0E
:102230002A2AB5DA2564B4CE493243B2E2CAD4BD03
:10224000E1CAF82A2A2A2A2A2A2A2A2A2A2A2A2AC9
:102250002A2A2A2A2A2A2A2A2A2A2F0D0A00000094
:10226000802200080000002018000000801B0008E9
:10227000982200081800002098060000901B000813
:10228000000000000100000010000000000000003D
:082290000024F400000000002E
:0400000508000131BD
:00000001FF
