:020000040800F2
:10000000B806002045010008B7180008C11700080D
:10001000B518000865050008251C00080000000050
:10002000000000000000000000000000F1190008BE
:100030006705000800000000B9180008F31900085F
:100040005F0100085F0100085F0100085F01000810
:100050005F0100085F0100085F0100085F01000800
:100060005F0100085F0100085F0100085F010008F0
:100070005F0100085F0100085F0100085F010008E0
:100080005F0100085F0100085F0100085F010008D0
:100090005F0100085F0100085F0100085F010008C0
:1000A0005F0100085F0100085F0100085F010008B0
:1000B0005F0100085F0100085F0100085F010008A0
:1000C0005F0100085F0100085F0100085F01000890
:1000D0005F010008191C00085F0100085F010008AB
:1000E0005F0100085F0100085F0100085F01000870
:1000F0005F0100085F0100085F0100085F01000860
:100100005F0100085F0100085F0100085F0100084F
:100110005F0100085F0100085F0100085F0100083F
:100120005F0100085F0100085F0100085F0100082F
:10013000DFF80CD000F078F80048004705210008EF
:10014000B80600200648804706480047FEE7FEE75D
:10015000FEE7FEE7FEE7FEE7FEE7FEE7FEE7FEE777
:10016000411A000831010008202A04DB203A21FA54
:1001700002F00021704721FA02F3D040C2F12002C0
:100180009140084319467047D2B201E000F8012BB4
:10019000491EFBD270470022F6E710B513460A4607
:1001A00004461946FFF7F0FF204610BD30B504465F
:1001B0000020034600E05B1C934203D2E05CCD5C70
:1001C000401BF8D030BD2DE9F05F05460020924677
:1001D0009B4688460646814640241BE02846414609
:1001E00047462246FFF7C0FF53465A46C01A914180
:1001F00010D311461846224600F028F82D1A67EB56
:1002000001084F4622460120002100F01FF817EB9D
:1002100000094E41201EA4F10104DFDC48463146AE
:100220002A464346BDE8F09F064C074D06E0E068CD
:1002300040F0010394E8070098471034AC42F6D32D
:10024000FFF77AFFDC220008FC220008202A04DBEA
:10025000203A00FA02F1002070479140C2F12003D9
:1002600020FA03F31943904070470000F8B50446A4
:1002700000F016FB054620208DF80000200C8DF8BC
:100280000100200A8DF802008DF8034000F03AF9D1
:10029000114E4FF4005400222146304600F0FAFA85
:1002A0004FF47A73042269460C4800F054FF01228F
:1002B0002146304600F0EEFA00F012F80228FBD09A
:1002C00000F0EEFA401B40F6B831884201D9032015
:1002D000F8BD0020F8BD0000002001401C020020F5
:1002E0007CB512A0124D00684FF40054009000221B
:1002F0002146284600F0CEFA4FF47A7633460122A2
:1003000069460C4800F027FF3346012201A909483D
:1003100000F074FE01222146284600F0BBFA9DF849
:100320000400C00700D002207CBD000005000000D2
:10033000002001401C02002038B50DA00D4D0068C2
:100340004FF40054009000222146284600F0A2FA03
:100350004FF47A7302226946074800F0FCFE01223E
:100360002146284600F096FABDE83840FFF7B8BFAE
:1003700066990000002001401C0200202DE9F8438E
:10038000054603208DF80000080C8DF80100080ACE
:100390008DF80200DFF8488014468DF803104FF402
:1003A000005700223946404600F074FA4FF47A763E
:1003B0003346042269460B4800F0CDFEA2B2334614
:1003C0002946084800F01AFE10B10120BDE8F88364
:1003D00001223946404600F05DFA0020F6E70000B1
:1003E000002001401C020020F8B504460FA0104E6A
:1003F00000684FF40055009000222946304600F076
:1004000049FA4FF47A773B4604226946094800F0DE
:10041000A2FE3B4602222146064800F0EFFD0122E3
:100420002946304600F036FAF8BD00009000000082
:10043000002001401C0200202DE9F74F82B0164633
:100440000C4600F02DFA8346002001E000F5807094
:10045000A042FBD9051BB54200D9354604EB060A7C
:10046000DFF898804FF002094FF400574FF47A7686
:100470008DF80090200C8DF80100200A8DF8020004
:100480008DF8034000F03EF800223946404600F067
:1004900001FA334604226946194800F05CFE30B97F
:1004A000AAB233461648029900F055FE18B1012051
:1004B00005B0BDE8F08F01223946404600F0EAF968
:1004C000FFF70EFF0228FBD000F0EAF9A0EB0B00CB
:1004D000B04201D90320EBE702982C442844029053
:1004E00004F58070504502D9AAEB040501E04FF4F1
:1004F00080755445BCD30020DAE70000002001409D
:100500001C020020F8B514A00068009000F0C8F9A3
:10051000124E04464FF4005500222946304600F0A2
:10052000B9F94FF47A773B46012269460C4800F04E
:1005300012FE01222946304600F0ACF9FFF7D0FE4A
:100540000228FBD000F0ACF9001BB84201D903200F
:10055000F8BD0020F8BD00000600000000200140AA
:100560001C020020FEE77047704700002DE9F05F95
:1005700090F821100024022903D004218163012472
:1005800085E001680A6822F00E020A6001680A68C4
:1005900022F001020A603F4E3E4FB215DFF8F4C070
:1005A000DFF8F090DFF8ECA0DFF8E8B0DFF8E4E087
:1005B0000168783F13011502ACF1640CA9F15009F0
:1005C000AAF13C0AABF1280BAEF1140E4FF48018DF
:1005D000B14227D9B9420ED0614512D049451DD04C
:1005E000514518D0594518D0714501D1424615E002
:1005F000294EB14201D1012210E0274E1436B142FA
:1006000001D110220AE0244E2836B14206D0224AF7
:100610003C32914201D11A4600E02A461E49091F88
:100620000A602BE0B94213D0614517D0494522D06A
:1006300051451DD059451DD0714501D142461AE0A2
:10064000B14202D14FF0807215E0134EB14201D198
:10065000012210E0104E1436B14201D110220AE0FE
:100660000D4E2836B14206D00B4A3C32914201D1A0
:100670001A4600E02A46074980394A60012180F87D
:100680002110002180F82010416B01B188472046DD
:10069000BDE8F09F80000240080402402DE9F84FB9
:1006A000DFF8C891002409F1040A0AF1040B23467B
:1006B0000F270BF1040ED1E00125A54006EA050243
:1006C000AA4276D1DFF8A8C14E68A6EB0C086645B1
:1006D0002BD00DDC032E34D005DC36B3012E19D01F
:1006E000022E2FD11BE0112E16D0122E2AD119E086
:1006F000B8F5881F19D006DCB8F5803F15D0B8F5DD
:10070000801F1FD111E0B8F5001F0ED0B8F5041FEF
:1007100018D10AE0CB6815E0CB681B1D12E0CB684E
:1007200008330FE0CB680C330CE08B682BB1012B46
:100730004FF0080303D0456104E0042302E00561A3
:1007400000E00023FF2A01D8064601E000F104067C
:100750004FEA840501D9A5F12005D6F8008007FAF3
:1007600005FC28EA0C0803FA05F548EA0508C6F86E
:1007700000804D68ED0070D53E4DAE6946F0010633
:10078000AE61AD6924F0030605F0010500953A4D10
:1007900006EB050CDCF80850A607360F07FA06F83A
:1007A00025EA0805DFF8D480404503D14FF0000862
:1007B00025E052E0DFF8C880404502D14FF0010843
:1007C0001DE0DFF8C080404502D14FF0020816E07E
:1007D000DFF8B480404502D14FF003080FE0DFF8A6
:1007E000AC80404502D14FF0040808E0DFF8A0805B
:1007F000404502D14FF0050801E04FF0060808FA25
:1008000006F848EA0508CCF808804D68D9F8006079
:10081000ED034D4601D5164300E096432E604D682A
:10082000DAF80060AD03554601D5164300E0964363
:100830002E604D68DBF80060ED025D4601D5164381
:1008400000E096432E604D68DEF80060AD0275460C
:1008500001D5164300E096432E60641C0A681646D4
:10086000E2407FF429AFBDE8F88F000000040140AA
:10087000000011100010024000000140000801407B
:10088000000C01400010014000140140001801401C
:10089000001C01400AB1016170470904FBE7000038
:1008A0000148806870470000080000200248816805
:1008B000027811448160704708000020074810B595
:1008C000016841F010010160032000F075F800207C
:1008D00000F006F800F024F8002010BD00200240CF
:1008E00070B50D4D04464FF47A712878B1FBF0F0E5
:1008F0000A490968B1FBF0F000F0D1FD48B9102CAD
:1009000007D200222146501E00F036F800206C600D
:1009100070BD012070BD0000080000201400002000
:100920000C4808B5816941F001018161816901F0DC
:1009300001010091C16941F08051C161C06900F0BD
:10094000805000900448416821F0E06141F000715E
:10095000416008BD0010024000000140002809DB92
:1009600000F01F02012191404009800000F1E020C9
:10097000C0F8001170470000F0B40E4B1B680C4625
:10098000C3F30223C3F10705042D00D90425191D63
:10099000072901D2002300E0DB1E012606FA05F13B
:1009A000491E214099409E40761E16403143F0BCBE
:1009B00001F04AB90CED00E0064900F007020868B2
:1009C0004FF6FF03184040EA0220034A1043086034
:1009D000704700000CED00E00000FA052DE9F0473B
:1009E0000F46050061D0434E306800F00700B84262
:1009F00009D2306820F0070038433060306800F0DA
:100A00000700B84251D128683B4C810712D54007F6
:100A100003D5606840F4E06060602878000703D583
:100A2000606840F4605060606068A96820F0F00081
:100A3000084360602878C00728D06868012810D073
:100A40002168022810D0890700292EDA616821F078
:100A5000030101436160FFF723FF804641F28839BB
:100A60000DE021688903EFE78901EDE7FFF718FF43
:100A7000A0EB0801494502D90320BDE8F087606872
:100A8000696800F00C00B0EB810FEFD1306800F026
:100A90000700B8420BD9306820F0070038433060B7
:100AA000306800F00700B84201D00120E5E728785F
:100AB000400705D56068E96820F4E060084360609D
:100AC0002878000706D56068296920F4605040EA5C
:100AD000C100606000F038F86168084AC1F3031192
:100AE000515CC8400649086006480068FFF7F8FEF8
:100AF0000020C2E70020024000100240C42200088B
:100B0000140000200C0000200448054900684968D2
:100B1000044AC1F30221515CC84070471400002010
:100B200000100240D42200080448054900684968C2
:100B3000044AC1F3C221515CC84070471400002030
:100B400000100240D422000812A185B00FC98DE820
:100B50000F0014A0144A006804905168134801F073
:100B60000C03042B10D0082B0ED1C1F38343C9030F
:100B70001DF803000AD5516804AAC1F34041515C35
:100B80000A4A5043B0FBF1F005B0704708494843AA
:100B9000FAE7000002030405060708090A0B0C0D1A
:100BA0000E0F1010010200000010024000127A0027
:100BB00000093D002DE9F84F040070D02078C04DA9
:100BC000C00749D06868C0F38100012807D0686871
:100BD000C0F38100022809D16868C00306D52868DF
:100BE000800339D560680028E7D035E06068B0F54B
:100BF000803F0BD010B1B0F5A02F11D0286820F4A1
:100C000080302860286820F4802002E0286840F4C2
:100C100080302860606890B1FFF742FE06460AE027
:100C2000286840F480202860F0E700BFFFF738FE16
:100C3000801B642873D828688003F7D50CE0FFF781
:100C40002FFE064605E000BFFFF72AFE801B642842
:100C5000F0D828688003F7D420789A4E80074FF0A8
:100C600001094FF0000839D5686810F00C0F07D063
:100C70006868C0F38100022809D16868C00306D4FF
:100C80002868800714D52069012808D110E0206960
:100C9000B0B1C6F80090FFF703FE074605E00AE191
:100CA000FFF7FEFDC01B0228C4D828688007F7D5CF
:100CB0002868616920F0F80040EAC10028600DE072
:100CC000C6F80080FFF7ECFD074604E0FFF7E8FDFB
:100CD000C01B022823D828688007F7D42078000793
:100CE0002CD57948A169D9B1C0F80090FFF7D8FD9B
:100CF000074604E0FFF7D4FDC01B02280FD8686A3E
:100D00008007F7D571484FF4FA510068B0FBF1F055
:100D1000009000BF0098411E0091FAD20EE080E0E2
:100D2000C0F80080FFF7BCFD074604E0FFF7B8FD00
:100D3000C01B022875D8686A8007F7D4207840075E
:100D400060D5E8690027C00008D4E86940F0805009
:100D5000E861E869012700F0805000905C48016874
:100D6000C90513D40168834641F480710160FFF71F
:100D700097FD824606E000BFFFF792FDA0EB0A0058
:100D800064284ED8DBF80000C005F5D5E0680128DE
:100D90000AD008B1052813D0286A20F00100286283
:100DA000286A20F0040002E0286A40F0010028626E
:100DB000E06841F2883B98B1FFF772FD82460BE094
:100DC000286A40F004002862EEE700BFFFF768FDE4
:100DD000A0EB0A0159455AD8286A8007F6D50CE0DD
:100DE000FFF75EFD824605E0FFF75AFDA0EB0A0122
:100DF00059454CD8286A8007F6D41FB1E86920F01D
:100E00008050E861E06988B36968C1F38101022913
:100E100044D00228C6F8608004D0FFF741FD0446A4
:100E200038E034E0FFF73CFD074604E0FFF738FD0B
:100E3000C01B02282BD828688001F7D4206AB0F59F
:100E4000803F05D16868A16820F4003008436860DD
:100E5000D4E908010843696821F474110843686003
:100E6000C6F86090FFF71CFD044606E025E000BFD1
:100E7000FFF716FD001B022809D828688001F7D566
:100E80001BE000BFFFF70CFD001B022802D9032066
:100E9000BDE8F88F28688001F4D40EE00128F7D06F
:100EA0006868226A00F48031914204D1616A00F4DA
:100EB0007010884201D00120EAE70020E8E7000036
:100EC0000010024000004242800442421400002010
:100ED0000070004070B5040009D0606A002540B180
:100EE00025616561A56294F8510040B10CE00120D4
:100EF00070BD6068B0F5827FF4D0E561F2E784F8F8
:100F00005050204600F040F8022084F8510020683C
:100F1000016821F040010160A088218900F48270FD
:100F200001F404410843A18901F400610843217CD4
:100F300001F002010843217D01F001010843218BEA
:100F400001F400710843217F01F03801084394F84F
:100F5000201001F080010843218D01F40051084365
:100F600021680860A069042101EA104021684860F6
:100F70002068C16921F40061C1616565012084F8C0
:100F80005100002070BD000030B585B000240094F1
:100F900001940294039400681549884225D11548AC
:100FA000C16941F48041C161C16901F4804104918A
:100FB000816941F00801816180690F4D00F00800EE
:100FC00004904FF4204000900220019003200390F1
:100FD00069462846FFF762FB4FF48040CDE90004E4
:100FE000694628460294FFF759FB05B030BD000062
:100FF0000038004000100240000C01402DE9F84F7D
:10100000044640680025984616460F464FF0040BEC
:10101000B0F5827F01D1A06888B194F85000012812
:1010200018D0012084F85000FFF73AFC814694F86C
:1010300051004FF0000A01280ED0022582E084F80A
:1010400051B013460A462046CDF8008000F036F92C
:10105000BDE8F88F0220FBE7002F72D0002E70D081
:1010600084F851B0C4F854A0A763A687E687C4F8F3
:1010700030A0A4F834A0A4F836A0C4F840A0C4F866
:1010800044A0A068B0F5004F09D12068016821F0A4
:10109000400101602068016821F4804101602068FE
:1010A0000168490603D4016841F040010160E0682D
:1010B000D8B139E020688168C90709D0007BA16BED
:1010C0000870A06B401CA063E08F401EE0870CE01E
:1010D000FFF7E6FBA0EB0901414503D3B8F1FF3F61
:1010E00003D036E0B8F1000F33D0E08F0028E1D113
:1010F0001DE020688168C90709D0C068A16B08801D
:10110000A06B801CA063E08F401EE0870CE0FFF71F
:10111000C7FBA0EB0901414503D3B8F1FF3F03D062
:1011200017E0B8F1000F14D0E08F0028E1D14A4653
:101130004146204600F0C1FB08B120206065606D8B
:1011400000B10125012084F8510084F850A0284600
:101150007EE70325F6E72DE9F84F044690F85000A6
:1011600000271D461646894601280DD04FF0010B79
:1011700084F850B0FFF794FB804694F85100BA46CB
:10118000012804D0022793E00220BDE8F88FB9F1CE
:10119000000F73D0002E71D0032084F85100C4F8E2
:1011A00054A0C4F83090A686E686C4F838A0A4F807
:1011B0003CA0A4F83EA0C4F844A0C4F840A0A06895
:1011C000B0F5004F09D12068016821F040010160AD
:1011D0002068016841F48041016020680168490687
:1011E00003D4016841F040010160E068B0F5006F90
:1011F000606803D030B3012E24D041E008B1012E45
:101200001CD1206B21680088C86006E020688168D6
:10121000890709D5216B0988C160206B801C206378
:10122000E08E401EE08609E0FFF73AFBA0EB0800E5
:10123000A84202D3681C01D031E07DB3E08E0028C3
:10124000E4D120E0206B21680078087306E0206874
:101250008168890709D5216B09780173206B401CCF
:101260002063E08E401EE0860AE0FFF719FBA0EB4A
:101270000800A84203D3681C02D010E017E06DB14B
:10128000E08E0028E3D142462946204600F043FB89
:1012900008B120206065A06818B106E0FFE70327C9
:1012A00006E02068C16880680090606D00B1012789
:1012B00084F851B084F850A0384666E72DE9F84F1D
:1012C000044690F8500000270A9E1D4692468B4621
:1012D0004FF0010901280ED0012084F85000FFF7DB
:1012E000DFFA804694F85100616801280CD0B1F50E
:1012F000827F07D102E00220BDE8F88FA16809B91A
:10130000042801D00227C2E0BBF1000F27D0BAF1B8
:10131000000F24D01DB394F85100042802D00520FA
:1013200084F8510000206065C4F838A0E587A587DF
:10133000C4F830B0E586A586206460642068016842
:10134000490603D4016841F040010160E068B0F54E
:10135000006F606805D0E8B3012D46D07FE001271B
:1013600095E008B1012D39D1206B21680088C86053
:10137000206B801C2063E08E401EE0862EE02068FB
:10138000816889070FD5E18E69B1B9F1010F0AD1E2
:10139000216B0988C160206B801C2063E08E401E99
:1013A000E0864FF0000920688168C9070CD0E18F02
:1013B00051B1C068A16B0880A06B801CA063E08F56
:1013C000401EE0874FF00109FFF76AFAA0EB080022
:1013D000B04200E009E001D3701C50D1E08E00283B
:1013E000CDD1E08F0028CAD13FE0206B2168007882
:1013F0000873206B401C2063E08E401EE0862EE0C8
:101400002068816889070FD5E18E69B1B9F1010FB4
:101410000AD1216B09780173206B401C2063E08E98
:10142000401EE0864FF0000920688168C9070CD093
:10143000E18F51B1C068A16B0870A06B401CA06324
:10144000E08F401EE0874FF00109FFF729FAA0EB7B
:101450000800B04202D3701C01D010E07EB1E08ED3
:101460000028CDD1E08F0028CAD14246314620461F
:1014700000F051FA28B101272020606507E003271A
:1014800005E0A06818B92068C16880680090012054
:1014900084F85100002084F8500038462CE710B53D
:1014A000401EB0F1807F01D3012010BD4FF0E02439
:1014B00060610F21601700F0C7FB0020A0610720CA
:1014C0002061002010BD704770B5026804461068A6
:1014D000D168536910F00F0F53D003F0010501F4E8
:1014E00090762E435FD0C20705D0CA0503D5E26BC4
:1014F00042F00102E263420705D5DA0703D0E26B4E
:1015000042F00202E263820705D5DA0703D0E26BFC
:1015100042F00402E263020707D501F020022A43E9
:1015200003D0E26B42F00802E263E26B002A34D09F
:10153000800604D5880602D5204600F098FA206877
:101540004069E16BC0F3801001F0080101432046BF
:1015500024D000F07EFA2068416949061AD5416915
:1015600021F040014161606BA0B12D494163606B86
:10157000FEF7FCFF002810D0606B416BBDE87040A7
:10158000084783060FD58B060DD52046BDE8704071
:1015900000F06DBA2046FFF796FF70BDFFF793FF8E
:1015A0000020E06370BD03062BD50B0629D594F807
:1015B00039002128F6D1A068B0F5805F01D12069FB
:1015C000B0B1206A411C2162216800784860E08C3B
:1015D000401E0004000CE084E4D12068C16821F0C2
:1015E0008001C1602068C16841F04001C16070BDE8
:1015F000206A0088C0F308005060206A801C2062C6
:10160000E5E74006F3D54806F1D5D168204621F03C
:101610004001D160202184F8391000F0D0F870BD6D
:10162000431A000870B5040004D094F8390000256E
:1016300010B106E0012070BD84F83850204600F05B
:1016400023F8242084F839002068C16821F400516F
:10165000C160204600F052FA2068016921F49041EF
:1016600001612068416921F02A0141612068C16857
:1016700041F40051C160E563202084F8390084F80A
:101680003A00002070BD000030B585B00024009401
:101690000194029403940068184988422CD1184898
:1016A000816941F480418161816901F48041049143
:1016B000816941F0040181618069124D00F00400EC
:1016C00004904FF4007000900220019003200390DA
:1016D00069462846FEF7E2FF2815CDE90004694671
:1016E00028460294FEF7DAFF002211462520FFF774
:1016F00043F92520FFF732F905B030BD003801402D
:101700000010024000080140704700002DE9F84336
:10171000044690F839001F4616460D4620284CD145
:10172000C5B1BEB194F83800012846D0012084F834
:1017300038004FF00008C4F83C80212084F83900BC
:10174000FFF7AEF8A6848146E684A068B0F5805F16
:1017500003D004E00120BDE8F883206928B12E46BB
:101760005FF0000584F838800EE00026FAE780215B
:10177000204600F01FFAA0B9AEB116F8010B21689F
:101780004860E08C401EE084E08C4B464FF0000245
:1017900000970028EBD14FF04001204600F00AFAF4
:1017A00030B10320D7E735F8020BC0F30800E6E7B5
:1017B000202084F839000020CDE70220CBE77047D5
:1017C000FEE7000070B586B000241848009401942C
:1017D00002940394816941F008018161816901F0FB
:1017E00008010491816941F004018161816901F07E
:1017F00004010491816941F48071816180690C4E1A
:1018000000F480704FF400550490002229463046C1
:10181000FFF740F801200095CDE901040220039074
:1018200069463046FEF73AFF06B070BD0010024030
:1018300000200140104810B50E4901604FF482713C
:10184000416000218160C1604FF400720161C0E914
:1018500005122822C0E90721416281620A21C16282
:10186000FFF738FB002803D0BDE81040FEF77CBE30
:1018700010BD0000003800401C0200200C4810B5CC
:101880000A4901604FF4E1314160002181600C227E
:10189000C160C0E904128161C161FFF7C3FE002885
:1018A00003D0BDE81040FEF75FBE10BD0038014018
:1018B00074020020FEE770477047F8B504464068A0
:1018C0004FF48273984217D1A0684FF48065B0F549
:1018D000004F01D0A8420FD12068066826F04006CC
:1018E00006606068984207D1A068A84204D10092BF
:1018F0000B460022012103E000920B4600228021CA
:10190000204600F019F8002804D0606D40F0200057
:1019100060650320F8BD38B50B46009204460022EE
:10192000802100F009F8002804D0606D40F020000C
:101930006065032038BD00002DE9F8431E4691463E
:1019400088460446089DFEF7ABFF401B351AFEF79C
:10195000A7FF074625480068C0F3CB30684338E04E
:10196000701C37D0FEF79CFFC01BA84203D215B1F4
:10197000009860B32CE02068416821F0E0014160EC
:101980006068B0F5827F0BD1A068B0F5004F02D03F
:10199000B0F5806F04D12068016821F0400101603A
:1019A000A06AB0F5005F09D12068016821F40051F8
:1019B00001602068016841F400510160012084F851
:1019C0005100002084F850000320BDE8F883002572
:1019D000401E00902068816838EA010004D0002190
:1019E0004945BDD10020F0E70121F9E714000020AE
:1019F0007047FEF75BBF30B58FB028216846FEF711
:101A0000CAFB14210AA8FEF7C6FB01210804CDE990
:101A100000100024029402250491CDE90750C00073
:101A200009906846FFF7C6F80F200A90CDE90B54DD
:101A30000D9401210AA80E94FEF7D0FF0FB030BD1F
:101A4000704710B5406A0021C185C184FFF73BFD96
:101A500010BD0168CA6822F49072CA6001684A69C0
:101A600022F001024A61202180F83A10704710B537
:101A700090F83A10222901D0022010BD82684FF45C
:101A800080539A4201D1016921B1816A9A421BD0E7
:101A90004AB10AE00268816A5268C2F308020A8009
:101AA000816A891C08E0026972B10268526802F01A
:101AB0007F020A70816A491C8162C18D491E090436
:101AC000090CC18503D016E002685268F1E701688D
:101AD000CA6822F02002CA600168CA6822F48072D3
:101AE000CA6001684A6922F001024A61202180F837
:101AF0003A10FFF709FE002010BD000070B5044643
:101B000000680169E26821F44051114301612169D3
:101B1000A0680843616908432168CA6841F20C6300
:101B20009A430243CA6020684169A26921F4407166
:101B3000114341611E492068884202D1FEF7F4FF3B
:101B400001E0FEF7E1FF00EBC00101EB001260686D
:101B500064218000B2FBF0F3B3FBF1F36FF01806E1
:101B60007343B2FBF0F5B2FBF0F605EB83053223CD
:101B700003EB0515B5FBF1F5B6FBF1F605F0F00545
:101B800005EB0615B2FBF0F6B2FBF0F0B0FBF1F09E
:101B90006FF01802504306EB800003EB0010B0FB1F
:101BA000F1F0216800F00F002844886070BD00004B
:101BB000003801402DE9F041984617460E4604468C
:101BC000069D1DE0681C1BD02DB1FEF769FEA0EB41
:101BD0000800A84214D92068C16821F4D071C160FE
:101BE0002068416921F001014161202084F8390019
:101BF00084F83A00002084F838000320BDE8F08122
:101C00002068006836EA000004D00020B842D9D02D
:101C10000020F3E70120F9E70148FFF755BC000079
:101C200074020020FEE700000FB4054B10B503A9B5
:101C3000044A029800F028F810BC5DF814FB00007C
:101C4000ED200008180000200907090E002804DB19
:101C500000F1E02080F80014704700F00F0000F160
:101C6000E02080F8141D704702E008C8121F08C168
:101C7000002AFAD170477047002001E001C1121F0D
:101C8000002AFBD1704700002DE9FF4F8DB00F46B1
:101C90000546002606E025280BD0DDE90F12904707
:101CA0006D1C761C28780028F5D111B03046BDE8AF
:101CB000F08F0024A246A1460122EC4900E0044333
:101CC00015F8013F203B02FA03F00842F7D12878CB
:101CD0002A2810D06FF02F022878A0F130010929AE
:101CE00014D80AEB8A0102EB410144F0020400EB34
:101CF000010A6D1CF0E701CF5FEA000A03D544F446
:101D00000054CAF1000A44F002046D1C28782E2801
:101D100017D115F8010F44F004042A280ED06FF0F3
:101D20002F022878A0F1300109290AD809EB89018E
:101D300002EB410100EB01096D1CF2E757F8049B2F
:101D40006D1C28786C280FD006DC4C2817D068282A
:101D50000DD06A2814D104E0742810D07A280FD14D
:101D60000DE044F400140AE044F4801401E044F46B
:101D700040146978814202D104F580146D1C6D1CF9
:101D80002A786E2A1FD00CDC632A31D004DC002AAA
:101D90008BD0582A11D1A3E0642A68D0692A0CD1CB
:101DA00065E0732A2ED004DC6F2A73D0702A04D128
:101DB0009BE0752A6FD0782A6ED01046DDE90F12AD
:101DC0009047761C50E1C4F30250022806D0032845
:101DD00009D0042801CF09D0066045E101CFF117F1
:101DE000C0E9006140E101CF06803DE106703BE1C2
:101DF00017F8040B8DF8000000208DF80100EB4669
:101E0000012003E057F804BB4FF0FF3061074FF0AB
:101E1000000102D40DE008F10101884649450FDABE
:101E20008045F8DB1BF808100029F4D108E008F120
:101E3000010188468142FADB1BF808100029F6D11F
:101E4000DDE90F23AAEB08008146214600F036F9B0
:101E5000304400EB080604E0DDE90F121BF8010B2B
:101E60009047B8F10108F7D221464846F7E00A2129
:101E7000C4F302534FF0000B0891022B04D001CFA2
:101E8000C117032B09D00AE0FF1D27F00707F7E869
:101E9000020108E032E01FE020E000B2C117042B8D
:101EA00001D140B2C117031E71F1000307DA4FF0F0
:101EB000000CD0EB0C006CEB01012D2302E023059C
:101EC00004D52B238DF82430012303E0E30701D050
:101ED0002023F7E7984658E00A2110E010210EE091
:101EE00010204FF0000B08900CE010214FF0000B79
:101EF00044F004044FF00809089103E008214FF072
:101F0000000B0891C4F30253022B04D001CF00212F
:101F1000032B06D006E0FF1D27F00707F7E80201B4
:101F200003E080B2042B00D1C0B24FF000082307B9
:101F30002BD5702A07D0DDF820C08CF0100C5CEA9D
:101F40000B0C05D00EE040238DF82430012308E06F
:101F500050EA010306D030238DF824308DF8252077
:101F600002239846DDF820C08CF0080C5CEA0B0CCC
:101F70000BD150EA010301D1630706D530238DF858
:101F800024304FF00108A9F10109582A04D038A2E1
:101F90000B9208AA0A920BE03AA2F9E75B46089A6C
:101FA000FEF711F90B9B9B5C0A9A521E0A92137062
:101FB00050EA0102F2D10A98ADEB000000F1200BCB
:101FC000600702D524F4803401E04FF00109D945BF
:101FD00002DDA9EB0B0000E0002000EB0B01414407
:101FE0000890AAEB010AE00306D4DDE90F2321469D
:101FF000504600F063F806444FF0000908E009A9D4
:1020000011F80900DDE90F12904709F10109761C6A
:10201000C145F4DBE0030CD5DDE90F232146504632
:1020200000F04CF8064404E0DDE90F123020904740
:10203000761C0899481E08900029F5DC08E00A98EB
:102040000A990078491C0A91DDE90F129047761C25
:10205000BBF10001ABF1010BF1DC21465046DDE99B
:102060000F2300F019F806446D1C1BE60928010037
:1020700030313233343536373839616263646566FE
:1020800000000000303132333435363738394142C0
:1020900043444546000000002DE9F0410446002578
:1020A0001E461746880404D405E039462020B04770
:1020B0006D1C641EF9D52846BDE8F0812DE9F0417C
:1020C000044600251E469046C80301D5302700E08F
:1020D0002027880404D505E041463846B0476D1CEA
:1020E000641EF9D52846BDE8F081000013B54FF60F
:1020F000FF73012269460248FFF708FB00981CBDE8
:1021000074020020FEF7DAFBFFF775FCFFF75AFBBD
:10211000FFF7B4FBFFF78EFB29A0FFF785FDFEF765
:102120000BF93748FEF760F935484278017835A059
:10213000FFF77AFD0020FEF799F810B93AA0FFF7F3
:1021400073FD2F4D00243E482646A0F580776C6035
:1021500004553E55641CFF2CFAD96C604FF4807412
:10216000224600213648FEF767F910B135A0FFF787
:102170005BFD224600213748FEF700F910B136A07A
:10218000FFF752FD38A0FFF74FFD6E606868395CBD
:102190003AA0FFF749FD6868401C6860FF28F5D940
:1021A0002BA0FFF741FD224625492A48FDF7FEFFF7
:1021B00018B135A0FFF738FDFEE73AA0FAE70000B6
:1021C0000D0A0D0A2F2A2A2A2A2A2A2A2A2A2A2AE4
:1021D0002A2A2A2A2A2A2A2A2A2A535049B2E2CA11
:1021E000D42A2A2A2A2A2A2A2A2A2A2A2A2A2A2AA5
:1021F0002A2A2A2A2A2A2A2A2A2A2F0D0A0D0A00DE
:10220000000000200D0A0D0A573235517878204918
:10221000442069733A203078253032782030782590
:102220003032780D0A0D0A005350492065726173EF
:102230006520626C6F636B206F6B0D0A00000000FD
:102240001C010020535049207772697465206F6B20
:102250000D0A00001C000020535049207265616483
:10226000206F6B0D0A0000005350492072656164B5
:1022700020646174652069733A0D0A003078253056
:10228000327820200000000053504920636F6D6DAC
:10229000756E69636174696F6E206661696C7572D1
:1022A0006500000053504920636F6D6D756E696362
:1022B0006174696F6E20746F20636F6D706C6574EC
:1022C000650D0A0000000000000000000102030488
:1022D000060708090000000001020304FC220008B0
:1022E000000000201C000000681C000818230008E3
:1022F0001C0000209C060000781C00080000000064
:1023000000000000010000001000000000000000BC
:082310000024F40000000000AD
:0400000508000131BD
:00000001FF
