:020000040800F2
:100000001004002045010008DF0B00082D0B00083C
:10001000DD0B00088D010008310C00080000000015
:10002000000000000000000000000000E30B0008DA
:100030008F01000800000000E10B0008E50B00083C
:100040005F0100085F0100085F0100085F01000810
:100050005F0100085F0100085F0100085F01000800
:100060005F0100085F0100085F0100085F010008F0
:100070005F0100085F0100085F0100085F010008E0
:100080005F0100085F0100085F0100085F010008D0
:100090005F0100085F0100085F0100085F010008C0
:1000A0005F0100085F0100085F0100085F010008B0
:1000B0005F0100085F0100085F0100085F010008A0
:1000C0005F0100085F0100085F0100085F01000890
:1000D0005F0100085F0100085F0100085F01000880
:1000E0005F0100085F0100085F0100085F01000870
:1000F0005F0100085F0100085F0100085F01000860
:100100005F0100085F0100085F0100085F0100084F
:100110005F0100085F0100085F0100085F0100083F
:100120005F0100085F0100085F0100085F0100082F
:10013000DFF80CD000F018F800480047510C000818
:10014000100400200648804706480047FEE7FEE707
:10015000FEE7FEE7FEE7FEE7FEE7FEE7FEE7FEE777
:10016000E90B000831010008064C074D06E0E06885
:1001700040F0010394E8070098471034AC42F6D3EE
:10018000FFF7DAFF800D0008A00D0008FEE77047BA
:1001900000230A689C46002A08BF70472DE9F84FE3
:1001A000784EDFF8DC914FF001080F2706F1040EBE
:1001B0000A6808FA03F42240A2427CD14D68A5F1F6
:1001C000805AAAF5881A4D4500F0C98074DC032DC9
:1001D00008BF4FF0000C1BD00DDC002D6DD0012DA1
:1001E00008BFD1F80CC013D0022D04BFD1F80CC049
:1001F0000CF1080C0CE0112D04BFD1F80CC00CF16F
:10020000040C05D0122D04BFD1F80CC00CF10C0C5D
:10021000B2F5807F34BF0546051D4FEA830428BF31
:10022000203CD5F800A007FA04FB2AEA0B0A0CFAD6
:1002300004F44AEA04042C604C6814F0805F74D023
:10024000514CA56945F00105A561A46904F00104BC
:10025000009423F0030404F1804505F58035D5F8BA
:1002600008A04FEA83744FEA147407FA04FB2AEAE1
:100270000B0AA0F1804BBBF5843B2CD0A0F1804B46
:10028000BBF5863B08BF4FF0010B24D0A0F1804B9B
:10029000BBF5883B08BF4FF0020B1CD0A0F1804B90
:1002A000BBF58A3B08BF4FF0030B14D0A0F1804B85
:1002B000BBF58C3B02E038E03EE050E008BF4FF079
:1002C000040B08D0A0F1804BBBF58E3B0CBF4FF068
:1002D000050B4FF0060B0BFA04F444EA0A04AC6079
:1002E0004C6814F4803F346814BF14439443346062
:1002F0004C6814F4003FDEF8004014BF14439443EC
:10030000CEF800404C6814F4801F204C256814BFC0
:100310001543954325604C6814F4001F1C4C256858
:1003200014BF2A4325EA020222600A685B1CDA40F5
:100330007FF43EAFBDE8F88FBAF5881F0FD007DC19
:10034000BAF5803F18BFBAF5801F7FF461AF06E0B1
:10035000BAF5001F18BFBAF5041F7FF459AFD1F8E2
:1003600008C0BCF1000F08BF4FF0040C3FF450AFC1
:10037000BCF1010F4FF0080C0CBF0461446147E76A
:100380000000111000040140001002400804014068
:100390000C0401408068084018BF01207047C26803
:1003A0000A4214BF416101617047002A08BF090475
:1003B000016170470148806870470000000000201C
:1003C0000248816802781144816070470000002073
:1003D000074810B5016841F010010160032000F0EA
:1003E0007BF8002000F006F800F024F8002010BD93
:1003F0000020024070B50D4D04464FF47A71287804
:10040000B1FBF0F00A490968B1FBF0F000F078FBAD
:1004100048B9102C07D200222146501E00F02AF8BD
:1004200000206C6070BD012070BD00000000002045
:100430000C0000200D4881B0816941F0010181610B
:10044000816901F001010091C16941F08051C161F0
:10045000C06900F0805000900548416821F0E061DB
:1004600041F00071416001B070470000001002408F
:1004700000000140174B10B41B68C3F30223C3F103
:10048000070CBCF1040F88BF4FF0040C1C1D072C97
:1004900034BF0023DB1E012404FA0CFCACF1010C78
:1004A0000CEA0101994004FA03F35B1E1A40114360
:1004B00000284FEA0111A1BF00F1E02080F80014EC
:1004C00010BC704700F00F0000F1E02080F8141D10
:1004D00010BC70470CED00E0074900F007000A6807
:1004E0004FF6FF031A4042EA002040F0FD7040F052
:1004F00080600860704700000CED00E0002804BF39
:10050000012070472DE9F043DFF89081054685B062
:10051000D8F800000E4600F00700B0420CD2D8F820
:10052000000020F007003043C8F80000D8F80000B1
:1005300000F00700B04265D12868594C10F0020F56
:1005400014D010F0040F03D0606840F4E0606060E5
:10055000287810F0080F03D0606840F460506060A5
:100560006068A96820F0F00008436060287810F007
:10057000010F34D06868012821D02168022823D0D7
:1005800011F0020F3ED0616821F003010843606062
:10059000FFF710FF07466068696800F00C00B0EBD9
:1005A000810F18BF41F2883919D000BFFFF702FF51
:1005B000C01B48450CD905B00320BDE8F083216875
:1005C00011F4003FDFD11DE011F0007FDBD119E015
:1005D0006068696800F00C00B0EB810FE6D1D8F8D4
:1005E000000000F00700B04210D9D8F8000020F059
:1005F00007003043C8F80000D8F8000000F00700FA
:10060000B04203D005B00120BDE8F083287810F097
:10061000040F05D06068E96820F4E060084360607A
:10062000287810F0080F06D06068296920F460501F
:1006300040EAC10060601B490FC98DE80F001A48ED
:10064000006804906168194801F00C02042A14D073
:10065000082A12D1C1F3834211F4803F1DF8020031
:1006600004BF1349484308D0616804AAC1F340415C
:10067000515C0E4A5043B0FBF1F061680D4AC1F382
:100680000311515CC8400C4908600C480068FFF732
:10069000B1FE05B00020BDE8F0830000002002405C
:1006A00000100240180700082807000800127A000E
:1006B00000093D00700D00080C000020040000201F
:1006C00015A186B00FC98DE80F0017A0174A006862
:1006D00004905168164801F00C03042B04BF06B0C7
:1006E0007047082B1CBF06B07047C1F3834311F459
:1006F000803F1DF8030001BF0E49484306B0704714
:10070000516804AAC1F34041515C094A06B0504304
:10071000B0FBF1F07047000002030405060708096A
:100720000A0B0C0D0E0F1010010200000010024009
:1007300000127A0000093D00002804BF0120704724
:100740002DE9F84F04460078E84D10F0010F59D01C
:10075000686800F00C00042808D0686800F00C00FD
:1007600008280CD1686810F4803F08D0286810F47D
:10077000003F47D06068002800F0B28142E0606826
:10078000B0F5803F04BF286840F480300AD010B133
:10079000B0F5A02F11D0286820F480302860286898
:1007A00020F4802028606068D0B1FFF703FE064681
:1007B000286810F4003F08D024E0286840F4802026
:1007C0002860286840F48030ECE7FFF7F3FD801BD9
:1007D000642800F23681286810F4003FF5D011E05B
:1007E000FFF7E8FD0646286810F4003F0AD000BF76
:1007F000FFF7E0FD801B642800F22381286810F4D5
:10080000003FF5D12078BA4E10F0020F4FF0010BE7
:100810004FF0000845D0686810F00C0F14D06868DD
:1008200000F00C00082804BF686810F4803F0BD06B
:10083000206918B3C6F800B0FFF7BCFD074628686A
:1008400010F0020F09D011E0286810F0020F1CBF51
:10085000206901280AD000F043B9FFF7ABFDC01BA7
:1008600002287DD8286810F0020FF6D02868616948
:1008700020F0F80040EAC100286012E0C6F80080CD
:10088000FFF798FD0746286810F0020F09D000BF57
:10089000FFF790FDC01B022862D8286810F0020FF5
:1008A000F6D1207810F0080F35D09248A169F9B13F
:1008B000C0F800B0FFF77EFD0746686A10F0020F2F
:1008C00009D100BFFFF776FDC01B022848D8686A2F
:1008D00010F0020FF6D0884801684FF4FA50B1FBCF
:1008E000F0F0009000BF0098411E0091FAD212E093
:1008F000C0F80080FFF75EFD0746686A10F0020F3F
:1009000009D000BFFFF756FDC01B022828D8686A2F
:1009100010F0020FF6D1207810F0040F79D0E869BA
:100920004FF0000A10F0805F09D1E86940F0805074
:10093000E861E8694FF0010A00F080500090DFF8AC
:10094000BC91D9F8000010F4807F19D1D9F80000CB
:1009500040F48070C9F80000FFF72CFD074600E066
:100960006FE0D9F8000010F4807F09D1FFF722FD75
:10097000C01B642865D8D9F8000010F4807FF5D03A
:10098000E068012804BF286A40F0010009D008B1DE
:10099000052813D0286A20F001002862286A20F078
:1009A00004002862E06841F28837D0B1FFF702FD09
:1009B0008146286A10F0020F08D023E0286A40F030
:1009C00004002862286A40F00100EAE7FFF7F2FC21
:1009D000A0EB0900B84234D8286A10F0020FF5D015
:1009E00010E0FFF7E7FC8146286A10F0020F09D0FB
:1009F000FFF7E0FCA0EB0900B84222D8286A10F00B
:100A0000020FF5D1BAF1000F03D0E86920F0805051
:100A1000E861E069F0B3696801F00C01082950D081
:100A20000228C6F860800FD0FFF7C4FC044628688F
:100A300010F0007F57D000BFFFF7BCFC001B02285E
:100A40003AD90320BDE8F88FFFF7B4FC07462868C1
:100A500010F0007F09D000BFFFF7ACFCC01B0228DC
:100A6000EFD8286810F0007FF6D1206AB0F5803FFB
:100A700005D16868A16820F4003008436860D4E9B3
:100A800008010843696821F4741108436860C6F8D6
:100A900060B000E027E0FFF78DFC0446286810F006
:100AA000007F20D1FFF786FC001B0228C9D82868E8
:100AB00010F0007FF6D016E0286810F0007FBBD160
:100AC00011E0012808BFBDE8F88F6868226A00F4C9
:100AD0008031914204D1616A00F47010884202D0E2
:100AE0000120BDE8F88F0020BDE8F88F001002401B
:100AF00000004242800442420C000020007000408E
:100B0000411EB1F1807F24BF012070474FF0E020EB
:100B10004161054AF02182F8141D002181610721FD
:100B200001610020704700000FE000E0FEE70000D8
:100B30002DE9F04186B000242448009401940294E9
:100B40000394816941F040018161816901F04001B4
:100B50000491816941F010018161816901F0100106
:100B60000491816941F0040181618069184F00F0AE
:100B700004000490002207213846FFF716FC1420D9
:100B8000CDE90004DFF84C80012569460295404616
:100B9000FFF7FEFA0F200226CDE90005CDE9024657
:100BA00069463846FFF7F4FA0820CDE900046946A3
:100BB00002954046FFF7ECFACDE900546946064835
:100BC0000296FFF7E5FA06B0BDE8F081001002409A
:100BD000001001400018014000080140FEE7704786
:100BE00070477047FFF7ECBB0E48016841F0010108
:100BF000016041680C4A11404160016821F41021F4
:100C000021F080710160016821F480210160416858
:100C100021F4FE0141604FF41F0181600349C003CC
:100C200008607047001002400000FFF808ED00E087
:100C3000FEE702E008C8121F08C1002AFAD1704777
:100C40007047002001E001C1121F002AFBD170474C
:100C500090B0FFF7BDFB00240121059406940A948F
:100C60000B940804CDE90010029403940E940C94A4
:100C70000D9402250491CDE90750C0000990684603
:100C8000FFF75AFD0F200A90CDE90B540D94012176
:100C90000AA80E94FFF732FCFFF74AFF314D324E9F
:100CA000324C04212046FFF775FBA0B904212046F1
:100CB000FFF770FB78B904212046FFF76BFB002893
:100CC000F9D002213046FFF76AFB04212046FFF7E6
:100CD00061FB0028F9D010212046FFF75BFB70B9BB
:100CE00010212046FFF756FB48B904213046FFF794
:100CF00056FB10212046FFF74DFB0028F9D00121BB
:100D00002846FFF747FB01280FD101212846FFF7AE
:100D100041FB012809D101213046FFF740FB0121A9
:100D20002846FFF737FB0128F9D008212046FFF7B6
:100D300031FB0028B5D108212046FFF72BFB002806
:100D4000AFD1012207213046FFF72FFB08213046A3
:100D5000FFF725FB08212046FFF71CFB0028F9D0F0
:100D60009FE700000008014000100140001801400A
:100D7000000000000000000001020304060708094B
:100D8000A00D00080000002010000000320C000838
:100D9000B00D00081000002000040000420C000804
:100DA0000100000010000000000000000024F4001A
:0400000508000131BD
:00000001FF
