:020000040800F2
:10000000C004002045010008173E0008E512000862
:10001000153E00083B0400085140000800000000A5
:100020000000000000000000000000001B3E00086F
:100030003D04000800000000193E00081D3E0008B5
:100040005F0100085F0100085F0100085F01000810
:100050005F0100085F0100085F0100085F01000800
:100060005F0100085F0100085F0100085F010008F0
:100070005F0100085F0100085F0100085F010008E0
:100080005F0100085F0100085F0100085F010008D0
:100090005F0100085F0100085F0100085F010008C0
:1000A0005F0100085F0100085F0100085F010008B0
:1000B0005F0100085F0100085F0100085F010008A0
:1000C0005F0100085F0100085F0100085F01000890
:1000D0005F010008454000085F0100085F0100085B
:1000E0005F0100085F0100085F0100085F01000870
:1000F0005F0100085F0100085F0100085F01000860
:100100005F0100085F0100085F0100085F0100084F
:100110005F0100085F0100085F0100085F0100083F
:100120005F0100085F0100085F0100085F0100082F
:10013000DFF80CD000F060F900480047DD4300080C
:10014000C00400200648804706480047FEE7FEE757
:10015000FEE7FEE7FEE7FEE7FEE7FEE7FEE7FEE777
:100160006F3E000831010008202A04DB203A21FA02
:1001700002F00021704721FA02F3D040C2F12002C0
:100180009140084319467047D2B201E000F8012BB4
:10019000491EFBD270470022F6E710B513460A4607
:1001A00004461946FFF7F0FF204610BD2DE9FE4F2B
:1001B00081EA030404F0004421F0004100944FF070
:1001C000000B23F0004350EA01045ED052EA03041E
:1001D0005BD0C3F30A54C1F30A552C44A4F2F334A0
:1001E0000194A0FB0254C1F3130141F48011C3F345
:1001F000130343F4801301FB024400FB034E840A03
:10020000970A44EA815447EA8357A4FB076802959A
:100210008D0A05FB07854FEA932C04FB0C54270538
:10022000029D4FEA065847EA1637B5EB08056EEB14
:10023000070C870E920E47EA811742EA8312A7FB4A
:100240000201B6EB0B0164EB00042B0D43EA0C3307
:100250005E1844EB1C50DA465146E7FB0201C5F339
:1002600013044FEA0B3343EA14534FEA0432019C60
:1002700043EA0603A4F10C040294009CCDE900B407
:1002800000F06CF803B0BDE8F08F00200146F9E7FC
:100290000EB540F2334102910021CDE900110A462A
:1002A0000B4600F05BF803B000BDC1F30A5210B575
:1002B000C1F3130140F2FF3341F480119A4201DA95
:1002C000002010BD40F233439A42A2F2334203DCD5
:1002D0005242FFF749FF10BD904010BD2DE9F05F7D
:1002E0000546002092469B468846064681464024A5
:1002F0001BE02846414647462246FFF735FF534656
:100300005A46C01A914110D311461846224600F0B1
:1003100085F82D1A67EB01084F462246012000217F
:1003200000F07CF817EB00094E41201EA4F10104F7
:10033000DFDC484631462A464346BDE8F09F10B50B
:10034000141E73F1000408DA401C41F100019218F8
:100350005B411A4301D120F0010010BD2DE9F04DA1
:1003600092469B4611B1B1FA81F202E0B0FA80F2F6
:100370002032904600F052F804460F4640EA0A0048
:1003800041EA0B0153465A46084313D0114653EA3B
:10039000010019D0C8F140025046FFF7E5FE0546BE
:1003A0000E4650465946424600F038F8084305D0FC
:1003B000012004E020463946BDE8F08D00200543C9
:1003C00046EAE0762C4337430A986305E40AA0EB3B
:1003D00008000022FD0A44EA47540A3002D50020F2
:1003E0000146E9E7010510196941DDE908450019F1
:1003F0006941BDE8F04DA2E7064C074D06E0E06814
:1004000040F0010394E8070098471034AC42F6D35B
:10041000FFF792FE148C0008348C0008202A04DBBD
:10042000203A00FA02F1002070479140C2F1200307
:1004300020FA03F3194390407047FEE77047704776
:1004400030B5B3F5804F05D06FF0704140F8221001
:10045000002030BD8C690B688D6823434C68898906
:10046000240144EA0524234343EA014150F82230A1
:10047000014C23401943E9E70000F0CF10B50A68AA
:1004800050F8223023F0010340F822308C68082C09
:1004900023D000234A682243CC681C430B692243C3
:1004A0001A434B690E4C1A43CB691A430B6A1A4321
:1004B0004B6A1A438B6A1A43CB6A1A430B6B1A4373
:1004C0008B6913434A6B09681A4350F82130A343E0
:1004D000134340F82130002010BD4023DAE700002C
:1004E0007FFF0F0030B5D1E9003443EA04138C6874
:1004F0008D89240244EA054423430C8A094D00EB0C
:10050000820005EB045423430C7D6D0105EB04646C
:10051000896923430B43416801F040410B43436029
:10052000002030BD0000F0FF2DE9F05F90F82110B1
:100530000024022903D004218163012485E001689D
:100540000A6822F00E020A6001680A6822F00102BD
:100550000A603F4E3E4FB215DFF8F4C0DFF8F0906E
:10056000DFF8ECA0DFF8E8B0DFF8E4E00168783FFE
:1005700013011502ACF1640CA9F15009AAF13C0A6F
:10058000ABF1280BAEF1140E4FF48018B14227D90D
:10059000B9420ED0614512D049451DD0514518D001
:1005A000594518D0714501D1424615E0294EB14256
:1005B00001D1012210E0274E1436B14201D11022A0
:1005C0000AE0244E2836B14206D0224A3C329142FB
:1005D00001D11A4600E02A461E49091F0A602BE095
:1005E000B94213D0614517D0494522D051451DD09D
:1005F00059451DD0714501D142461AE0B14202D1A0
:100600004FF0807215E0134EB14201D1012210E08B
:10061000104E1436B14201D110220AE00D4E283698
:10062000B14206D00B4A3C32914201D11A4600E059
:100630002A46074980394A60012180F821100021AB
:1006400080F82010416B01B188472046BDE8F09F3B
:10065000800002400804024070B5044600F062F9D0
:100660000546601C02D004480078044400F05AF9A2
:10067000401BA042FAD370BD1400002030B585B0F5
:10068000002000900190029003901B48016800290F
:1006900030D1012101601948416941F48071416103
:1006A0004069022400F4807004904FF23F00CDE9CD
:1006B0000004032569460395114800F029F841F22A
:1006C0003F00CDE90004694603950E4800F020F88C
:1006D0004FF68070CDE90004694603950A4800F0A2
:1006E00017F84FF6B370CDE9000469460395074843
:1006F00000F00EF805B030BD0000002000100240F0
:10070000001C01400020014000180140001401407D
:100710002DE9F84FDFF8C891002409F1040A0AF125
:10072000040B23460F270BF1040ED1E00125A54051
:1007300006EA0502AA4276D1DFF8A8C14E68A6EB08
:100740000C0866452BD00DDC032E34D005DC36B307
:10075000012E19D0022E2FD11BE0112E16D0122EF1
:100760002AD119E0B8F5881F19D006DCB8F5803F0A
:1007700015D0B8F5801F1FD111E0B8F5001F0ED0BD
:10078000B8F5041F18D10AE0CB6815E0CB681B1D33
:1007900012E0CB6808330FE0CB680C330CE08B68B9
:1007A0002BB1012B4FF0080303D0456104E0042373
:1007B00002E0056100E00023FF2A01D8064601E0BF
:1007C00000F104064FEA840501D9A5F12005D6F809
:1007D000008007FA05FC28EA0C0803FA05F548EA48
:1007E0000508C6F800804D68ED0070D53E4DAE6935
:1007F00046F00106AE61AD6924F0030605F001057F
:1008000000953A4D06EB050CDCF80850A607360FAC
:1008100007FA06F825EA0805DFF8D480404503D139
:100820004FF0000825E052E0DFF8C880404502D1D3
:100830004FF001081DE0DFF8C080404502D14FF0C5
:10084000020816E0DFF8B480404502D14FF00308FB
:100850000FE0DFF8AC80404502D14FF0040808E01B
:10086000DFF8A080404502D14FF0050801E04FF0CD
:10087000060808FA06F848EA0508CCF808804D682A
:10088000D9F80060ED034D4601D5164300E09643CC
:100890002E604D68DAF80060AD03554601D5164369
:1008A00000E096432E604D68DBF80060ED025D4687
:1008B00001D5164300E096432E604D68DEF80060D7
:1008C000AD02754601D5164300E096432E60641CC8
:1008D0000A681646E2407FF429AFBDE8F88F0000B1
:1008E000000401400000111000100240000001400F
:1008F00000080140000C01400010014000140140BC
:1009000000180140001C0140C26821EA02030A40AD
:1009100043EA0241016170470AB10161704709046D
:10092000FBE70000014880687047000014000020C9
:1009300002488168027811448160704714000020E9
:10094000074810B5016841F010010160032000F074
:1009500075F8002000F006F800F024F8002010BD23
:100960000020024070B50D4D04464FF47A7128788E
:10097000B1FBF0F00A490968B1FBF0F000F020FB90
:1009800048B9102C07D200222146501E00F036F83C
:1009900000206C6070BD012070BD000014000020BC
:1009A000200000200C4808B5816941F001018161F7
:1009B000816901F001010091C16941F08051C1617B
:1009C000C06900F0805000900448416821F0E06167
:1009D00041F00071416008BD00100240000001407C
:1009E000002809DB00F01F0201219140400980002E
:1009F00000F1E020C0F8001170470000F0B40E4B89
:100A00001B680C46C3F30223C3F10705042D00D96C
:100A10000425191D072901D2002300E0DB1E012651
:100A200006FA05F1491E214099409E40761E164067
:100A30003143F0BC03F01EBB0CED00E0064900F0B2
:100A4000070208684FF6FF03184040EA0220034AF5
:100A500010430860704700000CED00E00000FA054C
:100A60002DE9F0470F46050061D0434E306800F095
:100A70000700B84209D2306820F0070038433060E0
:100A8000306800F00700B84251D128683B4C81071C
:100A900012D5400703D5606840F4E06060602878B4
:100AA000000703D5606840F4605060606068A96822
:100AB00020F0F000084360602878C00728D06868FC
:100AC000012810D02168022810D0890700292EDAC9
:100AD000616821F0030101436160FFF723FF804655
:100AE00041F288390DE021688903EFE78901EDE7DC
:100AF000FFF718FFA0EB0801494502D90320BDE824
:100B0000F0876068696800F00C00B0EB810FEFD1EE
:100B1000306800F00700B8420BD9306820F00700B9
:100B200038433060306800F00700B84201D001203F
:100B3000E5E72878400705D56068E96820F4E060BB
:100B4000084360602878000706D56068296920F4AA
:100B5000605040EAC100606000F038F86168084AFF
:100B6000C1F30311515CC84006490860064800689B
:100B7000FFF7F8FE0020C2E700200240001002400C
:100B8000FC8B0008200000201800002004480549C4
:100B900000684968044AC1F30221515CC8407047AB
:100BA00020000020001002400C8C00080448054979
:100BB00000684968044AC1F3C221515CC8407047CB
:100BC00020000020001002400C8C000812A185B00B
:100BD0000FC98DE80F0014A0144A006804905168F2
:100BE000134801F00C03042B10D0082B0ED1C1F3D5
:100BF0008343C9031DF803000AD5516804AAC1F351
:100C00004041515C0A4A5043B0FBF1F005B07047D7
:100C100008494843FAE700000203040506070809EB
:100C20000A0B0C0D0E0F1010010200000010024004
:100C300000127A0000093D002DE9F84F040070D041
:100C40002078C04DC00749D06868C0F381000128F2
:100C500007D06868C0F38100022809D16868C00322
:100C600006D52868800339D560680028E7D035E0CC
:100C70006068B0F5803F0BD010B1B0F5A02F11D057
:100C8000286820F480302860286820F4802002E062
:100C9000286840F480302860606890B1FFF742FE19
:100CA00006460AE0286840F480202860F0E700BF8C
:100CB000FFF738FE801B642873D828688003F7D5B7
:100CC0000CE0FFF72FFE064605E000BFFFF72AFE07
:100CD000801B6428F0D828688003F7D420789A4EC7
:100CE00080074FF001094FF0000839D5686810F00F
:100CF0000C0F07D06868C0F38100022809D168682A
:100D0000C00306D42868800714D52069012808D1BB
:100D100010E02069B0B1C6F80090FFF703FE074667
:100D200005E00AE1FFF7FEFDC01B0228C4D82868D1
:100D30008007F7D52868616920F0F80040EAC10013
:100D400028600DE0C6F80080FFF7ECFD074604E0E0
:100D5000FFF7E8FDC01B022823D828688007F7D4D6
:100D6000207800072CD57948A169D9B1C0F8009046
:100D7000FFF7D8FD074604E0FFF7D4FDC01B0228AB
:100D80000FD8686A8007F7D571484FF4FA510068A8
:100D9000B0FBF1F0009000BF0098411E0091FAD224
:100DA0000EE080E0C0F80080FFF7BCFD074604E0DD
:100DB000FFF7B8FDC01B022875D8686A8007F7D412
:100DC0002078400760D5E8690027C00008D4E869AA
:100DD00040F08050E861E869012700F08050009001
:100DE0005C480168C90513D40168834641F48071E9
:100DF0000160FFF797FD824606E000BFFFF792FD16
:100E0000A0EB0A0064284ED8DBF80000C005F5D539
:100E1000E06801280AD008B1052813D0286A20F01C
:100E200001002862286A20F0040002E0286A40F0ED
:100E300001002862E06841F2883B98B1FFF772FD3B
:100E400082460BE0286A40F004002862EEE700BF0B
:100E5000FFF768FDA0EB0A0159455AD8286A8007B8
:100E6000F6D50CE0FFF75EFD824605E0FFF75AFD80
:100E7000A0EB0A0159454CD8286A8007F6D41FB167
:100E8000E86920F08050E861E06988B36968C1F3DF
:100E90008101022944D00228C6F8608004D0FFF7FF
:100EA00041FD044638E034E0FFF73CFD074604E02E
:100EB000FFF738FDC01B02282BD828688001F7D423
:100EC000206AB0F5803F05D16868A16820F4003041
:100ED00008436860D4E908010843696821F4741183
:100EE00008436860C6F86090FFF71CFD044606E002
:100EF00025E000BFFFF716FD001B022809D828686F
:100F00008001F7D51BE000BFFFF70CFD001B022896
:100F100002D90320BDE8F88F28688001F4D40EE0E0
:100F20000128F7D06868226A00F48031914204D128
:100F3000616A00F47010884201D00120EAE70020C5
:100F4000E8E70000001002400000424280044242F4
:100F5000200000200070004070B515460E460400C9
:100F600007D0A069B0F5807F03D094F8410010B19C
:100F700007E0012070BD002084F84000204600F00A
:100F80001DF804F108012068FFF778FA3146A268DD
:100F90002068FFF7A7FAD4E901022946236BFFF77F
:100FA0004FFAA168206850F8212042F0010240F871
:100FB0002120012084F84100002070BDFFF75EBBB6
:100FC00010B5401EB0F1807F01D3012010BD4FF05D
:100FD000E02460610F21601703F04CF80020A0614D
:100FE00007202061002010BD7047000070B5026826
:100FF00004461068D168536910F00F0F53D003F006
:10100000010501F490762E435FD0C20705D0CA05D2
:1010100003D5E26B42F00102E263420705D5DA072D
:1010200003D0E26B42F00202E263820705D5DA07E1
:1010300003D0E26B42F00402E263020707D501F03D
:1010400020022A4303D0E26B42F00802E263E26B23
:10105000002A34D0800604D5880602D5204602F046
:101060001DFF20684069E16BC0F3801001F00801AA
:101070000143204624D002F003FF2068416949065D
:101080001AD5416921F040014161606BA0B12D4941
:101090004163606BFFF748FA002810D0606B416B2A
:1010A000BDE87040084783060FD58B060DD5204656
:1010B000BDE8704002F0F2BE2046FFF795FF70BD1C
:1010C000FFF792FF0020E06370BD03062BD50B06EF
:1010D00029D594F839002128F6D1A068B0F5805FB1
:1010E00001D12069B0B1206A411C216221680078D9
:1010F0004860E08C401E0004000CE084E4D12068CD
:10110000C16821F08001C1602068C16841F04001E0
:10111000C16070BD206A0088C0F308005060206A7A
:10112000801C2062E5E74006F3D54806F1D5D1687A
:10113000204621F04001D160202184F8391000F0D0
:10114000D0F870BD713E000870B5040004D094F86A
:101150003900002510B106E0012070BD84F8385038
:10116000204600F023F8242084F839002068C16864
:1011700021F40051C160204602F0D6FE20680169CA
:1011800021F4904101612068416921F02A01416107
:101190002068C16841F40051C160E563202084F8F3
:1011A000390084F83A00002070BD000030B585B0E9
:1011B0000024009401940294039400681849884222
:1011C0002CD11848816941F480418161816901F421
:1011D00080410491816941F0040181618069124D6F
:1011E00000F0040004904FF4007000900220019081
:1011F0000320039069462846FFF78AFA2815CDE9AF
:101200000004694628460294FFF782FA002211463C
:101210002520FFF7F3FB2520FFF7E2FB05B030BDEB
:1012200000380140001002400008014070470000F3
:101230002DE9F843044690F839001F4616460D463E
:1012400020284CD1C5B1BEB194F83800012846D051
:10125000012084F838004FF00008C4F83C802120B9
:1012600084F83900FFF75EFBA6848146E684A06817
:10127000B0F5805F03D004E00120BDE8F883206969
:1012800028B12E465FF0000584F838800EE0002675
:10129000FAE78021204602F0A3FEA0B9AEB116F80D
:1012A000010B21684860E08C401EE084E08C4B46D6
:1012B0004FF0000200970028EBD14FF0400120468C
:1012C00002F08EFE30B10320D7E735F8020BC0F3F1
:1012D0000800E6E7202084F839000020CDE702204E
:1012E000CBE77047FEE7000070B50A4906460024C8
:1012F00008884D8821464543204602F07DFB02F0D8
:10130000B1FCB0B2044901E00880641CAC42FBD3DC
:1013100070BD0000B00000200008006C2DE9F04F07
:1013200033492C240A4688712A2592882B2645F2B7
:10133000105B4FF4305E4FF448774FF0F00949F2FC
:10134000413A4FF4A07845F2103C4FF4F07358B195
:10135000A1F80080A1F80290524501D0624529D140
:101360000C814D818E8139E0A1F80090A1F80280B6
:10137000524501D0624508D10C814D818E81624574
:1013800031D1A1F800804B802DE05A4508D1A1F859
:1013900008E04FF4285048814FF42C50888106E033
:1013A000A2F5C85063381ED10C814E818D810B800F
:1013B0004F8018E05A4508D1A1F808E04FF42850B2
:1013C00048814FF42C50888106E0A2F5C85063385C
:1013D00004D10C814D818E810F804B80624502D1FA
:1013E0000B80A1F80280BDE8F04F002002F028BA7F
:1013F000B00000202DE9F041344C90460D460246E5
:10140000060AA18820462F0A4089A1F51343413BD3
:101410000BD0A1F5A643103B07D0B3F5007310D055
:10142000A1F5C853633B25D048E002F00FFC3046DD
:1014300002F000FCD0B202F0FDFBA08902F006FC35
:1014400036E002F003FC304602F0F4FB6089401CF9
:1014500080B202F0FBFBD0B202F0ECFBA08902F0FC
:10146000F5FB384602F0E6FBA089401C80B202F092
:10147000EDFB20E0A17919B92188891A491E8AB2A9
:1014800002F0E4FB160A304602F0D4FBD0B202F0C0
:10149000D1FB304602F0CEFBD0B202F0CBFBA089EC
:1014A00002F0D4FB384602F0C5FBE8B202F0C2FB02
:1014B000384602F0BFFBE8B202F0BCFB04492089C9
:1014C0000880891CA1F80080BDE8F081B0000020F0
:1014D000FE07006C2DE9F05F322002F04BFFD320B5
:1014E00002F0B4FB02F07CF9FD4CA08002F078F928
:1014F000A08002F075F94FF6FF7909EA0020A0807C
:1015000002F06EF9A18849F241380843A08045F203
:10151000103645F2105541F66317404548D0D420A7
:1015200002F094FB02F05CF9A08002F059F9A0806F
:1015300002F056F909EA00204A46A08002F050F96C
:10154000A1880843A080B04232D04FF45A4002F044
:101550007DFB02F045F9A0804FF45B4002F076FB82
:1015600002F03EF902EA0020A0804FF45C4002F055
:101570006DFB02F035F9A1880843A080B0F5004F5B
:101580007ED0A84214D0A12002F060FB02F028F91E
:10159000A08002F025F902EA0020A08002F020F9E4
:1015A000A1880843A0F5AE41A080613900D1A78091
:1015B000A188CCA002F04EFDA08840457ED1CF206E
:1015C00002F044FB002002F035FBC12002F032FBA8
:1015D000302002F02FFBED2002F038FB642002F0F7
:1015E00029FB032002F026FB122002F023FB8120BE
:1015F00002F020FBE82002F029FB852002F01AFB14
:10160000102002F017FB7A2002F014FBCB2002F02E
:101610001DFB392002F00EFB2C2002F00BFB0020FA
:1016200002F008FB342002F005FB022002F002FB6E
:10163000F72002F00BFB202002F0FCFAEA2002F077
:1016400005FB002002F0F6FA002002F0F3FAC020B9
:1016500002F0FCFA1B2002F0EDFAC12002F0F6FACB
:10166000012002F0E7FAC52002F0F0FA302002F083
:10167000E1FA302002F0DEFAC72002F0E7FA00E0DB
:10168000B5E0B72002F0D6FA362002F0DFFA4820A3
:1016900002F0D0FA3A2002F0D9FA552002F0CAFA44
:1016A000B12002F0D3FA002002F0C4FA1A2002F0AE
:1016B000C1FAB62002F0CAFA0A2000E099E002F06E
:1016C000B9FAA22002F0B6FAF22002F0BFFA002026
:1016D00002F0B0FA262002F0B9FA012002F0AAFACC
:1016E000E02002F0B3FA0F2002F0A4FA2A2002F060
:1016F000A1FA282002F09EFA082002F09BFA0E20A0
:1017000002F098FA082002F095FA542002F092FABA
:10171000A92002F08FFA432002F08CFA0A2002F08E
:1017200089FA0F2002F086FA002002F083FA0020E6
:1017300002F080FA002002F07DFA002002F07AFA2E
:10174000E12002F083FA002002F074FA152002F082
:1017500071FA172002F06EFA072002F06BFA1120DE
:1017600002F068FA062002F065FA2B2002F062FA15
:10177000562002F05FFA3C2002F05CFA052002F0ED
:1017800059FA102002F056FA0F2002F053FA3F20C7
:1017900002F050FA3F2002F04DFA0F2002F04AFA10
:1017A0002B2002F053FA002002F044FA002002F04D
:1017B00041FA012002F03EFA3F2002F03BFA2A20D3
:1017C00002F044FA002002F035FA002002F032FA6A
:1017D000002002F02FFAEF2002F02CFA112002F084
:1017E00035FA782002F0C6FD292001F00ABFA58055
:1017F000DEE6B04273D1ED2002F028FA012002F0BB
:1018000019FAFE2002F016FAEE2002F01FFADE208E
:1018100002F010FA212002F00DFAF12002F016FA7F
:10182000012002F007FADF2002F010FA102002F087
:1018300001FAC42002F00AFA8F2002F0FBF9C62058
:1018400002F004FA002002F0F5F9E22002F0F2F9C9
:10185000E22002F0EFF9E22002F0ECF9BF2002F002
:10186000F5F9AA2002F0E6F9B02002F0EFF90D2018
:1018700002F0E0F9002002F0DDF90D2002F0DAF9C3
:10188000002002F0D7F9112002F0D4F9002002F074
:10189000D1F9192002F0CEF9002002F0CBF9212075
:1018A00002F0C8F9002002F0C5F92D2002F0C2F9BB
:1018B000002002F0BFF93D2002F0BCF9002002F048
:1018C000B9F95D2002F0B6F9002002F0B3F95D200D
:1018D00002F0B0F9002002F0ADF9B1200AE0FDE31A
:1018E000B0000020204C43442049443A25780D0A9A
:1018F0000000000002F0AAF9802002F09BF900200D
:1019000002F098F98B2002F095F9002002F092F98C
:10191000962002F08FF9002002F08CF9B22002F03C
:1019200095F9002002F086F9002002F083F90220E8
:1019300002F080F9002002F07DF9032002F07AF92C
:10194000002002F077F9B32002F080F9002002F0C5
:1019500071F9002002F06EF9002002F06BF900200E
:1019600002F068F9002002F065F9002002F062F947
:10197000002002F05FF9002002F05CF9002002F084
:1019800059F9002002F056F9002002F053F9002026
:1019900002F050F9002002F04DF9002002F04AF95F
:1019A000002002F047F9002002F044F9002002F084
:1019B00041F9002002F03EF9002002F03BF900203E
:1019C00002F038F9002002F035F9002002F032F977
:1019D000002002F02FF9002002F02CF9B42002F0D0
:1019E00035F98B2002F026F9002002F023F9962029
:1019F00002F020F9002002F01DF9A12002F01AF9EE
:101A0000002002F017F9B52002F020F9022002F0C0
:101A100011F9002002F00EF9032002F00BF900206A
:101A200002F008F9042002F005F9002002F002F9A2
:101A3000B62002F00BF9002002F0FCF8002002F0C2
:101A4000F9F8B72002F002F9002002F0F3F80020C4
:101A500002F0F0F83F2002F0EDF8002002F0EAF882
:101A60005E2002F0E7F8002002F0E4F8642002F0C3
:101A7000E1F8002002F0DEF88C2002F0DBF8002014
:101A800002F0D8F8AC2002F0D5F8002002F0D2F82D
:101A9000DC2002F0CFF8002002F0CCF8702002F039
:101AA000C9F8002002F0C6F8902002F0C3F8002028
:101AB00002F0C0F8EB2002F0BDF8002002F0BAF806
:101AC000DC2002F0B7F8002002F0B4F8B82002F0F1
:101AD000BDF8002002F0AEF8002002F0ABF80020C4
:101AE00002F0A8F8002002F0A5F8002002F0A2F809
:101AF000002002F09FF8002002F09CF8002002F085
:101B000099F8BA2002F0A2F8242002F093F80020FD
:101B100002F090F8002002F08DF8002002F08AF820
:101B2000C12002F093F8202002F084F8002002F097
:101B300081F8542002F07EF8002002F07BF8FF20AC
:101B400002F078F8002002F075F8C22002F07EF86A
:101B50000A2002F06FF8002002F06CF8042002F076
:101B600069F8002002F066F8C32002F06FF83C200C
:101B700002F060F8002002F05DF83A2002F05AF816
:101B8000002002F057F8392002F054F8002002F04B
:101B900051F8372002F04EF8002002F04BF83C20BC
:101BA00002F048F8002002F045F8362002F042F832
:101BB000002002F03FF8322002F03CF8002002F052
:101BC00039F82F2002F036F8002002F033F82C20EC
:101BD00002F030F8002002F02DF8292002F02AF857
:101BE000002002F027F8262002F024F8002002F05E
:101BF00021F8242002F01EF8002002F01BF8242017
:101C000002F018F8002002F015F8232002F012F874
:101C1000002002F00FF83C2002F00CF8002002F047
:101C200009F8362002F006F8002002F003F832200E
:101C300002F000F8002001F0FDFF2F2001F0FAFF74
:101C4000002001F0F7FF2C2001F0F4FF002001F04C
:101C5000F1FF292001F0EEFF002001F0EBFF26202C
:101C600001F0E8FF002001F0E5FF242001F0E2FF91
:101C7000002001F0DFFF242001F0DCFF002001F054
:101C8000D9FF232001F0D6FF002001F0D3FFC420AC
:101C900001F0DCFF622001F0CDFF002001F0CAFF5F
:101CA000052001F0C7FF002001F0C4FF842001F0EF
:101CB000C1FF002001F0BEFFF02001F0BBFF0020BB
:101CC00001F0B8FF182001F0B5FF002001F0B2FFCD
:101CD000A42001F0AFFF002001F0ACFF182001F0BC
:101CE000A9FF002001F0A6FF502001F0A3FF002073
:101CF00001F0A0FF0C2001F09DFF002001F09AFFF1
:101D0000172001F097FF002001F094FF952001F0CB
:101D100091FF002001F08EFFF32001F08BFF0020E7
:101D200001F088FFE62001F085FF002001F082FF2E
:101D3000C52001F08BFF322001F07CFF002001F074
:101D400079FF442001F076FF002001F073FF652049
:101D500001F070FF002001F06DFF762001F06AFFB6
:101D6000002001F067FF882001F064FF002001F0EF
:101D700061FFC62001F06AFF202001F05BFF002018
:101D800001F058FF172001F055FF002001F052FF2D
:101D9000012001F04FFF002001F04CFFC72001F0AF
:101DA00055FF002001F046FF002001F043FF002016
:101DB00001F040FF002001F03DFFC82001F046FF88
:101DC000002001F037FF002001F034FF002001F077
:101DD00031FF002001F02EFFC92001F037FF002065
:101DE00001F028FF002001F025FF002001F022FF74
:101DF000002001F01FFF002001F01CFF002001F077
:101E000019FF002001F016FF002001F013FF002051
:101E100001F010FF002001F00DFF002001F00AFF8B
:101E2000002001F007FF002001F004FF002001F076
:101E300001FF002001F0FEFE002001F0FBFEE0208B
:101E400001F004FF162001F0F5FE002001F0F2FE83
:101E50001C2001F0EFFE002001F0ECFE212001F03B
:101E6000E9FE002001F0E6FE362001F0E3FE00204E
:101E700001F0E0FE462001F0DDFE002001F0DAFE78
:101E8000522001F0D7FE002001F0D4FE642001F0C2
:101E9000D1FE002001F0CEFE7A2001F0CBFE002022
:101EA00001F0C8FE8B2001F0C5FE002001F0C2FE4B
:101EB000992001F0BFFE002001F0BCFEA82001F037
:101EC000B9FE002001F0B6FEB92001F0B3FE0020FB
:101ED00001F0B0FEC42001F0ADFE002001F0AAFE2A
:101EE000CA2001F0A7FE002001F0A4FED22001F0DC
:101EF000A1FE002001F09EFED92001F09BFE0020F3
:101F000001F098FEE02001F095FE002001F092FE25
:101F1000F32001F08FFE002001F08CFEE12001F0A3
:101F200095FE162001F086FE002001F083FE1C20A5
:101F300001F080FE002001F07DFE222001F07AFEFB
:101F4000002001F077FE362001F074FE002001F041
:101F500071FE452001F06EFE002001F06BFE522064
:101F600001F068FE002001F065FE642001F062FED1
:101F7000002001F05FFE7A2001F05CFE002001F0FD
:101F800059FE8B2001F056FE002001F053FE9920EF
:101F900001F050FE002001F04DFEA82001F04AFEA5
:101FA000002001F047FEB92001F044FE002001F0BE
:101FB00041FEC42001F03EFE002001F03BFECA209D
:101FC00001F038FE002001F035FED22001F032FE93
:101FD000002001F02FFED82001F02CFE002001F09F
:101FE00029FEE02001F026FE002001F023FEF32070
:101FF00001F020FE002001F01DFEE22001F026FE8F
:10200000052001F017FE002001F014FE0B2001F066
:1020100011FE002001F00EFE1B2001F00BFE00203F
:1020200001F008FE342001F005FE002001F002FE60
:10203000442001F0FFFD002001F0FCFD4F2001F0E5
:10204000F9FD002001F0F6FD612001F0F3FD002014
:1020500001F0F0FD792001F0EDFD002001F0EAFD36
:10206000882001F0E7FD002001F0E4FD972001F059
:10207000E1FD002001F0DEFDA62001F0DBFD0020E7
:1020800001F0D8FDB72001F0D5FD002001F0D2FD10
:10209000C22001F0CFFD002001F0CCFDC72001F0EF
:1020A000C9FD002001F0C6FDD12001F0C3FD0020D4
:1020B00001F0C0FDD62001F0BDFD002001F0BAFD09
:1020C000DD2001F0B7FD002001F0B4FDF32001F0A8
:1020D000B1FD002001F0AEFDE32000E00FE301F0D0
:1020E000B5FD052001F0A6FD002001F0A3FD0A20AA
:1020F00001F0A0FD002001F09DFD1C2001F09AFDE3
:10210000002001F097FD332001F094FD002001F044
:1021100091FD442001F08EFD002001F08BFD502048
:1021200001F088FD002001F085FD622001F082FDB4
:10213000002001F07FFD782001F07CFD002001F0FF
:1021400079FD882001F076FD002001F073FD9720D5
:1021500001F070FD002001F06DFDA62001F06AFD88
:10216000002001F067FDB72001F064FD002001F0C0
:1021700061FDC22001F05EFD002001F05BFDC72083
:1021800001F058FD002001F055FDD12001F052FD75
:10219000002001F04FFDD52001F04CFD002001F0A2
:1021A00049FDDD2001F046FD002001F043FDF32054
:1021B00001F040FD002001F03DFDE42001F046FD6E
:1021C000012001F037FD002001F034FD012001F075
:1021D00031FD002001F02EFD022001F02BFD00203A
:1021E00001F028FD2A2001F025FD002001F022FD4C
:1021F0003C2001F01FFD002001F01CFD4B2001F0F0
:1022000019FD002001F016FD5D2001F013FD0020F6
:1022100001F010FD742001F00DFD002001F00AFD19
:10222000842001F007FD002001F004FD932001F05F
:1022300001FD002001F0FEFCA22001F0FBFC0020CB
:1022400001F0F8FCB32001F0F5FC002001F0F2FCF5
:10225000BE2001F0EFFC002001F0ECFCC42001F0F6
:10226000E9FC002001F0E6FCCD2001F0E3FC0020B9
:1022700001F0E0FCD32001F0DDFC002001F0DAFCED
:10228000DD2001F0D7FC002001F0D4FCF32001F0A8
:10229000D1FC002001F0CEFCE52001F0D7FC0020AD
:1022A00001F0C8FC002001F0C5FC002001F0C2FCD8
:1022B000002001F0BFFC022001F0BCFC002001F076
:1022C000B9FC292001F0B6FC002001F0B3FC3C2051
:1022D00001F0B0FC002001F0ADFC4B2001F0AAFCA5
:1022E000002001F0A7FC5D2001F0A4FC002001F01B
:1022F000A1FC742001F09EFC002001F09BFC8420D6
:1023000001F098FC002001F095FC932001F092FC74
:10231000002001F08FFCA22001F08CFC002001F0D5
:1023200089FCB32001F086FC002001F083FCBE2074
:1023300001F080FC002001F07DFCC42001F07AFC5B
:10234000002001F077FCCD2001F074FC002001F0AA
:1023500071FCD32001F06EFC002001F06BFCDC204E
:1023600001F068FC002001F065FCF32001F062FC44
:10237000002001F05FFCE62001F068FC112001F074
:1023800059FC002001F056FC342001F053FC0020E1
:1023900001F050FC562001F04DFC002001F04AFCF9
:1023A000762001F047FC002001F044FC772001F08A
:1023B00041FC002001F03EFC662001F03BFC0020C7
:1023C00001F038FC882001F035FC002001F032FCDF
:1023D000992001F02FFC002001F02CFCBB2001F023
:1023E00029FC002001F026FC992001F023FC0020AC
:1023F00001F020FC662001F01DFC002001F01AFC19
:10240000552001F017FC002001F014FC552001F0CC
:1024100011FC002001F00EFC452001F00BFC002017
:1024200001F008FC432001F005FC002001F002FC53
:10243000442001F0FFFB002001F0FCFBE72001F04D
:1024400005FC322001F0F6FB002001F0F3FB5520E3
:1024500001F0F0FB002001F0EDFB762001F0EAFB3B
:10246000002001F0E7FB662001F0E4FB002001F012
:10247000E1FB672001F0DEFB002001F0DBFB6720C1
:1024800001F0D8FB002001F0D5FB872001F0D2FB42
:10249000002001F0CFFB992001F0CCFB002001F0DF
:1024A000C9FBBB2001F0C6FB002001F0C3FB992053
:1024B00001F0C0FB002001F0BDFB772001F0BAFB6A
:1024C000002001F0B7FB442001F0B4FB002001F034
:1024D000B1FB562001F0AEFB002001F0ABFB232046
:1024E00001F0A8FB002001F0A5FB332001F0A2FBC6
:1024F000002001F09FFB452001F09CFB002001F033
:1025000099FBE82001F0A2FB002001F093FB0020E2
:1025100001F090FB992001F08DFB002001F08AFB77
:10252000872001F087FB002001F084FB882001F068
:1025300081FB002001F07EFB772001F07BFB002077
:1025400001F078FB662001F075FB002001F072FBC2
:10255000882001F06FFB002001F06CFBAA2001F045
:1025600069FB002001F066FBBB2001F063FB00204B
:1025700001F060FB992001F05DFB002001F05AFBA7
:10258000662001F057FB002001F054FB552001F0BC
:1025900051FB002001F04EFB552001F04BFB0020C9
:1025A00001F048FB442001F045FB002001F042FB14
:1025B000442001F03FFB002001F03CFB552001F0DE
:1025C00039FB002001F036FBE92001F03FFBAA2097
:1025D00001F030FB002001F02DFB002001F02AFB70
:1025E000002001F027FB002001F030FBAA2001F0C1
:1025F00021FBCF2001F02AFB002001F01BFB002073
:1026000001F018FB002001F015FB002001F012FB87
:10261000002001F00FFB002001F00CFB002001F076
:1026200009FB002001F006FB002001F003FB002065
:1026300001F000FB002001F0FDFA002001F0FAFAA1
:10264000002001F0F7FA002001F0F4FA002001F078
:10265000F1FA002001F0EEFA002001F0EBFAF02090
:1026600001F0F4FA002001F0E5FA502001F0E2FA5E
:10267000002001F0DFFA002001F0DCFA002001F078
:10268000D9FAF32001F0E2FA002001F0D3FAF920A0
:1026900001F0DCFA062001F0CDFA102001F0CAFAB0
:1026A000292001F0C7FA002001F0C4FA3A2001F015
:1026B000CDFA552001F0BEFA112001F0C7FA6420CE
:1026C00001F058FE292001F0C1FA352001F0BEFAD0
:1026D000002001F0AFFA512001F0B8FAFF2001F01C
:1026E000A9FA532001F0B2FA2C2001F0A3FA5520E8
:1026F00001F0ACFA822001F09DFA2C20FEE3A84202
:102700007ED14FF470435521184601F0B5FA4FF2CF
:10271000010AAA21504601F0AFFA4FF2020B5221F2
:10272000584601F0A9FA08214FF2030001F0A4FA7B
:1027300001214FF2040001F09FFA0D214FF43040C7
:1027400001F09AFA0D214BF2010001F095FA0D21EA
:102750004BF2020001F090FA34214FF4364001F0C0
:102760008BFA34214BF2016001F086FA34214BF2EE
:10277000026001F081FA0D214FF4314001F07CFA42
:102780000D214BF2011001F077FA0D214BF20210EE
:1027900001F072FA34214FF4374001F06DFA342120
:1027A0004BF2017001F068FA34214BF2027001F033
:1027B00063FA00214FF4324001F05EFA00214BF23F
:1027C000012001F059FA00214BF2022001F054FAE5
:1027D00024214FF4384001F04FFA24214BF6010038
:1027E00001F04AFA24214BF6020001F045FA0121DA
:1027F0004FF43F4001F040FA0F214FF4334000E026
:10280000FEE301F039FA0F214BF2013001F034FA06
:102810000F214BF2023001F02FFA34214FF43940EE
:1028200001F02AFA34214BF6011001F025FA342187
:102830004BF6021001F020FA08214FF4354001F068
:102840001BFA08214BF2015001F016FA08214BF255
:10285000025001F011FA03214FF4424001F00CFA4A
:1028600024214FF43A4001F007FA24214BF60120CD
:1028700001F002FA24214BF6022001F0FDF90021BB
:102880004FF43C4001F0F8F978214BF6014001F09B
:10289000F3F900214BF6024001F0EEF900214FF46C
:1028A0003D4001F0E9F978214BF6015001F0E4F9DF
:1028B00000214BF6025001F0DFF900214FF43E40B9
:1028C00001F0DAF964214BF6016001F0D5F900213D
:1028D0004FF4514001F0D0F933214DF2011001F0D5
:1028E000CBF900214DF2021001F0C6F934214DF26E
:1028F000031001F0C1F900214DF2041001F0BCF900
:102900003A214DF2051001F0B7F900214DF2061001
:1029100001F0B2F94A214DF2071001F0ADF90021A2
:102920004DF2081001F0A8F95C214DF2091001F0F8
:10293000A3F900214DF20A1001F09EF981214DF218
:102940000B1001F099F900214DF20C1001F094F9EF
:10295000A6214DF20D1001F08FF900214DF20E105D
:1029600001F08AF9E5214DF20F1001F085F90121FE
:102970004DF2101001F080F913214DF2111001F009
:102980007BF901214DF2121001F076F954214DF23C
:10299000131001F071F901214DF2141001F06CF9DE
:1029A00082214DF2151001F067F901214DF2161048
:1029B00001F062F9CA214DF2171001F05DF9022110
:1029C0004DF2181001F058F900214DF2191001F0E4
:1029D00053F902214DF21A1001F04EF901214DF286
:1029E0001B1001F049F902214DF21C1001F044F9CD
:1029F00034214DF21D1001F03FF902214DF21E105D
:102A000001F03AF967214DF21F1001F035F902216A
:102A10004DF2201001F030F984214DF2211001F027
:102A20002BF902214DF2221001F026F9A4214DF2DA
:102A3000231001F021F902214DF2241001F01CF9BC
:102A4000B7214DF2251001F017F902214DF22610A1
:102A500001F012F9CF214DF2271001F00DF90221FA
:102A60004DF2281001F008F9DE214DF2291001F095
:102A700003F902214DF22A1001F0FEF8F2214DF285
:102A80002B1001F0F9F802214DF22C1001F0F4F8AE
:102A9000FE214DF22D1001F0EFF803214DF22E1022
:102AA00001F0EAF810214DF22F1001F0E5F80321B2
:102AB0004DF2301001F0E0F833214DF2311001F009
:102AC000DBF803214DF2321001F0D6F86D214DF202
:102AD000331001F0D1F800214FF4524001F0CCF84E
:102AE00033214DF2012001F0C7F800214DF2022000
:102AF00001F0C2F834214DF2032001F0BDF80021AD
:102B00004DF2042001F0B8F83A214DF2052001F011
:102B1000B3F800214DF2062001F0AEF84A214DF243
:102B2000072001F0A9F800214DF2082001F0A4F8D7
:102B30005C214DF2092001F09FF800214DF20A209E
:102B400001F09AF881214DF20B2001F095F8002157
:102B50004DF20C2001F090F8A6214DF20D2001F06D
:102B60008BF800214DF20E2001F086F8E5214DF2A0
:102B70000F2001F081F801214DF2102001F07CF8C6
:102B800013214DF2112001F077F801214DF21220AE
:102B900001F072F854214DF2132001F06DF801217B
:102BA0004DF2142001F068F882214DF2152001F059
:102BB00063F801214DF2162001F05EF8CA214DF2B2
:102BC000172001F059F802214DF2182001F054F8B5
:102BD00000214DF2192001F04FF802214DF21A2088
:102BE00001F04AF801214DF21B2001F045F80221C5
:102BF0004DF21C2001F040F834214DF21D2001F06F
:102C00003BF802214DF21E2001F036F867214DF20B
:102C10001F2001F031F802214DF2202001F02CF8A4
:102C200084214DF2212001F027F802214DF22220CB
:102C300001F022F8A4214DF2232001F01DF8022119
:102C40004DF2242001F018F8B7214DF2252001F0B3
:102C500013F802214DF2262001F00EF8CF214DF29B
:102C6000272001F009F802214DF2282001F004F894
:102C7000DE214DF2292000F0FFFF02214DF22A2033
:102C800000F0FAFFF2214DF22B2000F0F5FF0221B7
:102C90004DF22C2000F0F0FFFE214DF22D2000F02F
:102CA000EBFF03214DF22E2000F0E6FF10214DF244
:102CB0002F2000F0E1FF03214DF2302000F0DCFF77
:102CC00033214DF2312000F0D7FF03214DF23220A5
:102CD00000F0D2FF6D214DF2332000F0CDFF002136
:102CE0004FF4534000F0C8FF33214DF2013000F0A3
:102CF000C3FF00214DF2023000F0BEFF34214DF23F
:102D0000033000F0B9FF00214DF2043000F0B4FFB1
:102D10003A214DF2053000F0AFFF00214DF20630B0
:102D200000F0AAFF4A214DF2073000F0A5FF002174
:102D30004DF2083000F0A0FF5C214DF2093000F0A8
:102D40009BFF00214DF20A3000F096FF81214DF2E9
:102D50000B3000F091FF00214DF20C3000F08CFFA1
:102D6000A6214DF20D3000F087FF00214DF20E300C
:102D700000F082FFE5214DF20F3000F07DFF0121D0
:102D80004DF2103000F078FF13214DF2113000F0B9
:102D900073FF01214DF2123000F06EFF54214DF20D
:102DA000133000F069FF01214DF2143000F064FF90
:102DB00082214DF2153000F05FFF01214DF21630F7
:102DC00000F05AFFCA214DF2173000F055FF0221E2
:102DD0004DF2183000F050FF00214DF2193000F094
:102DE0004BFF02214DF21A3000F046FF01214DF257
:102DF0001B3000F041FF02214DF21C3000F03CFF7F
:102E000034214DF21D3000F037FF02214DF21E300B
:102E100000F032FF67214DF21F3000F02DFF02213C
:102E20004DF2203000F028FF84214DF2213000F0D7
:102E300023FF02214DF2223000F01EFFA4214DF2AB
:102E4000233000F019FF02214DF2243000F014FF6E
:102E5000B7214DF2253000F00FFF02214DF2263050
:102E600000F00AFFCF214DF2273000F005FF0221CC
:102E70004DF2283000F000FFDE214DF2293000F045
:102E8000FBFE02214DF22A3000F0F6FEF2214DF257
:102E90002B3000F0F1FE02214DF22C3000F0ECFE60
:102EA000FE214DF22D3000F0E7FE03214DF22E30D1
:102EB00000F0E2FE10214DF22F3000F0DDFE032184
:102EC0004DF2303000F0D8FE33214DF2313000F0B9
:102ED000D3FE03214DF2323000F0CEFE6D214DF2D3
:102EE000333000F0C9FE00214FF4544000F0C4FE1E
:102EF00033214DF2014000F0BFFE00E081E30021EC
:102F00004DF2024000F0B8FE34214DF2034000F0D3
:102F1000B3FE00214DF2044000F0AEFE3A214DF226
:102F2000054000F0A9FE00214DF2064000F0A4FE8D
:102F30004A214DF2074000F09FFE00214DF208406B
:102F400000F09AFE5C214DF2094000F095FE002150
:102F50004DF20A4000F090FE81214DF20B4000F04E
:102F60008BFE00214DF20C4000F086FEA6214DF2B2
:102F70000D4000F081FE00214DF20E4000F07CFE7D
:102F8000E5214DF20F4000F077FE01214DF2104097
:102F900000F072FE13214DF2114000F06DFE012190
:102FA0004DF2124000F068FE54214DF2134000F043
:102FB00063FE01214DF2144000F05EFE82214DF2CD
:102FC000154000F059FE01214DF2164000F054FE6C
:102FD000CA214DF2174000F04FFE02214DF2184079
:102FE00000F04AFE00214DF2194000F045FE02219A
:102FF0004DF21A4000F040FE01214DF21B4000E06E
:1030000002E300F039FE02214DF21C4000F034FED4
:1030100034214DF21D4000F02FFE02214DF21E40E2
:1030200000F02AFE67214DF21F4000F025FE02212C
:103030004DF2204000F020FE84214DF2214000F0AE
:103040001BFE02214DF2224000F016FEA4214DF29B
:10305000234000F011FE02214DF2244000F00CFE4E
:10306000B7214DF2254000F007FE02214DF2264027
:1030700000F002FECF214DF2274000F0FDFD0221BD
:103080004DF2284000F0F8FDDE214DF2294000F01D
:10309000F3FD02214DF22A4000F0EEFDF2214DF247
:1030A0002B4000F0E9FD02214DF22C4000F0E4FD40
:1030B000FE214DF22D4000F0DFFD03214DF22E40A8
:1030C00000F0DAFD10214DF22F4000F0D5FD032174
:1030D0004DF2304000F0D0FD33214DF2314000F090
:1030E000CBFD03214DF2324000F0C6FD6D214DF2C3
:1030F000334000F0C1FD00214FF4554000F0BCFD0D
:1031000033214DF2015000F0B7FD00214DF2025085
:1031100000F0B2FD34214DF2035000F0ADFD00216E
:103120004DF2045000F0A8FD3A214DF2055000F098
:10313000A3FD00214DF2065000F09EFD4A214DF204
:10314000075000F099FD00214DF2085000F094FD69
:103150005C214DF2095000F08FFD00214DF20A5024
:1031600000F08AFD81214DF20B5000F085FD002119
:103170004DF20C5000F080FDA6214DF20D5000F0F4
:103180007BFD00214DF20E5000F076FDE5214DF261
:103190000F5000F071FD01214DF2105000F06CFD58
:1031A00013214DF2115000F067FD01214DF2125034
:1031B00000F062FD54214DF2135000F05DFD01213D
:1031C0004DF2145000F058FD82214DF2155000F0E0
:1031D00053FD01214DF2165000F04EFDCA214DF273
:1031E000175000F049FD02214DF2185000F044FD47
:1031F00000214DF2195000F03FFD02214DF21A500E
:1032000000F03AFD01214DF21B5000F035FD022186
:103210004DF21C5000F030FD34214DF21D5000F0F5
:103220002BFD02214DF21E5000F026FD67214DF2CC
:103230001F5000F021FD02214DF2205000F01CFD36
:1032400084214DF2215000F017FD02214DF2225051
:1032500000F012FDA4214DF2235000F00DFD0221DB
:103260004DF2245000F008FDB7214DF2255000F03A
:1032700003FD02214DF2265000F0FEFCCF214DF25D
:10328000275000F0F9FC02214DF2285000F0F4FC28
:10329000DE214DF2295000F0EFFC02214DF22A50C0
:1032A00000F0EAFCF2214DF22B5000F0E5FC022187
:1032B0004DF22C5000F0E0FCFE214DF22D5000F0BC
:1032C000DBFC03214DF22E5000F0D6FC10214DF214
:1032D0002F5000F0D1FC03214DF2305000F0CCFC17
:1032E00033214DF2315000F0C7FC03214DF2325032
:1032F00000F0C2FC6D214DF2335000F0BDFC002106
:103300004FF4564000F0B8FC33214DF2016000F05C
:10331000B3FC00214DF2026000F0AEFC34214DF20E
:10332000036000F0A9FC00214DF2046000F0A4FC51
:103330003A214DF2056000F09FFC00214DF206603D
:1033400000F09AFC4A214DF2076000F095FC002144
:103350004DF2086000F090FC5C214DF2096000F035
:103360008BFC00214DF20A6000F086FC81214DF2B9
:103370000B6000F081FC00214DF20C6000F07CFC41
:10338000A6214DF20D6000F077FC00214DF20E6099
:1033900000F072FCE5214DF20F6000F06DFC0121A0
:1033A0004DF2106000F068FC13214DF2116000F046
:1033B00063FC01214DF2126000F05EFC54214DF2DD
:1033C000136000F059FC01214DF2146000F054FC30
:1033D00082214DF2156000F04FFC01214DF2166084
:1033E00000F04AFCCA214DF2176000F045FC0221B2
:1033F0004DF2186000F040FC00214DF2196000F021
:103400003BFC02214DF21A6000F036FC01214DF226
:103410001B6000F031FC02214DF21C6000F02CFC1E
:1034200034214DF21D6000F027FC02214DF21E6098
:1034300000F022FC67214DF21F6000F01DFC02210C
:103440004DF2206000F018FC84214DF2216000F064
:1034500013FC02214DF2226000F00EFCA4214DF27B
:10346000236000F009FC02214DF2246000F004FC0E
:10347000B7214DF2256000F0FFFB02214DF22660DE
:1034800000F0FAFBCF214DF2276000F0F5FB02219E
:103490004DF2286000F0F0FBDE214DF2296000F0D3
:1034A000EBFB02214DF22A6000F0E6FBF2214DF227
:1034B0002B6000F0E1FB02214DF22C6000F0DCFB00
:1034C000FE214DF22D6000F0D7FB03214DF22E605E
:1034D00000F0D2FB10214DF22F6000F0CDFB032154
:1034E0004DF2306000F0C8FB33214DF2316000F046
:1034F000C3FB03214DF2326000F0BEFB6D214DF2A3
:10350000336000F0B9FB5521184600F0B5FBAA2145
:10351000504600F0B1FB5221584600F0ADFB0821A7
:103520004FF2030000F0A8FB00214FF2040000F06E
:10353000A3FBCC214FF4314000F09EFB00214BF265
:10354000011000F099FB05214FF4364000F094FB88
:1035500070214FF4374000F08FFB70214BF2017067
:1035600000F08AFB01214FF4384000F085FB032175
:103570004BF6010000F080FB03214BF6020000F047
:103580007BFB03214BF6030000F076FB02214FF496
:103590003C4000F071FB00214BF6014000F06CFB59
:1035A00000214BF6024000F067FBD0214FF4494068
:1035B00000F062FB02214CF6011000F05DFB50218F
:1035C0004CF6021000F058FB50214CF6031000F0AE
:1035D00053FB50214CF6041000F04EFB00214FF439
:1035E000545000F049FB55214FF4685000F044FB63
:1035F0004FF4885000F02AFB782000F0C9FE4FF409
:10360000245000F023FBB9E0B842FCD1E22000F0E6
:103610001DFB1D2000F00EFB022000F00BFB042020
:1036200000F008FB642000F0B3FEE02000F00EFB89
:10363000012000F0FFFA0A2000F09CFEE02000F0DC
:1036400005FB032000F0F6FA0C2000F093FE0120A9
:1036500000F0FCFA0A2000F08DFEE62000F0F6FAF9
:103660002F2000F0E7FAFF2000F0E4FAFF2000F03E
:10367000E1FAB02000F0EAFA202000F0DBFA0020A6
:1036800000F0D8FA032000F0D5FA40F21F3000F025
:10369000D1FA012000F0CEFA40F2DF1000F0CAFAB1
:1036A000002000F0C7FAB42000F0D0FA042000F0A7
:1036B000C1FA40F21F4000F0BDFA002000F0BAFA53
:1036C0002E2000F0B7FA002000F0B4FA002000F03D
:1036D000B1FA002000F0AEFA002000F0ABFAB620FC
:1036E00000F0B4FA022000F0A5FA4FF4037000F0E5
:1036F000A1FA002000F09EFA172000F09BFA152096
:1037000000F098FA002000F095FA002000F092FAFC
:10371000F02000F09BFA032000F08CFA292000F042
:1037200095FAD02000F092FA002000F083FABE2033
:1037300000F08CFA052000F07DFAFE2000F07AFA05
:10374000012000F077FA002000F074FA002000F069
:1037500071FA002000F06EFAB82000F077FA03202A
:1037600000F068FA012000F065FABA2000F06EFA65
:10377000012000F05FFA642000F03CF8A08840458A
:1037800005D0B04203D0A84201D0B84219D14FF0C1
:103790002040D0F81C1121F00F01C0F81C11D0F806
:1037A0001C1121F47061C0F81C11D0F81C1141F0FB
:1037B0000101C0F81C11D0F81C1141F48071C0F84F
:1037C0001C110020FDF7AAFD012211460348FDF758
:1037D000A3F84846BDE8F05FFDF786BD000C014048
:1037E000034808B50088ADF80000BDF8000008BD2A
:1037F0000008006C10B50246BE2000F027FA052034
:1038000000F018FA1046FCF743FD4FF066320B4B00
:10381000FCF7CCFCFCF749FD80B200F00BFA01206C
:1038200000F008FAFF2000F005FA002000F002FA8C
:10383000BDE81040002000F0FDB9000066660440BD
:10384000F0B56C4C00232146A279898841F66316B5
:10385000012A01D01AB11BE0B14202D118E0B142F5
:1038600016D1082814D2DFE800F00406080A0C0E6E
:10387000101206200CE007200AE0042008E00520D2
:1038800006E0012004E0002002E0032000E0022026
:10389000A1F5134745F2103245F21055413F05D0CE
:1038A000914203D0A94201D0B14277D1082812D267
:1038B000DFE800F0110406080A0C0E1080230AE06D
:1038C000402308E0C02306E0202304E0602302E058
:1038D000A02300E0E023A94202D14FF4585000E0B9
:1038E0003620914205D0A94203D0B14201D043F025
:1038F0000803194600F0C0F9A188B1420AD0980621
:103900002088628802D5904202D303E0904201D918
:10391000228060806089A94241D100F097F900209F
:1039200000F088F96089401C80B200F08FF9002017
:1039300000F080F96089801C80B200F087F920884F
:10394000401EC0F30F2000F075F96089C01C80B2E2
:1039500000F07CF92078401EC0B200F06BF9A0891D
:1039600000F074F9002000F065F9A089401C80B2D5
:1039700000F06CF9002000F05DF9A089801C80B295
:1039800000F064F96088401EC0F30F2000F052F987
:10399000A089C01C80B200F059F922E028E000F0B4
:1039A00055F9002000F046F9002000F043F9208886
:1039B000401EC0F30F2000F03DF92078401EC0B239
:1039C00000F038F9A08900F041F9002000F032F948
:1039D000002000F02FF96088401EC0F30F2000F097
:1039E00029F9A078BDE8F040401EC0B200F022B92D
:1039F000F0BD0000B0000020F0B53F4A0D4604467F
:103A0000060A918810462F0A4089A1F51343413BCD
:103A100028D0A1F5A643103B24D0A1F5C853633BA1
:103A20002FD0A1F5AA43103B64D100F00FF9304626
:103A300000F000F95089401C80B200F007F9E0B2B4
:103A400000F0F8F8908900F001F9384600F0F2F83B
:103A50009089401C80B200F0F9F8E8B2BDE8F0406F
:103A600000F0E8B800F0F2F8304600F0E3F8E0B219
:103A700000F0E0F8908900F0E9F8384600F0DAF854
:103A8000EBE7917929B300F0E1F8304600F0D2F885
:103A9000E0B200F0CFF81088401EC0F30F2000F015
:103AA000C9F81078401EC0B200F0C4F8908900F048
:103AB000CDF8384600F0BEF8E8B200F0BBF8508808
:103AC000401EC0F30F2000F0B5F89078401EC0B241
:103AD000C4E71188091B491E8CB200F0B7F800201A
:103AE00000F0A8F8002000F0A5F8200A00F0A2F8E5
:103AF000E0B2D9E7F0BD0000B00000202DE9FF4F93
:103B00001D460C468A46580700D0012000EBD50020
:103B100069084843203A00F0FF09D0B20026DFF8D8
:103B2000A8B002904BE00C2D11D0102D14D0182D00
:103B300017D0202D45D12549029801EBC0104FF038
:103B40000008875D380613D52148026814E0029802
:103B5000204900EB400008E01F49029801EB0010EB
:103B6000EDE702981D4900EBC00001EB8000E6E79D
:103B70000D9828B91648426821460098FDF73AFC8E
:103B80007806070E641CBBF80200A4B2A04218D944
:103B9000A4EB0A00A84209D100985446401C80B208
:103BA0000090BBF8001081420BD906E008F101003B
:103BB00000F0FF08B8F1080FC4D3761CF6B24E45EA
:103BC000B1D3BDE8FF8F0000B00000207C5C00088E
:103BD00008000020BC44000830490008204F0008BD
:103BE0002DE9F84F044600F0FF0910190D46DDE9F4
:103BF0000AB61FFA80F8581987B24FF0000A12E08F
:103C0000444503D305EB0B004C4685B2BD420FD2B1
:103C10005B4629462046CDF800A0FFF76FFF04EB76
:103C20005B0084B2761C3278A2F120005E28E7D9CE
:103C3000BDE8F88F01B5BDF80000ADF80000BDF893
:103C400000000149088008BD0008006C01B5BDF8FE
:103C50000000ADF80000BDF800000149088008BD73
:103C6000FE07006C02480349008908807047000085
:103C7000B0000020FE07006C024A1080901C0180FA
:103C800070470000FE07006C10B58EB01C2168461E
:103C9000FCF781FA1C2107A8FCF77DFA1C484FF0BD
:103CA0002041102201601B494160062181600021F2
:103CB000C160C0E904128161C16113020162C0E9FF
:103CC00009139302C0E90B13416381630F202E2374
:103CD0000090CDE90103CDE9061011240890099068
:103CE00001230594CDE90332CDE90A32CDE90C4137
:103CF00007AA69460648FDF72FF908B1FCF79FFBB4
:103D00000548C16941F48061C1610EB010BD000079
:103D100028000020040100A00000014030B585B05B
:103D200000242C480094019402940394816941F08A
:103D300010018161816901F010010491816941F0F4
:103D400080018161816901F080010491816941F400
:103D500080718161816901F480710491816941F010
:103D600040018161816901F040010491816941F064
:103D700020018161816901F020010491816941F094
:103D800004018161816901F004010491816941F0BC
:103D9000080181618069104D00F008000490002244
:103DA00001212846FCF7B8FD01210320CDE90210CE
:103DB0000091019169462846FCF7AAFC202000905A
:103DC0000220CDE9024069462846FCF7A1FC05B077
:103DD00030BD000000100240000C01400C4810B53E
:103DE0000A4901604FF4E1314160002181600C22F9
:103DF000C160C0E904128161C161FDF7A5F9002825
:103E000003D0BDE81040FCF71ABB10BD00380140DC
:103E100070000020FEE7704770477047FCF788BDD0
:103E200030B58FB028216846FCF7B5F914210AA8EF
:103E3000FCF7B1F901210804CDE900100024029437
:103E400002250491CDE907504FF4E010099068462F
:103E5000FCF7F2FE0F20CDE90A056802CDE90C401F
:103E600002210AA80E94FCF7FBFD0FB030BD70478D
:103E700010B5406A0021C185C184FDF7B5F810BDB9
:103E80000168CA6822F49072CA6001684A6922F027
:103E900001024A61202180F83A10704710B590F86D
:103EA0003A10222901D0022010BD82684FF48053BD
:103EB0009A4201D1016921B1816A9A421BD04AB16B
:103EC0000AE00268816A5268C2F308020A80816AC5
:103ED000891C08E0026972B10268526802F07F0230
:103EE0000A70816A491C8162C18D491E0904090C4E
:103EF000C18503D016E002685268F1E70168CA681C
:103F000022F02002CA600168CA6822F48072CA6086
:103F100001684A6922F001024A61202180F83A10C2
:103F2000FDF784F9002010BD70B5044600680169F2
:103F3000E26821F44051114301612169A0680843FE
:103F4000616908432168CA6841F20C639A430243DD
:103F5000CA6020684169A26921F44071114341613E
:103F60001E492068884202D1FCF720FE01E0FCF7E0
:103F70000DFE00EBC00101EB0012606864218000BF
:103F8000B2FBF0F3B3FBF1F36FF018067343B2FB2F
:103F9000F0F5B2FBF0F605EB8305322303EB0515D4
:103FA000B5FBF1F5B6FBF1F605F0F00505EB0615EE
:103FB000B2FBF0F6B2FBF0F0B0FBF1F06FF01802DC
:103FC000504306EB800003EB0010B0FBF1F02168DA
:103FD00000F00F002844886070BD000000380140E8
:103FE0002DE9F041984617460E460446069D1DE011
:103FF000681C1BD02DB1FCF795FCA0EB0800A84273
:1040000014D92068C16821F4D071C1602068416969
:1040100021F001014161202084F8390084F83A0040
:10402000002084F838000320BDE8F0812068006893
:1040300036EA000004D00020B842D9D00020F3E7CF
:104040000120F9E70148FCF7D1BF00007000002013
:10405000FEE700000FB4054B10B503A9044A02980F
:1040600000F028F810BC5DF814FB0000C543000800
:10407000240000200907090E002804DB00F1E020DD
:1040800080F80014704700F00F0000F1E02080F885
:10409000141D704702E008C8121F08C1002AFAD197
:1040A00070477047002001E001C1121F002AFBD1B8
:1040B000704700002DE9FF4F8DB09B460F46044628
:1040C000002606E025280BD05A460F999047641C1D
:1040D000761C20780028F5D111B03046BDE8F08F6D
:1040E0000025A8460122984900E0054314F8013F45
:1040F000203B02FA03F00842F7D120782E2817D18E
:1041000014F8010F45F004052A280ED06FF02F0295
:104110002078A0F1300109290AD808EB880102EBC8
:10412000410100EB0108641CF2E757F8048B641CA2
:1041300020786C280DD004DC4C2812D06A2811D1CC
:1041400004E074280DD07A280CD10AE045F400155B
:1041500007E0617845F48015814202D1641C05F5C1
:104160008015641C2278692A45D008DC002AB3D067
:10417000582A69D0632A10D0642A08D13BE0702AFB
:1041800067D0732A13D0752A5CD0782A5CD0104689
:104190005A460F999047761CD3E017F8040B8DF818
:1041A000000000208DF80100E946012003E057F8E7
:1041B000049B4FF0FF3069074FF0000501D40AE07F
:1041C0006D1C45450DDA8542FADB19F8051000290A
:1041D000F6D106E06D1C8542FCDB19F805100029BC
:1041E000F8D12E4404E019F8010B5A460F99904774
:1041F0006D1EF8D2A5E00A200021CDE90801C5F323
:10420000025002280DD001CFC117031E71F1000327
:104210000DDA4FF0000CD0EB0C006CEB01012D23FC
:1042200008E0FF1D27F00707F7E80201EDE72B057F
:1042300004D52B238DF8283001233BE0EB0739D040
:104240002023F7E70A2000E010200021CDE9080133
:1042500007E01020002145F00405CDE908014FF0EA
:104260000808C5F3025002280FD001CF00214FF0FB
:10427000000A2B071FD5702A0DD0DDE908C38CF08A
:10428000100C5CEA030C0CD015E0FF1D27F00707AB
:10429000F7E80201EBE740228DF828204FF0010AF1
:1042A0000BE050EA010306D030238DF828308DF85A
:1042B000292002239A46582A04D024A20DF120096D
:1042C0000B9209E026A2F9E7DDE90823FCF706F8DE
:1042D0000B9B9B5C09F8013D50EA0102F4D1ADEB68
:1042E000090020300890680701D44FF001080899B0
:1042F000884502DDA8EB010000E000208046002593
:1043000006E00AA85A46405D0F9990476D1C761C3E
:104310005545F6DB04E030205A460F999047761C4D
:10432000B8F10001A8F10108F5DC05E019F8010B6E
:104330005A460F999047761C0899481E0890002904
:10434000F4DC641CC5E6000009280100303132337A
:1043500034353637383961626364656600000000C1
:1043600030313233343536373839414243444546AB
:104370000000000070B5054600244FF47A7603E093
:10438000304600F005F8641CAC42F9D370BD000063
:1043900070B54FF0E024002265690949A3690968F6
:1043A0004843A1699942FCD002D2A3EB010302E089
:1043B000A5EB010633441A440B468242F1D370BD8B
:1043C0001000002013B54FF6FF7301226946024822
:1043D000FCF72EFF00981CBD700000201CB5FCF7F8
:1043E000AFFAFFF71DFDFFF799FC2248FCF7E6FD49
:1043F000FFF74AFCFFF7F2FCFDF76CF8DFF8789066
:104400001E4E18274FF4FA7A4FF4784510244FF0D7
:104410000C0820214846FCF777FA5046FCF71CF9B7
:104420000020FCF761FF16A03560CDE9007018236D
:10443000D22228211E20FFF7D3FB16A0CDE9004091
:104440001023C82246211E20FFF7CAFB14A0CDE985
:1044500000401023C8225A211E20FFF7C1FB14A1DF
:10446000CDE900810C23C82282211E20FFF7B8FB72
:10447000CFE7000028000020000C014008000020C9
:10448000576172536869702053544D3332205E5F18
:104490005E0000005446544C43442054455354009D
:1044A00041544F4D40414C49454E54454B0000004E
:1044B000323031372F352F32370000000000000036
:1044C0000000000000000000000000003F4000006D
:1044D00000000000000030004000300040000000FC
:1044E00009000BC03D000BC03D00090018C024406E
:1044F0007FE0224031800000180024C01B000D80A6
:104500003240018003801C4027401C80074000404F
:10451000100060000000000000000000000000002B
:1045200000001F80204040200000402020401F80CD
:1045300000000000090006001F80060009000000BE
:10454000040004003F80040004000000001000602C
:10455000000000000000000004000400040004004B
:104560000400000000000040000000000000000007
:10457000002001C006003800400000001F802040DD
:10458000204020401F800000000010403FC000403D
:104590000000000018C021402240244018400000C4
:1045A00010802040244024401B80000002000D00A9
:1045B00011003FC0014000003C80244024402440C2
:1045C000238000001F8024402440344003800000EA
:1045D0003000200027C03800200000001B8024404D
:1045E000244024401B8000001C0022C022402240A6
:1045F0001F800000000000000840000000000000D4
:104600000000000004600000000000000000040042
:104610000A0011002080404009000900090009003B
:104620000900000000004040208011000A00040042
:104630001800200023402400180000001F802040A4
:10464000274029401F400000004007C039000F00EC
:1046500001C0004020403FC0244024401B80000097
:104660001F802040204020403080000020403FC07C
:10467000204020401F80000020403FC024402E40AA
:1046800030C0000020403FC024402E003000000019
:104690000F001080204022403380020020403FC0A5
:1046A000040004003FC02040204020403FC0204084
:1046B000204000000060202020203FC0200020007B
:1046C00020403FC024400B0030C0204020403FC06D
:1046D00020400040004000C03FC03C0003C03C0000
:1046E0003FC0000020403FC00C4023003FC02000DE
:1046F0001F802040204020401F80000020403FC0FD
:1047000024402400180000001F802140214020E0A8
:104710001FA0000020403FC02440260019C00040D8
:1047200018C0244024402240318000003000204046
:104730003FC020403000000020003F80004000408B
:104740003F80200020003E0001C00700380020000C
:10475000380007C03C0007C038000000204039C0C6
:10476000060039C0204000002000384007C0384013
:1047700020000000304021C02640384020C000000A
:10478000000000007FE0402040200000000070009A
:104790000C000380004000000000402040207FE02B
:1047A0000000000000002000400020000000000089
:1047B0000010001000100010001000100000000099
:1047C000400000000000000000000280054005409D
:1047D00003C0004020003FC00440044003800000AC
:1047E00000000380044004400640000000000380F5
:1047F000044024403FC000400000038005400540C5
:1048000003400000000004401FC02440244020005A
:10481000000002E0055005500650042020403FC033
:104820000440040003C000400000044027C00040D2
:104830000000000000100010041027E0000000003D
:1048400020403FC00140070004C0044020402040F9
:104850003FC000400040000007C0040007C0040043
:1048600003C00000044007C00440040003C000402F
:10487000000003800440044003800000041007F09F
:1048800004500440038000000000038004400450F2
:1048900007F00010044007C00240040004000000BC
:1048A000000006400540054004C000000000040070
:1048B0001F800440004000000400078000400440C6
:1048C00007C000400400070004C001800600040087
:1048D000060001C0070001C006000000044006C039
:1048E000010006C0044000000410071004E001802D
:1048F000060004000000044005C00640044000001B
:104900000000000004007BE04020000000000000E8
:104910000000FFF000000000000040207BE00400E9
:104920000000000040008000400020002000400007
:104930000000000000000000000000000000000077
:104940000000000000001FCC000C00000000000070
:104950000000080030006000080030006000000027
:10496000022003FC1E20022003FC1E200220000067
:1049700000000E1811043FFF10840C7800000000A6
:104980000F0010840F3800C00778188400780000EA
:1049900000780F8410C411240E9800E400840008ED
:1049A0000800680070000000000000000000000027
:1049B00000000000000007E018182004400200007A
:1049C000000040022004181807E00000000000006A
:1049D0000240024001800FF00180024002400000CE
:1049E0000080008000800FF80080008000800000C0
:1049F0000001000D000E000000000000000000009B
:104A00000000008000800080008000800080008026
:104A10000000000C000C000000000000000000007E
:104A20000000000600180060018006001800200049
:104A3000000007F0080810041004080807F0000040
:104A40000000080408041FFC00040004000000002B
:104A500000000E0C10141024104411840E0C0000E1
:104A600000000C1810041104110412880C700000CE
:104A7000000000E00320042408241FFC00240000A0
:104A800000001F9810841104110410881070000099
:104A9000000007F008881104110418880070000055
:104AA00000001C00100010FC13001C00100000008F
:104AB00000000E3811441084108411440E38000098
:104AC00000000700088C10441044088807F000001C
:104AD000000000000000030C030C000000000000B8
:104AE00000000000000101060000000000000000BE
:104AF000000000800140022004100808100400009B
:104B000002200220022002200220022002200000B7
:104B1000000010040808041002200140008000007A
:104B200000000E001200100C106C10800F0000002E
:104B300003E00C1813E4142417C4082807D000005D
:104B40000004003C03C41C40074000E4001C0004B7
:104B500010041FFC1104110411040E8800700000E1
:104B600003E00C1810041004100410081C100000BE
:104B700010041FFC100410041004080807F00000C3
:104B800010041FFC1104110417C4100408180000BD
:104B900010041FFC1104110017C0100008000000D1
:104BA00003E00C181004100410441C7800400000AE
:104BB00010041FFC10840080008010841FFC10046F
:104BC0000000100410041FFC10041004000000007A
:104BD00000030001100110011FFE10001000000072
:104BE00010041FFC110403801464181C100400003E
:104BF00010041FFC1004000400040004000C00005A
:104C000010041FFC1F0000FC1F001FFC100400000C
:104C100010041FFC0C04030000E010181FFC10001F
:104C200007F00808100410041004080807F000003A
:104C300010041FFC10841080108010800F000000F2
:104C400007F0081810241024101C080A07F20000AE
:104C500010041FFC1104110011C011300E0C0004CF
:104C600000000E1C11041084108410441C38000035
:104C70001800100010041FFC1004100018000000A1
:104C800010001FF810040004000410041FF81000A6
:104C900010001E0011E0001C007013801C001000AA
:104CA0001FC0103C00E01F0000E0103C1FC00000CF
:104CB0001004180C163401C001C01634180C10046E
:104CC00010001C00130400FC13041C001000000062
:104CD0000804101C1064108413041C041018000035
:104CE0000000000000007FFE400240024002000081
:104CF000000030000C0003800060001C0003000076
:104D000000004002400240027FFE00000000000060
:104D10000000000020004000400040002000000093
:104D2000000100010001000100010001000100017B
:104D300000004000400020000000000000000000D3
:104D400000000098012401440144014400FC0004D7
:104D500010001FFC0088010401040088007000009E
:104D600000000070008801040104010400880000B4
:104D70000000007000880104010411081FFC0004F9
:104D8000000000F8014401440144014400C800004F
:104D90000000010401040FFC1104110411001800AB
:104DA000000000D601290129012901C901060000DE
:104DB00010041FFC008401000100010400FC000439
:104DC00000000104190419FC0004000400000000A4
:104DD0000000000300010101190119FE000000009C
:104DE00010041FFC0024004001B4010C0104000069
:104DF0000000100410041FFC000400040000000068
:104E0000010401FC0104010001FC0104010000FC9B
:104E1000010401FC008401000100010400FC000405
:104E2000000000F8010401040104010400F800007E
:104E3000010101FF008501040104008800700000E9
:104E400000000070008801040104010501FF000159
:104E50000104010401FC0084010401000180000040
:104E6000000000CC01240124012401240198000049
:104E700000000100010007F8010401040000000027
:104E8000010001F8000400040004010801FC000412
:104E9000010001800170000C001001600180010020
:104EA00001F0010C003001C00030010C01F00100E4
:104EB00000000104018C00740170018C01040000E9
:104EC000010101810171000E0018016001800100E3
:104ED00000000184010C013401440184010C000034
:104EE000000000000000000001003EFC4002400203
:104EF0000000000000000000FFFF000000000000B4
:104F00000000400240023EFC0100000000000000E2
:104F10000000600080008000400040002000200071
:104F20000000000000000000000000000000000081
:104F30000000000000000000000000000000000071
:104F40000000000000000000000000000000000061
:104F50000000000F80380FFE380F8038000000007E
:104F60000000000000000000000000000000010040
:104F7000000600000C0000380000310000060000B0
:104F80000C000038000030000000000000000000AD
:104F900061800067F807F98000618000618000612E
:104FA000800061800067F807F980006180000000E0
:104FB00000000000000001C0E003E0F0063008043B
:104FC00018081FFFFE040E080787F00381E00000A9
:104FD0000000000001F000060C00040408060C703C
:104FE00001F9C0000E00003BE000EC1807080804BF
:104FF0000C180003E00000000001E00007F003F8D7
:1050000018041C0804170807E1D003C0E00023B00F
:10501000003C080020080000100000000000000113
:1050200000003100003200001C0000000000000001
:105030000000000000000000000000000000000070
:105040000000000000000000000000000000000060
:105050007F0001FFC00780F00C0018100004200042
:10506000020000000000002000021000040C0018E4
:105070000780F001FFC0007F00000000000000007A
:105080000000000000000000000000004200006678
:1050900000006600003C0000180003FFC00018007C
:1050A000003C0000660000660000420000000000B6
:1050B000080000080000080000080000080001FFC8
:1050C000C0000800000800000800000800000800F8
:1050D00000000000000100003100003200001C0050
:1050E00000000000000000000000000000000000C0
:1050F0000000000000000000080000080000080098
:105100000008000008000008000008000008000077
:10511000080000080000000000000000000000007F
:1051200038000038000038000000000000000000D7
:10513000000000000000000000000000000000006F
:10514000000600001C000070000180000E00003806
:105150000000C0000700001C00003000000000003C
:10516000000000007F8001FFE0038070060018044B
:10517000000804000806001803807001FFE0007FAB
:10518000800000000000000000000100080100088D
:1051900001000803FFF807FFF800000800000800FE
:1051A000000800000000000000000001C03802C03C
:1051B00058040098040118040218040418061C1866
:1051C00003F81801E0F800000000000000000001F2
:1051D000C0E003C0F004000804080804080806182A
:1051E0000803F41801E7F00001E0000000000000EF
:1051F000000000000300000D00001100006100002D
:10520000810803010807FFF80FFFF80001080001FB
:10521000080000000000000000E007FCD0060808BD
:10522000061008061008061008061838060FF006C3
:1052300007C0000000000000000000003F8001FFE8
:10524000E003843002081804100804100804100851
:10525000071810030FF00007C00000000000000056
:10526000000003C0000700000600000600F8060763
:10527000F806180006E00007000006000000000025
:1052800000000001E1E003F7F00634100418080400
:105290001808040C08040C0806161803F3F001C1E2
:1052A000E000000000000000F80003FC30030638B6
:1052B0000402080402080402080404100308F001B0
:1052C000FFC0007F000000000000000000000000A0
:1052D00000000000000000007038007038007038D6
:1052E00000000000000000000000000000000000BE
:1052F000000000000000000000000000301A003034
:105300001C00000000000000000000000000000081
:10531000000000000000000800001400002200004F
:1053200041000080800100400200200400100800BD
:105330000800000000000000210000210000210002
:1053400000210000210000210000210000210000B8
:105350002100002100000000000000000000080003
:10536000080400100200200100400080800041007D
:1053700000220000140000080000000000000003EC
:10538000C00004C000040000080038080F380808F6
:10539000380810000C300007E00003C000000000D7
:1053A000000000003F8000FFE0038070020F100645
:1053B000708804C088048308047F8802C0900301B9
:1053C0002000FE400000080000180001F8003E0820
:1053D00001C20007020007E20000FE00001FC80033
:1053E00001F800003800000804000807FFF807FF74
:1053F000F80408080408080408080408080618083F
:1054000003F41801E7F00001E000000000000000D4
:105410003F8001FFE00380700200180400080400D0
:10542000080400080400100600200780C0000000E7
:1054300004000807FFF807FFF80400080400080448
:10544000000804001802001003807001FFE0007FD4
:105450008000000004000807FFF807FFF8040808B0
:10546000040808040808040808043E0804000806A4
:10547000001801006000000004000807FFF807FFA3
:10548000F8040808040800040800040800043E00AA
:10549000060000060000018000000000000000007F
:1054A0003F8001FFE003807006001804000804023A
:1054B000080402080203F00783F000020000020063
:1054C00004000807FFF807FFF804080800080000B8
:1054D000080000080000080004080807FFF807FF9C
:1054E000F8040008000000000000040008040008A0
:1054F00004000807FFF807FFF80400080400080488
:10550000000800000000000000000000000600008D
:105510000700000104000104000104000307FFFE6E
:1055200007FFFC040000040000040000040008075A
:10553000FFF807FFF8040C08001800003E0004C73D
:10554000800503C80600F8040038040018000008AD
:1055500004000807FFF807FFF8040008000008002F
:105560000008000008000008000008000018000003
:105570006000000004000807FFF807800807FC002F
:10558000007FC00003F80007C0007800078008070C
:10559000FFF807FFF804000804000807FFF80700F9
:1055A0000803C00000E000003800001E00000700F3
:1055B0000001C00400F007FFF80400000000000034
:1055C0007F8001FFE00380700600180400080400DB
:1055D0000806001803003001FFE0007F8000000093
:1055E00004000807FFF807FFF80404080404000497
:1055F0000400040400040400060C0003F80001F099
:1056000000000000000000007F8001FFE0038070C8
:105610000600880400880400C806003C03003E0120
:10562000FFE6007F8400000004000807FFF807FF82
:10563000F8040808040800040C00040F00040BC060
:105640000610F003F03801E0080000080000000137
:10565000E0F803F030063010041808041808040CB1
:1056600008040C080206180207F00781E000000099
:105670000180000600000400000400000400080788
:10568000FFF807FFF804000804000004000006000B
:105690000001800004000007FFE007FFF00400188D
:1056A00000000800000800000800000800000804CE
:1056B000001007FFE004000004000006000007E0FF
:1056C0000007FE00041FE00001F80000380001E0C0
:1056D000043E0007C00006000004000004000007AC
:1056E000E00007FFC0041FF80007C007F80007FF2D
:1056F00080043FF80007C004F80007000004000021
:1057000000000004000806001807C07805F1C80072
:105710003E00001F800463E80780F80600180400BC
:105720000800000004000006000007800007E008F1
:10573000047C08001FF80007F800180804E00807B8
:105740000000060000040000000000010008060040
:10575000380400F80403E8040F08047C0805F00886
:1057600007C00807001804006000000000000000E7
:1057700000000000000000000000003FFFFE2000CD
:10578000022000022000022000022000020000008F
:1057900000000000000008000007000000C000003A
:1057A00038000006000001C000003000000E0000BC
:1057B00001000000000000000000200002200002A4
:1057C0002000022000022000023FFFFE0000000037
:1057D00000000000000000000000000000000000C9
:1057E0000008000010000030000020000030000021
:1057F0001000000800000000000000000000010090
:105800000001000001000001000001000001000093
:105810000100000100000100000100000100000182
:105820000000000000000000002000002000001028
:105830000000100000000000000000000000000058
:10584000000000000000000000F00019F8001B1824
:10585000002208002608002408002410003FF80059
:105860001FF800000800001800000004000007FFF7
:10587000F80FFFF00018180010080020080020089A
:10588000003018001FF0000FC000000000000000F2
:1058900007C0001FF000183000200800200800207A
:1058A00008003C08001C1000006000000000000020
:1058B0000000000007C0001FF0003818002008009A
:1058C000200800200804101007FFF80FFFF0000068
:1058D000100000000000000000000007C0001FF0E2
:1058E00000123000221800220800220800320800AE
:1058F0001E10000E2000000000000000200000200C
:105900000800200801FFF803FFF80620080420081B
:105910000420080720000300000000000000000031
:10592000000E000E6E001FF30031B10020B1002008
:10593000B1003191001F13002E1E00200E00300018
:1059400000000004000807FFF80FFFF8001008002F
:105950002000002000002008003FF8001FF8000091
:1059600008000000000000000000002008002008DF
:10597000002008063FF8063FF80000080000080075
:10598000000800000000000000000000000000000F
:1059900003000003002001002001002003063FFE59
:1059A000063FFC00000000000000000000000004B2
:1059B000000807FFF80FFFF8000188000300002F20
:1059C000C00038F80020380020080000080000005F
:1059D000000000000000040008040008040008079C
:1059E000FFF80FFFF80000080000080000080000A2
:1059F00000000000002008003FF8003FF8001008F9
:105A0000002000003FF8003FF800100800200000D0
:105A10003FF8003FF8000008000000002008003FA9
:105A2000F8003FF8001008001000002000002008D7
:105A3000003FF8001FF80000080000000000000010
:105A400007C0000FF00018300030080020080020C8
:105A500008003008001830000FF00007C0000000F8
:105A6000000000002001003FFF003FFF0010110078
:105A70002009002008002008003038001FF0000F27
:105A8000C00000000000000007C0001FF000381830
:105A9000002008002008002009001011001FFF004E
:105AA0003FFF000001000000002008002008002047
:105AB00008003FF8003FF800080800100800200820
:105AC0000020000030000030000000000000000056
:105AD0000000000C78001E18003308002308002185
