:020000040800F2
:10000000B0040020450100089D1700084B120008AD
:100010009917000853020008E51C000800000000C2
:10002000000000000000000000000000C9170008E8
:1000300057020008000000009F170008CB170008B7
:100040005F0100085F0100085F0100085F01000810
:100050005F0100085F0100085F0100085F01000800
:100060005F0100085F0100085F0100085F010008F0
:100070005F0100085F0100085F0100085F010008E0
:100080005F0100085F0100085F0100085F010008D0
:100090005F0100085F0100085F0100085F010008C0
:1000A0005F0100085F0100085F0100085F010008B0
:1000B0005F0100085F0100085F0100085F010008A0
:1000C0005F0100085F0100085F0100085F01000890
:1000D0005F0100085F0100085F0100085F01000880
:1000E0005F0100085F0100085F0100085F01000870
:1000F0005F0100085F0100085F0100085F01000860
:100100005F0100085F0100085F0100085F0100084F
:100110005F0100085F0100085F0100085F0100083F
:100120005F0100085F0100085F0100085F0100082F
:10013000DFF80CD000F06CF8004800473D200008C4
:10014000B00400200648804706480047FEE7FEE767
:10015000FEE7FEE7FEE7FEE7FEE7FEE7FEE7FEE777
:100160003918000831010008202A04DB203A21FA5E
:1001700002F00021704721FA02F3D040C2F12002C0
:100180009140084319467047D2B201E000F8012BB4
:10019000491EFBD270470022F6E710B513460A4607
:1001A00004461946FFF7F0FF204610BD2DE9F05F29
:1001B0000546002092469B468846064681464024D6
:1001C0001BE02846414647462246FFF7CDFF5346EF
:1001D0005A46C01A914110D311461846224600F0E3
:1001E00029F82D1A67EB01084F462246012000210D
:1001F00000F020F817EB00094E41201EA4F1010485
:10020000DFDC484631462A464346BDE8F09F000001
:10021000064C074D06E0E06840F0010394E8070053
:1002200098471034AC42F6D3FFF786FF643C0008D1
:10023000843C0008202A04DB203A00FA02F1002066
:1002400070479140C2F1200320FA03F31943904014
:10025000704700BFFEE770477047000070B5044666
:10026000B3F5804F13D1D1E9000540EA05108D6840
:1002700040EA05208D6928438D8940EA054054F8FD
:100280002250064E3540284344F8220003E06FF028
:10029000704044F82200002070BD00000000F0CF44
:1002A00070B50246086852F8200020F001000E6880
:1002B00042F826008868082801D1402300E0002386
:1002C000486818438E683043CE6830430E69304327
:1002D0004E693043CE6930430E6A30434E6A304334
:1002E0008E6A3043CE6A30430E6B40EA060488695A
:1002F0000443486B0443074D45F4806545F4E0250D
:10030000086852F82000A84320430E6842F82600EF
:10031000002070BD7FFB080010B50346D1E9000442
:1003200040EA04108C6840EA04208C8940EA0444C6
:10033000088A401E44EA0054087D801E44EA00609A
:100340008C692043541C53F8244004F0404420435B
:10035000541C43F82400002010BD000070B5044672
:1003600000F00AFA06462546681C10B104480078D9
:10037000054400BF00F000FA801BA842FAD370BD0C
:100380001C00002000B585B0002001900290039071
:1003900004901C48006808B105B000BD012019494F
:1003A000086000BF1848406940F4807016494861F1
:1003B0000846406900F48070009000BF00BF41F221
:1003C00001000190022002900320049001A90F482F
:1003D00000F022F84FF68070019002200290032076
:1003E000049001A90A4800F017F84CF2337001900C
:1003F000022002900320049001A9064800F00CF8A6
:1004000000BFC9E7000000200010024000200140AA
:1004100000180140001401402DE9F847024600236E
:100420009C467BE14FF0010808FA03F4D1F8008004
:1004300008EA0400A0427DD1DFF8F4A2D1F80480DC
:10044000A8EB0A09D0453AD014DCB8F1030F50D01C
:1004500009DCB8F1000F31D0B8F1010F1CD0B8F1B0
:10046000020F49D120E0B8F1110F18D0B8F1120FE6
:1004700042D11EE0B9F5881F25D006DCB9F5803FD2
:1004800020D0B9F5801F37D11AE0B9F5001F18D078
:10049000B9F5041F30D117E0D1F80CC02DE0D1F828
:1004A0000C8008F1040C28E0D1F80C8008F1080C4D
:1004B00023E0D1F80C8008F10C0C1EE000BF00BF57
:1004C00000BF00BF00BF00BFD1F80880B8F1000F27
:1004D00002D14FF0040C0BE0D1F80880B8F1010F05
:1004E00003D14FF0080C146102E04FF0080C546186
:1004F00003E04FF0000C00E000BF00BFFF2801D870
:10050000904601E002F104084646FF2802D84FEA6F
:10051000830803E0A3F108084FEA88084746D6F8A5
:1005200000804FF00F0909FA07F928EA09080CFAC8
:1005300007F900E07AE048EA0908C6F80080D1F837
:10054000048008F08058B8F1805F6FD100BFDFF8F9
:10055000E481D8F8188048F00108DFF8D891C9F88C
:100560001880C846D8F8188008F00108CDF8008037
:1005700000BF00BF4FEAB9384FEA930958F8295035
:100580004FEA83784FEA18794FF00F0808FA09F814
:1005900025EA0805DFF8A081424502D14FF00008A6
:1005A00024E0DFF89881424502D14FF001081DE0B8
:1005B000DFF88C81424502D14FF0020816E0DFF8E7
:1005C0008481424502D14FF003080FE0DFF87881C3
:1005D000424502D14FF0040808E0DFF8708142453F
:1005E00002D14FF0050801E04FF006084FEA837989
:1005F0004FEA197908FA09F848EA0505DFF8508149
:100600004FEA930948F82950D1F8048008F480385B
:10061000B8F5803F0BD1DFF83C81D8F8008048EA7C
:100620000008DFF83091C9F800800AE075E0DFF8D3
:100630002481D8F8008028EA0008DFF81891C9F86A
:100640000080D1F8048008F40038B8F5003F0ED1DE
:10065000DFF8008108F10408D8F8008048EA0008B3
:10066000DFF8F09009F10409C9F800800DE0DFF827
:10067000E48008F10408D8F8008028EA0008DFF8D0
:10068000D49009F10409C9F80080D1F8048008F475
:100690008018B8F5801F0ED1DFF8B88008F108087F
:1006A000D8F8008048EA0008DFF8A89009F10809A6
:1006B000C9F800800DE0DFF89C8008F10808D8F840
:1006C000008028EA0008DFF88C9009F10809C9F8D1
:1006D0000080D1F8048008F40018B8F5001F0ED18E
:1006E000DFF8708008F10C08D8F8008048EA0008AC
:1006F000DFF8609009F10C09C9F800800DE0DFF81F
:10070000548008F10C08D8F8008028EA0008DFF8C7
:10071000449009F10C09C9F800805B1CD1F80080F5
:1007200028FA03F8B8F1000F7FF47CAEBDE8F88733
:10073000000011100010024000080140000C0140B0
:10074000001001400014014000180140001C01404D
:10075000080001400004014010B5C26821EA02030C
:1007600002EA010443EA0443036110BD0AB10161D6
:1007700001E00B0403617047014800687047000006
:10078000140000200348006803490978084401491F
:1007900008607047140000201C00002010B50848B5
:1007A000006840F0100006490860032000F098F847
:1007B000002000F007F800F02BF8002010BD00002A
:1007C0000020024070B504460E4800784FF47A715C
:1007D000B1FBF0F00C490968B1FBF0F5284600F0D8
:1007E00033FC08B1012070BD102C07D20022214635
:1007F000501E00F037F80548046001E00120F2E7E0
:100800000020F0E71C00002020000020180000203D
:1008100008B500BF1148806940F001000F498861A8
:100820000846806900F00100009000BF00BF00BFD3
:100830000846C06940F08050C8610846C06900F0B1
:100840008050009000BF00BF00BF0549486820F0FD
:10085000E06040F00070486000BF08BD001002403A
:10086000000001402DE9F05F80460D461646002746
:1008700001F04AFA074639462A46334601F0070096
:10088000C0F1070ABAF1040F02D94FF0040A01E0DF
:10089000C0F1070AD14600F1040ABAF1070F02D2EB
:1008A0004FF0000A01E0A0F1030AD4464FF0010A1C
:1008B0000AFA09FAAAF1010A0AEA020A0AFA0CFA81
:1008C0004FF0010B0BFA0CFBABF1010B0BEA030B26
:1008D0004AEA0B042146404601F01EFABDE8F09FAB
:1008E00000BF00F00702064B19684FF6FF031940DE
:1008F000044B0B4343EA0221014B196000BF7047D0
:100900000CED00E00000FA0570B504460D460CB988
:10091000012070BD5A48006800F00700A8420ED2BE
:100920005748006820F007002843554908600846EA
:10093000006800F00700A84201D00120E9E7207814
:1009400000F0020002281DD1207800F004000428E5
:1009500005D14C48406840F4E0604A49486020783E
:1009600000F00800082805D14648406840F460506F
:10097000444948604348406820F0F000A1680843BB
:1009800040494860207800F0010078B36068012891
:1009900006D13C48006800F4003090B90120B8E767
:1009A0006068022806D13748006800F0007040B93E
:1009B0000120AEE73348006800F0020008B90120CA
:1009C000A7E73048406820F00300616808432D49DC
:1009D0004860FFF7D1FE064609E0FFF7CDFE801B19
:1009E00041F28831884202D9032092E707E0254886
:1009F000406800F00C006168B0EB810FEDD1204839
:100A0000006800F00700A8420ED91D48006820F0D9
:100A1000070028431A4908600846006800F00700EC
:100A2000A84201D0012074E7207800F004000428D7
:100A300007D11448406820F4E060E1680843114998
:100A40004860207800F00800082808D10D48406868
:100A500020F46050216940EAC1000A49486000F072
:100A60003FF808494968C1F30311074A515CC8407F
:100A70000649086006480068FFF7A4FE002048E722
:100A800000200240001002404C3C000820000020E2
:100A90001800002001480068704700002000002076
:100AA00000B5FFF7F7FF04494968C1F30221034A83
:100AB000515CC84000BD0000001002405C3C0008D2
:100AC00000B5FFF7E7FF04494968C1F3C221034AB3
:100AD000515CC84000BD0000001002405C3C0008B2
:100AE000F0B585B00FF26C0C9CE8E01001A8A0E80E
:100AF000E0101CA52D680095002100220023002491
:100B00000020194D696801F00C05F5B1042D02D0E3
:100B1000082D19D101E0154819E001ADC1F3834654
:100B2000AC5D01F4803555B10F4D6D68C5F340459E
:100B30001DF805200D4D6543B5FBF2F302E00C4DA9
:100B400004FB05F3184602E000BF084800BF00BFE1
:100B500005B0F0BD02030405060708090A0B0C0DD9
:100B60000E0F1010010200000010024000127A0067
:100B700000093D00F8B504460CB90120F8BD207805
:100B800000F00100002878D0F848406800F00C0020
:100B900004280CD0F548406800F00C00082811D15A
:100BA000F248406800F48030B0F5803F0AD1EF4849
:100BB000006800F4003000285FD0606800285CD135
:100BC0000120DBE700BF6068B0F5803F06D1E74851
:100BD000006840F48030E549086028E0606858B952
:100BE000E248006820F48030E04908600846006868
:100BF00020F4802008601AE06068B0F5A02F0BD1C7
:100C0000DA48006840F48020D84908600846006847
:100C100040F4803008600AE0D448006820F4803056
:100C2000D24908600846006820F48020086000BFB0
:100C3000606888B1FFF7A0FD054606E0FFF79CFD60
:100C4000401B642801D9032098E7C848006800F4D5
:100C500000300028F2D010E0FFF78EFD054606E0D8
:100C6000FFF78AFD401B642801D9032086E7BF48AF
:100C7000006800F400300028F2D1207800F0020073
:100C8000022857D1B948406800F00C0050B1B7486D
:100C9000406800F00C00082818D1B448406800F4FF
:100CA000803098B9B148006800F0020020B1206996
:100CB000012801D0012061E7AC48006820F0F8006D
:100CC000616940EAC100A949086033E02069E8B1E0
:100CD0000120A7490860FFF74FFD054606E0FFF732
:100CE0004BFD401B022801D9032047E79F480068BD
:100CF00000F002000028F2D09C48006820F0F800C4
:100D0000616940EAC1009949086013E000209849F0
:100D10000860FFF731FD054606E0FFF72DFD401B9B
:100D2000022801D9032029E79048006800F002005A
:100D30000028F2D1207800F0080008282DD1A06901
:100D4000B8B101208B490860FFF716FD054606E0A3
:100D5000FFF712FD401B022801D903200EE783484C
:100D6000406A00F002000028F2D0012000F018FDD7
:100D700013E000207F490860FFF7FEFC054606E00F
:100D8000FFF7FAFC401B022801D90320F6E677485A
:100D9000406A00F002000028F2D1207800F0040040
:100DA000042873D100277148C06900F0805070B9E1
:100DB00000BF6E48C06940F080506C49C861084669
:100DC000C06900F08050009000BF00BF01276A4852
:100DD000006800F48070B0B96748006840F4807023
:100DE00065490860FFF7C8FC054606E0FFF7C4FC4C
:100DF000401B642801D90320C0E65F48006800F466
:100E000080700028F2D000BFE068012806D1574862
:100E1000006A40F001005549086227E0E06858B9CF
:100E20005248006A20F00100504908620846006AF2
:100E300020F00400086219E0E06805280BD14B4857
:100E4000006A40F00400494908620846006A40F020
:100E5000010008620AE04548006A20F001004349A9
:100E600008620846006A20F00400086200BFE068DB
:100E7000A0B1FFF781FC054609E0FFF77DFC401BB0
:100E800041F28831884202D9032077E622E03748D0
:100E9000006A00F002000028EFD012E0FFF76CFCBF
:100EA000054608E0FFF768FC401B41F288318842A4
:100EB00001D9032062E62D48006A00F002000028F4
:100EC000F0D1012F05D12948C06920F08050274971
:100ED000C86100BFE069C8B32448406800F00C0056
:100EE000082860D0E069022848D10020204908661F
:100EF000FFF742FC054606E0FFF73EFC401B0228D8
:100F000001D903203AE61948006800F00070002873
:100F1000F2D1206AB0F5803F07D11448406820F430
:100F20000030A168084311494860D4E9080108432A
:100F30000E49496821F4741108430C4948600120A6
:100F40000B490866FFF718FC054607E03DE0FFF790
:100F500013FC401B022801D903200FE60348006858
:100F600000F000700028F2D02FE0000000100240D6
:100F700000004242800442420070004000201449B8
:100F80000866FFF7F9FB054606E0FFF7F5FB401B97
:100F9000022801D90320F1E50E48006800F0007036
:100FA0000028F2D111E0E069012800D1E6E5094806
:100FB000466806F48031206A814204D106F470113B
:100FC000606A814201D00120D8E50020D6E500000A
:100FD000000042420010024070B504460E4615461D
:100FE0001CB1A069B0F5807F01D1012070BD94F8DB
:100FF000410028B9002084F84000204600F01FF886
:1010000004F108012068FFF74BF93146A268206817
:10101000FFF782F92946236BD4E90102FFF71EF995
:10102000A168206850F8210040F00100A268216802
:1010300041F82200012084F841000020D6E710B5D5
:101040000446FFF79FF910BD70B504462546681E9B
:10105000B0F1807F01D301200FE0681E4FF0E02146
:1010600048610F214FF0FF3000F056FE00204FF096
:10107000E021886107200861002070BD10B504469A
:101080000CB9012010BDA06900B100E000BF94F8C8
:10109000390028B9002084F83800204600F028F8EC
:1010A000242084F839002068C06820F400502168AA
:1010B000C860204600F062FD2068006920F490407E
:1010C000216808612068406920F02A002168486191
:1010D0002068C06840F400502168C8600020E063C8
:1010E000202084F8390084F83A000020CAE7000084
:1010F00010B586B00446002002900390049005903D
:101100001A49206888422ED100BF1948806940F4EE
:101110008040174988610846806900F4804001904A
:1011200000BF00BF00BF0846806940F0040088612E
:101130000846806900F00400019000BF00BF481518
:101140000290022003900320059002A90948FFF7AE
:1011500063F94FF48060029000200390049002A98C
:101160000448FFF759F906B010BD000000380140EF
:1011700000100240000801402DE9F84F04460E46D9
:10118000174699464FF0000A94F8390020285AD1A2
:1011900006B117B90120BDE8F88F00BF94F83800F8
:1011A000012801D10220F6E7012084F8380000BFB1
:1011B0000020E063212084F83900FFF7DDFA824641
:1011C000A784E784A068B0F5805F04D1206910B9D6
:1011D0000025B04602E035464FF0000800BF002071
:1011E00084F8380000BF1BE05346002280212046CF
:1011F000CDF8009000F040FD08B10320CBE745B9E1
:10120000B8F80000C0F308002168486008F102083F
:1012100003E02878216848606D1CE08C401EE08463
:10122000E08C0028E0D15346002240212046CDF832
:10123000009000F021FD08B10320ACE7202084F8E5
:1012400039000020A7E70220A5E700BFFEE7000065
:1012500070B506460F484088401E83B20D4800888E
:10126000401E82B20021084600F074F800240CE011
:10127000002504E0304600F0ADF9681C85B2054851
:101280004088A842F6DC601C84B202480088A04274
:10129000EEDC70BD0C00002000B50346B3B90120A0
:1012A00000F084F94FF4807000F08AF9032000F018
:1012B0007DF941F2300000F083F94FF4C8700F4916
:1012C0004880F02008800020887115E0012000F09F
:1012D0006DF94FF4807000F073F9032000F066F9A7
:1012E00041F2380000F06CF9F020044948804FF4D6
:1012F000C87008800120887100BD00000C0000202B
:1013000070B504460D4616462B4622462946204611
:1013100000F020F8304600F05DF970BD10B50146D0
:101320000023CA0AC1F3451401F01F03500340EA29
:10133000841040EA430010BD0549098848104FF663
:10134000FF7101EA00200249098840EA6100704704
:101350000008006C70B506460C4615462E4880798C
:1013600050BB4FF4047000F021F9304600F028F92A
:1013700040F2112000F01AF9284600F021F940F25D
:10138000122000F013F9204600F01AF940F2132061
:1013900000F00CF9184600F013F94FF4007000F05B
:1013A00005F9304600F00CF940F2012000F0FEF89B
:1013B000204600F005F929E040F2122000F0F6F88E
:1013C000304600F0FDF840F2132000F0EFF8284618
:1013D00000F0F6F84FF4047000F0E8F8204600F052
:1013E000EFF840F2112000F0E1F8184600F0E8F8BC
:1013F00040F2012000F0DAF8304600F0E1F84FF456
:10140000007000F0D3F8204600F0DAF840F2022035
:1014100000F0CCF870BD00000C0000202DE9F84F62
:1014200080460E4617461C46B3462046E31704EB9B
:101430005373DB1021464FEAE47C04EB5C7C4FEAFB
:10144000EC0CA4EBCC0CBCF1000F02D04FF0010C63
:1014500001E04FF0000C6344224604EBD27C4FEADB
:101460006C0C03FB0CF3DBB20093A7F12000C7B2B6
:10147000002556E00C2C07D107EB47002B4901EB68
:10148000800010F8059013E0102C05D1284800EBDF
:10149000071010F805900BE0182C07D107EBC700D8
:1014A000244901EB800010F8059001E0BDE8F88FB9
:1014B0004FF0000A2FE009F0800030B11E4802888A
:1014C00031464046FFF71CFF07E00A9828B91B4841
:1014D000028831464046FFF713FF4FEA49604FEA62
:1014E0001069701C86B216484088B04200DCDDE707
:1014F000A6EB0B00A0420AD15E4608F101001FFADC
:1015000080F80F480088404500DCCFE706E00AF18C
:10151000010000F0FF0ABAF1080FCCDB00BF681C25
:10152000C5B200988542A5DB00BFBFE7DC200008FC
:1015300050250008402B0008080000200A00002069
:101540000C0000202DE9F84704460D4690469946C8
:10155000DDE9096704F0FF0A08EB04001FFA80F8D0
:1015600009EB05001FFA80F916E0444502DB5446FA
:10157000A81985B24D4500DB14E0002000903A78B0
:10158000334629462046FFF749FF304606EBD07127
:1015900004EB61018CB27F1C38787E2802DC38783D
:1015A0002028E2DA00BFBDE8F887000001124900F8
:1015B000024A11800106C90D11807047FE07006CB8
:1015C00001124900024A11800106C90D11807047BD
:1015D0000008006C30B5054600242846FFF79EFE43
:1015E0000446C4F34F20024908800C8030BD00003F
:1015F0000008006C00B58FB01C2108A8FEF7CBFDD9
:101600001C2101A8FEF7C7FD4FF0204022490860C9
:10161000224848600620886000211F48C16001619F
:101620001021416100218161C161016241624FF479
:10163000805181620021C1624FF480410163002129
:1016400041638163012008900F2009900A900020D7
:101650000B9010200C9011200D9000200E900F2068
:101660000190029005200390002004901020059026
:10167000112006900020079001AA08A90648FFF74C
:10168000ABFC08B1FEF7E8FD0548C06940F4806096
:101690000349C8610FB000BD28000020040100A06C
:1016A0000000014000B585B0002001900290039039
:1016B000049000BF2848806940F0100026498861E6
:1016C0000846806900F01000009000BF00BF00BF16
:1016D0000846806940F4807088610846806900F49B
:1016E0008070009000BF00BF00BF0846806940F0D6
:1016F000400088610846806900F04000009000BF0B
:1017000000BF00BF0846806940F02000886108469D
:10171000806900F02000009000BF00BF00BF0846B5
:10172000806940F0040088610846806900F0040088
:10173000009000BF00BF012211460848FFF716F8CD
:1017400001200190029003900320049001A9034816
:10175000FEF762FE05B000BD00100240001001401F
:1017600010B50B480B4908604FF4E1304860002188
:1017700008488160C16001610C21416100218161E3
:10178000C161FFF77BFC08B1FEF766FD10BD0000EC
:10179000003801407000002000BFFEE7704770472E
:1017A00008B508490968C9084FF47A72B1FBF2F12B
:1017B0004143009100BF00BF00994A1E00920029DA
:1017C000F9D108BD20000020704710B5FEF7DAFF00
:1017D00010BD00B58FB0282105A8FEF7DCFC142150
:1017E0006846FEF7D8FC0120059000040690002012
:1017F00007900120099002200C90C1030D914FF435
:10180000C0110E9105A8FFF7B5F908B1FEF724FD48
:101810000F20009002200190002002904FF4806081
:1018200003900020049002216846FFF76DF808B18C
:10183000FEF712FD0FB000BD7047000010B532205A
:10184000FEF78CFD0020FFF7B1FEFFF775FDC749DD
:10185000888008468188C6A000F046FA0020FFF77D
:10186000A5FE0020FFF7A2FE0A20FEF777FD00206C
:10187000FFF79CFE0020FFF799FE0020FFF796FE81
:101880000020FFF793FEA420FFF790FE0120FFF752
:1018900097FE0A20FEF762FD6020FFF787FE4FF4F7
:1018A0001C50FFF78DFE0820FFF780FE40F6080071
:1018B000FFF786FE4FF44070FFF778FE40F2091004
:1018C000FFF77EFE40F20130FFF770FE47F60A6038
:1018D000FFF776FE40F20230FFF768FE40F2047038
:1018E000FFF76EFE40F20330FFF760FE40F6111086
:1018F000FFF766FE4FF44170FFF758FE4FF40450B7
:10190000FFF75EFE40F20530FFF750FE41F209108E
:10191000FFF756FE40F20630FFF748FE47F2074059
:10192000FFF74EFE40F20730FFF740FE40F60E2074
:10193000FFF746FE4FF44270FFF738FE40F6011005
:10194000FFF73EFE40F20930FFF730FE2120FFF79F
:1019500037FE1020FFF72AFE1020FFF731FE11207E
:10196000FFF724FE40F20220FFF72AFE1220FFF7C5
:101970001DFE4FF44070FFF723FE1320FFF716FE05
:101980000720FFF71DFE0A20FEF7E8FC4FF48070E9
:10199000FFF70CFE0020FFF713FE40F20110FFF7E7
:1019A00005FE0720FFF70CFE4FF48170FFF7FEFDE8
:1019B0000020FFF705FE40F20310FFF7F7FD0020BF
:1019C000FFF7FEFD4FF42070FFF7F0FD0020FFF75A
:1019D000F7FDC820FEF7C2FC4FF48070FFF7E6FD6C
:1019E0004FF44C70FFF7ECFD40F20110FFF7DEFD05
:1019F00040F24720FFF7E4FD3220FEF7AFFC4FF442
:101A00008170FFF7D3FD4DF2B010FFF7D9FD322002
:101A1000FEF7A4FC40F20310FFF7C8FD4FF480501E
:101A2000FFF7CEFD4FF42070FFF7C0FD4FF44640A6
:101A3000FFF7C6FDC820FEF791FC0120FFF7B6FDB9
:101A40004FF48070FFF7BCFD0220FFF7AFFD4FF4AD
:101A50000070FFF7B5FD0320FFF7A8FD41F230004D
:101A6000FFF7AEFD0920FFF7A1FD0120FFF7A8FD5C
:101A70000A20FFF79BFD0820FFF7A2FD0C20FFF7CF
:101A800095FD0020FFF79CFD0D20FFF78FFD002046
:101A9000FFF796FD0E20FFF789FD3020FFF790FD40
:101AA0002020FFF783FD0020FFF78AFD2120FFF7AC
:101AB0007DFD0020FFF784FD2920FFF777FD5220F0
:101AC000FFF77EFD5020FFF771FD0020FFF778FD46
:101AD0005120FFF76BFDEF20FFF772FD5220FFF75B
:101AE00065FD0020FFF76CFD5320FFF75FFD40F21E
:101AF0003F10FFF765FD6120FFF758FD0020FFF75D
:101B00005FFD6A20FFF752FD0020FFF759FD80209E
:101B1000FFF74CFD0020FFF753FD8120FFF746FD46
:101B20000020FFF74DFD8220FFF740FD5F20FFF70B
:101B300047FD9320FFF73AFD40F20750FFF740FDC5
:101B40000720FFF733FD4FF48070FFF739FD322097
:101B5000FEF704FC2220FFF729FD0020FFF79CFB85
:101B60004FF6FF70FFF774FB10BD00000C00002063
:101B70004C43442049443A25780D0A0070B5044688
:101B80002168096921F44051E2681143226811611A
:101B90002269A1681143626941EA02052168C968A6
:101BA00041F20C62914329432268D160216849695E
:101BB00021F44071A2691143226851612D4A2168C4
:101BC000914202D1FEF77CFF01E0FEF769FF00EBD6
:101BD000C00101EB001162689200B1FBF2F100EB71
:101BE000C00202EB001263689B00B2FBF3F26423B5
:101BF000B2FBF3F202EBC20303EB0212A1EB820190
:101C0000322202EB01116422B1FBF2F101F0F0018A
:101C100000EBC00202EB001263689B00B2FBF3F220
:101C20006423B2FBF3F201EB021200EBC00101EB03
:101C3000001163689B00B1FBF3F100EBC00303EB01
:101C400000136668B600B3FBF6F36426B3FBF6F345
:101C500003EBC30606EB0313A1EB8301322303EB73
:101C600001116423B1FBF3F101F00F01114422686B
:101C7000916070BD003801402DE9F04104460D46E9
:101C800017469846069E21E0701CF8B12EB1FEF76B
:101C900073FDA0EB0800B04218D92068C06820F49A
:101CA000D0702168C8602068406920F00100216878
:101CB0004861202084F8390084F83A0000BF0020F1
:101CC00084F8380000BF0320BDE8F0812068006878
:101CD0002840A84201D1012000E00020B842D3D022
:101CE0000020F1E700BFFEE70FB4054B10B503A9D4
:101CF000044A029800F034F810BC5DF814FB0000B0
:101D0000212000082400002002480068C0F30220BF
:101D1000704700000CED00E010B5002804DB0A0756
:101D2000130E054A135406E00A07140E034A00F086
:101D30000F031B1FD45410BD00E400E018ED00E0B9
:101D400002E008C8121F08C1002AFAD17047704784
:101D5000002001E001C1121F002AFBD170470000E2
:101D60002DE9FF4F8DB09B460F460446002606E046
:101D700025280BD05A460F999047641C761C207872
:101D80000028F5D111B03046BDE8F08F0025A846F7
:101D90000122984900E0054314F8013F203B02FA74
:101DA00003F00842F7D120782E2817D114F8010F3C
:101DB00045F004052A280ED06FF02F022078A0F1FC
:101DC000300109290AD808EB880102EB410100EB38
:101DD0000108641CF2E757F8048B641C20786C2817
:101DE0000DD004DC4C2812D06A2811D104E07428EC
:101DF0000DD07A280CD10AE045F4001507E061788F
:101E000045F48015814202D1641C05F58015641CDF
:101E10002278692A45D008DC002AB3D0582A69D034
:101E2000632A10D0642A08D13BE0702A67D0732A55
:101E300013D0752A5CD0782A5CD010465A460F9988
:101E40009047761CD3E017F8040B8DF800000020B3
:101E50008DF80100E946012003E057F8049B4FF09C
:101E6000FF3069074FF0000501D40AE06D1C4545BD
:101E70000DDA8542FADB19F805100029F6D106E0E3
:101E80006D1C8542FCDB19F805100029F8D12E44A1
:101E900004E019F8010B5A460F9990476D1EF8D2CD
:101EA000A5E00A200021CDE90801C5F3025002286F
:101EB0000DD001CFC117031E71F100030DDA4FF0F1
:101EC000000CD0EB0C006CEB01012D2308E0FF1D92
:101ED00027F00707F7E80201EDE72B0504D52B23D0
:101EE0008DF8283001233BE0EB0739D02023F7E7BA
:101EF0000A2000E010200021CDE9080107E01020B1
:101F0000002145F00405CDE908014FF00808C5F3AC
:101F1000025002280FD001CF00214FF0000A2B07FA
:101F20001FD5702A0DD0DDE908C38CF0100C5CEAD7
:101F3000030C0CD015E0FF1D27F00707F7E802019E
:101F4000EBE740228DF828204FF0010A0BE050EA21
:101F5000010306D030238DF828308DF82920022384
:101F60009A46582A04D024A20DF120090B9209E0C8
:101F700026A2F9E7DDE90823FEF718F90B9B9B5C25
:101F800009F8013D50EA0102F4D1ADEB090020301F
:101F90000890680701D44FF001080899884502DDD0
:101FA000A8EB010000E000208046002506E00AA81A
:101FB0005A46405D0F9990476D1C761C5545F6DBDF
:101FC00004E030205A460F999047761CB8F1000182
:101FD000A8F10108F5DC05E019F8010B5A460F9944
:101FE0009047761C0899481E08900029F4DC641C70
:101FF000C5E6000009280100303132333435363768
:102000003839616263646566000000003031323344
:1020100034353637383941424344454600000000E4
:1020200013B50C464FF6FF73012269460248FFF7CD
:10203000A3F800981CBD0000700000201CB5FEF73E
:10204000ADFBFFF7C6FBFFF72DFBFFF7D3FAFFF75A
:1020500087FBFFF7F3FB00201949088019A00C212A
:102060004FF4C873F022CDE900100A210846FFF7AB
:1020700069FA4FF478401249088012A010214FF4F9
:10208000C873F022CDE900101E210A20FFF75AFA8A
:102090004FF4FC600A4908800AA018214FF4C87365
:1020A000F022CDE9001032210A20FFF74BFA06E0BA
:1020B00001210948FEF750FBC820FEF74FF9F7E76A
:1020C000080000205446544C4344205465737469FE
:1020D0006E672E2E2E21000000100140000000002F
:1020E0000000000000000000000000003F40000071
:1020F0000000000000003000400030004000000000
:1021000009000BC03D000BC03D00090018C0244071
:102110007FE0224031800000180024C01B000D80A9
:102120003240018003801C4027401C800740004053
:10213000100060000000000000000000000000002F
:1021400000001F80204040200000402020401F80D1
:1021500000000000090006001F80060009000000C2
:10216000040004003F800400040000000010006030
:10217000000000000000000004000400040004004F
:10218000040000000000004000000000000000000B
:10219000002001C006003800400000001F802040E1
:1021A000204020401F800000000010403FC0004041
:1021B0000000000018C021402240244018400000C8
:1021C00010802040244024401B80000002000D00AD
:1021D00011003FC0014000003C80244024402440C6
:1021E000238000001F8024402440344003800000EE
:1021F0003000200027C03800200000001B80244051
:10220000244024401B8000001C0022C022402240A9
:102210001F800000000000000840000000000000D7
:102220000000000004600000000000000000040046
:102230000A0011002080404009000900090009003F
:102240000900000000004040208011000A00040046
:102250001800200023402400180000001F802040A8
:10226000274029401F400000004007C039000F00F0
:1022700001C0004020403FC0244024401B8000009B
:102280001F802040204020403080000020403FC080
:10229000204020401F80000020403FC024402E40AE
:1022A00030C0000020403FC024402E00300000001D
:1022B0000F001080204022403380020020403FC0A9
:1022C000040004003FC02040204020403FC0204088
:1022D000204000000060202020203FC0200020007F
:1022E00020403FC024400B0030C0204020403FC071
:1022F00020400040004000C03FC03C0003C03C0004
:102300003FC0000020403FC00C4023003FC02000E1
:102310001F802040204020401F80000020403FC000
:1023200024402400180000001F802140214020E0AC
:102330001FA0000020403FC02440260019C00040DC
:1023400018C024402440224031800000300020404A
:102350003FC020403000000020003F80004000408F
:102360003F80200020003E0001C007003800200010
:10237000380007C03C0007C038000000204039C0CA
:10238000060039C0204000002000384007C0384017
:1023900020000000304021C02640384020C000000E
:1023A000000000007FE0402040200000000070009E
:1023B0000C000380004000000000402040207FE02F
:1023C000000000000000200040002000000000008D
:1023D000001000100010001000100010000000009D
:1023E00040000000000000000000028005400540A1
:1023F00003C0004020003FC00440044003800000B0
:1024000000000380044004400640000000000380F8
:10241000044024403FC000400000038005400540C8
:1024200003400000000004401FC02440244020005E
:10243000000002E0055005500650042020403FC037
:102440000440040003C000400000044027C00040D6
:102450000000000000100010041027E00000000041
:1024600020403FC00140070004C0044020402040FD
:102470003FC000400040000007C0040007C0040047
:1024800003C00000044007C00440040003C0004033
:10249000000003800440044003800000041007F0A3
:1024A00004500440038000000000038004400450F6
:1024B00007F00010044007C00240040004000000C0
:1024C000000006400540054004C000000000040074
:1024D0001F800440004000000400078000400440CA
:1024E00007C000400400070004C00180060004008B
:1024F000060001C0070001C006000000044006C03D
:10250000010006C0044000000410071004E0018030
:10251000060004000000044005C00640044000001E
:102520000000000004007BE04020000000000000EC
:102530000000FFF000000000000040207BE00400ED
:10254000000000004000800040002000200040000B
:10255000000000000000000000000000000000007B
:102560000000000000001FCC000C00000000000074
:10257000000008003000600008003000600000002B
:10258000022003FC1E20022003FC1E20022000006B
:1025900000000E1811043FFF10840C7800000000AA
:1025A0000F0010840F3800C00778188400780000EE
:1025B00000780F8410C411240E9800E400840008F1
:1025C000080068007000000000000000000000002B
:1025D00000000000000007E018182004400200007E
:1025E000000040022004181807E00000000000006E
:1025F0000240024001800FF00180024002400000D2
:102600000080008000800FF80080008000800000C3
:102610000001000D000E000000000000000000009E
:10262000000000800080008000800080008000802A
:102630000000000C000C0000000000000000000082
:10264000000000060018006001800600180020004D
:10265000000007F0080810041004080807F0000044
:102660000000080408041FFC00040004000000002F
:1026700000000E0C10141024104411840E0C0000E5
:1026800000000C1810041104110412880C700000D2
:10269000000000E00320042408241FFC00240000A4
:1026A00000001F981084110411041088107000009D
:1026B000000007F008881104110418880070000059
:1026C00000001C00100010FC13001C001000000093
:1026D00000000E3811441084108411440E3800009C
:1026E00000000700088C10441044088807F0000020
:1026F000000000000000030C030C000000000000BC
:1027000000000000000101060000000000000000C1
:10271000000000800140022004100808100400009E
:1027200002200220022002200220022002200000BB
:10273000000010040808041002200140008000007E
:1027400000000E001200100C106C10800F00000032
:1027500003E00C1813E4142417C4082807D0000061
:102760000004003C03C41C40074000E4001C0004BB
:1027700010041FFC1104110411040E8800700000E5
:1027800003E00C1810041004100410081C100000C2
:1027900010041FFC100410041004080807F00000C7
:1027A00010041FFC1104110417C4100408180000C1
:1027B00010041FFC1104110017C0100008000000D5
:1027C00003E00C181004100410441C7800400000B2
:1027D00010041FFC10840080008010841FFC100473
:1027E0000000100410041FFC10041004000000007E
:1027F00000030001100110011FFE10001000000076
:1028000010041FFC110403801464181C1004000041
:1028100010041FFC1004000400040004000C00005D
:1028200010041FFC1F0000FC1F001FFC1004000010
:1028300010041FFC0C04030000E010181FFC100023
:1028400007F00808100410041004080807F000003E
:1028500010041FFC10841080108010800F000000F6
:1028600007F0081810241024101C080A07F20000B2
:1028700010041FFC1104110011C011300E0C0004D3
:1028800000000E1C11041084108410441C38000039
:102890001800100010041FFC1004100018000000A5
:1028A00010001FF810040004000410041FF81000AA
:1028B00010001E0011E0001C007013801C001000AE
:1028C0001FC0103C00E01F0000E0103C1FC00000D3
:1028D0001004180C163401C001C01634180C100472
:1028E00010001C00130400FC13041C001000000066
:1028F0000804101C1064108413041C041018000039
:102900000000000000007FFE400240024002000084
:10291000000030000C0003800060001C0003000079
:1029200000004002400240027FFE00000000000064
:102930000000000020004000400040002000000097
:10294000000100010001000100010001000100017F
:1029500000004000400020000000000000000000D7
:1029600000000098012401440144014400FC0004DB
:1029700010001FFC008801040104008800700000A2
:1029800000000070008801040104010400880000B8
:102990000000007000880104010411081FFC0004FD
:1029A000000000F8014401440144014400C8000053
:1029B0000000010401040FFC1104110411001800AF
:1029C000000000D601290129012901C901060000E2
:1029D00010041FFC008401000100010400FC00043D
:1029E00000000104190419FC0004000400000000A8
:1029F0000000000300010101190119FE00000000A0
:102A000010041FFC0024004001B4010C010400006C
:102A10000000100410041FFC00040004000000006B
:102A2000010401FC0104010001FC0104010000FC9F
:102A3000010401FC008401000100010400FC000409
:102A4000000000F8010401040104010400F8000082
:102A5000010101FF008501040104008800700000ED
:102A600000000070008801040104010501FF00015D
:102A70000104010401FC0084010401000180000044
:102A8000000000CC0124012401240124019800004D
:102A900000000100010007F801040104000000002B
:102AA000010001F8000400040004010801FC000416
:102AB000010001800170000C001001600180010024
:102AC00001F0010C003001C00030010C01F00100E8
:102AD00000000104018C00740170018C01040000ED
:102AE000010101810171000E0018016001800100E7
:102AF00000000184010C013401440184010C000038
:102B0000000000000000000001003EFC4002400206
:102B10000000000000000000FFFF000000000000B7
:102B20000000400240023EFC0100000000000000E6
:102B30000000600080008000400040002000200075
:102B40000000000000000000000000000000000085
:102B50000000000000000000000000000000000075
:102B60000000000000000000000000000000000065
:102B70000000000F80380FFE380F80380000000082
:102B80000000000000000000000000000000010044
:102B9000000600000C0000380000310000060000B4
:102BA0000C000038000030000000000000000000B1
:102BB00061800067F807F980006180006180006132
:102BC000800061800067F807F980006180000000E4
:102BD00000000000000001C0E003E0F0063008043F
:102BE00018081FFFFE040E080787F00381E00000AD
:102BF0000000000001F000060C00040408060C7040
:102C000001F9C0000E00003BE000EC1807080804C2
:102C10000C180003E00000000001E00007F003F8DA
:102C200018041C0804170807E1D003C0E00023B013
:102C3000003C080020080000100000000000000117
:102C400000003100003200001C0000000000000005
:102C50000000000000000000000000000000000074
:102C60000000000000000000000000000000000064
:102C70007F0001FFC00780F00C0018100004200046
:102C8000020000000000002000021000040C0018E8
:102C90000780F001FFC0007F00000000000000007E
:102CA000000000000000000000000000420000667C
:102CB00000006600003C0000180003FFC000180080
:102CC000003C0000660000660000420000000000BA
:102CD000080000080000080000080000080001FFCC
:102CE000C0000800000800000800000800000800FC
:102CF00000000000000100003100003200001C0054
:102D000000000000000000000000000000000000C3
:102D1000000000000000000008000008000008009B
:102D2000000800000800000800000800000800007B
:102D30000800000800000000000000000000000083
:102D400038000038000038000000000000000000DB
:102D50000000000000000000000000000000000073
:102D6000000600001C000070000180000E0000380A
:102D70000000C0000700001C000030000000000040
:102D8000000000007F8001FFE0038070060018044F
:102D9000000804000806001803807001FFE0007FAF
:102DA0008000000000000000000001000801000891
:102DB00001000803FFF807FFF80000080000080002
:102DC000000800000000000000000001C03802C040
:102DD00058040098040118040218040418061C186A
:102DE00003F81801E0F800000000000000000001F6
:102DF000C0E003C0F004000804080804080806182E
:102E00000803F41801E7F00001E0000000000000F2
:102E1000000000000300000D000011000061000030
:102E2000810803010807FFF80FFFF80001080001FF
:102E3000080000000000000000E007FCD0060808C1
:102E4000061008061008061008061838060FF006C7
:102E500007C0000000000000000000003F8001FFEC
:102E6000E003843002081804100804100804100855
:102E7000071810030FF00007C0000000000000005A
:102E8000000003C0000700000600000600F8060767
:102E9000F806180006E00007000006000000000029
:102EA00000000001E1E003F7F00634100418080404
:102EB0001808040C08040C0806161803F3F001C1E6
:102EC000E000000000000000F80003FC30030638BA
:102ED0000402080402080402080404100308F001B4
:102EE000FFC0007F000000000000000000000000A4
:102EF00000000000000000007038007038007038DA
:102F000000000000000000000000000000000000C1
:102F1000000000000000000000000000301A003037
:102F20001C00000000000000000000000000000085
:102F30000000000000000008000014000022000053
:102F400041000080800100400200200400100800C1
:102F50000800000000000000210000210000210006
:102F600000210000210000210000210000210000BC
:102F70002100002100000000000000000000080007
:102F80000804001002002001004000808000410081
:102F900000220000140000080000000000000003F0
:102FA000C00004C000040000080038080F380808FA
:102FB000380810000C300007E00003C000000000DB
:102FC000000000003F8000FFE0038070020F100649
:102FD000708804C088048308047F8802C0900301BD
:102FE0002000FE400000080000180001F8003E0824
:102FF00001C20007020007E20000FE00001FC80037
:1030000001F800003800000804000807FFF807FF77
:10301000F804080804080804080804080806180842
:1030200003F41801E7F00001E000000000000000D8
:103030003F8001FFE00380700200180400080400D4
:10304000080400080400100600200780C0000000EB
:1030500004000807FFF807FFF8040008040008044C
:10306000000804001802001003807001FFE0007FD8
:103070008000000004000807FFF807FFF8040808B4
:10308000040808040808040808043E0804000806A8
:10309000001801006000000004000807FFF807FFA7
:1030A000F8040808040800040800040800043E00AE
:1030B0000600000600000180000000000000000083
:1030C0003F8001FFE003807006001804000804023E
:1030D000080402080203F00783F000020000020067
:1030E00004000807FFF807FFF804080800080000BC
:1030F000080000080000080004080807FFF807FFA0
:10310000F8040008000000000000040008040008A3
:1031100004000807FFF807FFF8040008040008048B
:103120000008000000000000000000000006000091
:103130000700000104000104000104000307FFFE72
:1031400007FFFC040000040000040000040008075E
:10315000FFF807FFF8040C08001800003E0004C741
:10316000800503C80600F8040038040018000008B1
:1031700004000807FFF807FFF80400080000080033
:103180000008000008000008000008000018000007
:103190006000000004000807FFF807800807FC0033
:1031A000007FC00003F80007C00078000780080710
:1031B000FFF807FFF804000804000807FFF80700FD
:1031C0000803C00000E000003800001E00000700F7
:1031D0000001C00400F007FFF80400000000000038
:1031E0007F8001FFE00380700600180400080400DF
:1031F0000806001803003001FFE0007F8000000097
:1032000004000807FFF807FFF8040408040400049A
:103210000400040400040400060C0003F80001F09C
:1032200000000000000000007F8001FFE0038070CC
:103230000600880400880400C806003C03003E0124
:10324000FFE6007F8400000004000807FFF807FF86
:10325000F8040808040800040C00040F00040BC064
:103260000610F003F03801E008000008000000013B
:10327000E0F803F030063010041808041808040CB5
:1032800008040C080206180207F00781E00000009D
:10329000018000060000040000040000040008078C
:1032A000FFF807FFF804000804000004000006000F
:1032B0000001800004000007FFE007FFF004001891
:1032C00000000800000800000800000800000804D2
:1032D000001007FFE004000004000006000007E003
:1032E0000007FE00041FE00001F80000380001E0C4
:1032F000043E0007C00006000004000004000007B0
:10330000E00007FFC0041FF80007C007F80007FF30
:1033100080043FF80007C004F80007000004000024
:1033200000000004000806001807C07805F1C80076
:103330003E00001F800463E80780F80600180400C0
:103340000800000004000006000007800007E008F5
:10335000047C08001FF80007F800180804E00807BC
:103360000000060000040000000000010008060044
:10337000380400F80403E8040F08047C0805F0088A
:1033800007C00807001804006000000000000000EB
:1033900000000000000000000000003FFFFE2000D1
:1033A0000220000220000220000220000200000093
:1033B00000000000000008000007000000C000003E
:1033C00038000006000001C000003000000E0000C0
:1033D00001000000000000000000200002200002A8
:1033E0002000022000022000023FFFFE000000003B
:1033F00000000000000000000000000000000000CD
:103400000008000010000030000020000030000024
:103410001000000800000000000000000000010093
:103420000001000001000001000001000001000097
:103430000100000100000100000100000100000186
:10344000000000000000000000200000200000102C
:10345000000010000000000000000000000000005C
:10346000000000000000000000F00019F8001B1828
:10347000002208002608002408002410003FF8005D
:103480001FF800000800001800000004000007FFFB
:10349000F80FFFF00018180010080020080020089E
:1034A000003018001FF0000FC000000000000000F6
:1034B00007C0001FF000183000200800200800207E
:1034C00008003C08001C1000006000000000000024
:1034D0000000000007C0001FF0003818002008009E
:1034E000200800200804101007FFF80FFFF000006C
:1034F000100000000000000000000007C0001FF0E6
:1035000000123000221800220800220800320800B1
:103510001E10000E2000000000000000200000200F
:103520000800200801FFF803FFF80620080420081F
:103530000420080720000300000000000000000035
:10354000000E000E6E001FF30031B10020B100200C
:10355000B1003191001F13002E1E00200E0030001C
:1035600000000004000807FFF80FFFF80010080033
:103570002000002000002008003FF8001FF8000095
:1035800008000000000000000000002008002008E3
:10359000002008063FF8063FF80000080000080079
:1035A0000008000000000000000000000000000013
:1035B00003000003002001002001002003063FFE5D
:1035C000063FFC00000000000000000000000004B6
:1035D000000807FFF80FFFF8000188000300002F24
:1035E000C00038F800203800200800000800000063
:1035F00000000000000004000804000804000807A0
:10360000FFF80FFFF80000080000080000080000A5
:1036100000000000002008003FF8003FF8001008FC
:10362000002000003FF8003FF800100800200000D4
:103630003FF8003FF8000008000000002008003FAD
:10364000F8003FF8001008001000002000002008DB
:10365000003FF8001FF80000080000000000000014
:1036600007C0000FF00018300030080020080020CC
:1036700008003008001830000FF00007C0000000FC
:10368000000000002001003FFF003FFF001011007C
:103690002009002008002008003038001FF0000F2B
:1036A000C00000000000000007C0001FF000381834
:1036B000002008002008002009001011001FFF0052
:1036C0003FFF00000100000000200800200800204B
:1036D00008003FF8003FF800080800100800200824
:1036E000002000003000003000000000000000005A
:1036F0000000000C78001E18003308002308002189
:10370000080021880021980030F000386000000097
:1037100000000000200000200000200000FFF00357
:10372000FFF80020080020080020080000300000FA
:1037300000000000000000002000003FF0007FF8C3
:10374000000018000008000008002010003FF800EA
:103750007FF000001000000000000000200000309A
:1037600000003C00003F800023F000007800007063
:10377000002380003C0000300000200000200000FA
:103780003C00003FE00023F80000E0002700003E7E
:1037900000003FE00021F80001E0003E00002000B2
:1037A000000000002008002008003838003E6800B3
:1037B00027800003C8002CF80038380020180020AB
:1037C00008000000000000002000003003003C0161
:1037D000003F830023EC000070002380003C0000C9
:1037E0002000002000000000000000000000003861
:1037F000080020380020F80023E8002F88003E0849
:1038000000380800201800007000000000000000D0
:10381000000000000000000000000000080000148C
:10382000001FF7FC3000062000020000000000002E
:103830000000000000000000000000000000000088
:103840000000FFFFFF00000000000000000000007B
:103850000000000000000000000020000230000610
:103860001FF7FC001400000800000000000000002A
:1038700000000000000000000000001800006000D0
:103880000040000040000020000010000008000080
:103890000400000400000C0000100000B0B20000A2
:1038A00000000000000000060000070E0070079EE8
:1038B00000F003C601E0036601C0030603C003076E
:1038C00003800307C7000307F70003067F00030612
:1038D0001E003F060F007F060F8063760F8043FEB9
:1038E0001DC0033F1CC00307D8E00307F8600306B0
:1038F0007860030600700306003007E6003000E63B
:10390000003000060030000600300000000000001B
:103910000000B5CF00000000000000600000006063
:1039200000C0007001FFFF7001FFFFF000C30670D0
:1039300000C3067000C3067000C3067018C306708B
:103940003FFFFE7030C3067000C3067000C30670F0
:1039500000C3067000FFFF7001FFFFE0000001E000
:10396000000000C0000001C0039C03800F9FFF0007
:103970000E0C03001C0C0380180C01C0000C00E0AE
:10398000000C00C000000000CEF7000000000000A6
:103990000000040000000C3000001C7FFFF00C7FD2
:1039A000FFF80C301CE00C301CE00C301CE00C303C
:1039B0001CE00C301CE00FFFF8E00C3000E00C3095
:1039C00000E00C3000E00C3000E00C3000E00FFFB5
:1039D000C0E00C31F0E00C303CE00C300EE00C307C
:1039E00006E00C3003E00C3FFFF00C3FFFF80E0048
:1039F00000000C0000000000000000000000C4EA0D
:103A00000000000000C0000001F0000001E0000024
:103A100003C000C003C001E007FFFFF00703C000C0
:103A20000E03C0001E03C0003C03C3007303C78025
:103A300063FFFFC00383C0000383C0000383C00093
:103A40000383C0000383C0600383C0F07FFFFFF8DF
:103A50000003C0000003C0000003C0000003C0005A
:103A60000003C0000003C0000003C0000003C0004A
:103A700000000000D4C2000000000000000000E0D0
:103A8000070000FFFF8000F0078000F0070000F053
:103A9000070000F0070000F0070000FFFF0000FF34
:103AA000FF0000F0070000F0070000F0070000F042
:103AB000070000E0070000FFFF0000E0070000E053
:103AC000070000E0070001E0070001C0070001C097
:103AD0000700038007000780F7000F007F001E002B
:103AE0001F0038001C0000000000C8D500000000C6
:103AF000000000000300030003FFFF8003FFFF80BE
:103B0000038007000380070003800700038007008D
:103B1000038007000380070003800700038007007D
:103B200003FFFF00038007000380070003800700F6
:103B3000038007000380070003800700038007005D
:103B4000038007000380070003FFFF0003800700D6
:103B5000038007000380070003000000000000004E
:103B6000D0C700000000000000000380070003FF32
:103B7000FF8003800700038007000380070003FF26
:103B8000FF00038007000380070003FFFF0003FF1F
:103B9000FF00038707000387C00003C7810003C736
:103BA000838007FFFFC0070780000F0780001E0704
:103BB00086001C078F003BFFFF8070078000000716
:103BC0008000000780E0000781F07FFFFFF8000021
:103BD000000000000000C6DA00000000060000003F
:103BE000079E0000079E7FF0079E7FF0079FF8F07A
:103BF0003FFFF8F01F9E78F0079E78F0079E78F060
:103C000007FE7FF0079E78F0079E78F0079E70F021
:103C100007FE70F0079E70F0079E7FF0079FFFF091
:103C20003FFFF0F0119070F003DCF0F003DEE0F005
:103C3000078FE0F00F0FE0F00E07C0F01C038FF0CD
:103C4000380F03E0201C01C000000000000000004D
:103C5000000000000102030406070809000000003C
:103C600001020304843C000800000020280000003A
:103C7000401D0008AC3C000828000020880400001B
:103C8000501D000800000000000000000000FFFFC1
:103C90000000000000000000000000001000000014
:0C3CA000010000000024F40000000000FF
:0400000508000131BD
:00000001FF
