:020000040800F2
:100000003005002045010008EB140008E913000842
:10001000E9140008DD0100082518000800000000B0
:10002000000000000000000000000000EF140008C5
:10003000DF01000800000000ED140008F1140008C2
:100040005F0100085F0100085F0100085F01000810
:100050005F0100085F0100085F0100085F01000800
:100060005F0100085F0100085F0100085F010008F0
:100070005F0100085F0100085F0100085F010008E0
:100080005F0100085F0100085F0100085F010008D0
:100090005F0100085F0100085F0100085F010008C0
:1000A0005F0100085F0100085F0100085F010008B0
:1000B000411500085F0100085F0100085F010008AA
:1000C0005F0100085F0100085F0100085F01000890
:1000D0005F010008191800085F0100085F010008AF
:1000E0005F0100085F0100085F0100085F01000870
:1000F0005F0100085F0100085F0100085F01000860
:100100005F0100085F0100085F0100085F0100084F
:100110005F0100085F0100085F0100085F0100083F
:100120005F0100085F0100085F0100085F0100082F
:10013000DFF80CD000F040F800480047F119000843
:10014000300500200648804706480047FEE7FEE7E6
:10015000FEE7FEE7FEE7FEE7FEE7FEE7FEE7FEE777
:100160003F15000831010008D2B201E000F8012B70
:10017000491EFBD270470022F6E710B513460A4627
:1001800004461946FFF7F0FF204610BD30B50B4678
:10019000014600202022012409E021FA02F59D42B7
:1001A00005D303FA02F5491B04FA02F52844151E8B
:1001B000A2F10102F1DC30BD064C074D06E0E0681B
:1001C00040F0010394E8070098471034AC42F6D39E
:1001D000FFF7B2FFB01A0008D01A0008FEE7704718
:1001E000704700002DE9F05F90F8211000240229EB
:1001F00003D004218163012485E001680A6822F0AC
:100200000E020A6001680A6822F001020A603F4E8D
:100210003E4FB215DFF8F4C0DFF8F090DFF8ECA045
:10022000DFF8E8B0DFF8E4E00168783F1301150279
:10023000ACF1640CA9F15009AAF13C0AABF1280B0E
:10024000AEF1140E4FF48018B14227D9B9420ED046
:10025000614512D049451DD0514518D0594518D097
:10026000714501D1424615E0294EB14201D101222A
:1002700010E0274E1436B14201D110220AE0244E7C
:100280002836B14206D0224A3C32914201D11A4668
:1002900000E02A461E49091F0A602BE0B94213D02C
:1002A000614517D0494522D051451DD059451DD033
:1002B000714501D142461AE0B14202D14FF080723D
:1002C00015E0134EB14201D1012210E0104E143658
:1002D000B14201D110220AE00D4E2836B14206D0BB
:1002E0000B4A3C32914201D11A4600E02A460749A6
:1002F00080394A60012180F82110002180F8201007
:10030000416B01B188472046BDE8F09F8000024064
:100310000804024070B5044600F018F90546601C58
:1003200002D004480078044400F010F9401BA042B9
:10033000FAD370BD480000202DE9F84FDFF8C891CE
:10034000002409F1040A0AF1040B23460F270BF1DC
:10035000040ED1E00125A54006EA0502AA4276D1A5
:10036000DFF8A8C14E68A6EB0C0866452BD00DDC63
:10037000032E34D005DC36B3012E19D0022E2FD136
:100380001BE0112E16D0122E2AD119E0B8F5881FC5
:1003900019D006DCB8F5803F15D0B8F5801F1FD105
:1003A00011E0B8F5001F0ED0B8F5041F18D10AE00F
:1003B000CB6815E0CB681B1D12E0CB6808330FE05B
:1003C000CB680C330CE08B682BB1012B4FF008038A
:1003D00003D0456104E0042302E0056100E000234E
:1003E000FF2A01D8064601E000F104064FEA840521
:1003F00001D9A5F12005D6F8008007FA05FC28EA06
:100400000C0803FA05F548EA0508C6F800804D68AF
:10041000ED0070D53E4DAE6946F00106AE61AD69A6
:1004200024F0030605F0010500953A4D06EB050C96
:10043000DCF80850A607360F07FA06F825EA080583
:10044000DFF8D480404503D14FF0000825E052E0AA
:10045000DFF8C880404502D14FF001081DE0DFF809
:10046000C080404502D14FF0020816E0DFF8B480AA
:10047000404502D14FF003080FE0DFF8AC80404563
:1004800002D14FF0040808E0DFF8A080404502D117
:100490004FF0050801E04FF0060808FA06F848EAB0
:1004A0000508CCF808804D68D9F80060ED034D468A
:1004B00001D5164300E096432E604D68DAF80060DF
:1004C000AD03554601D5164300E096432E604D68B6
:1004D000DBF80060ED025D4601D5164300E096436F
:1004E0002E604D68DEF80060AD02754601D51643FA
:1004F00000E096432E60641C0A681646E2407FF4D2
:1005000029AFBDE8F88F0000000401400000111081
:10051000001002400000014000080140000C0140B2
:10052000001001400014014000180140001C01406F
:10053000C26821EA02030A4043EA024101617047AE
:100540000AB1016170470904FBE7000001488068B7
:10055000704700004800002002488168027811447A
:100560008160704748000020074810B5016841F0DD
:1005700010010160032000F075F8002000F006F87B
:1005800000F024F8002010BD0020024070B50D4D91
:1005900004464FF47A712878B1FBF0F00A490968F3
:1005A000B1FBF0F000F0ECFA48B9102C07D20022B1
:1005B0002146501E00F036F800206C6070BD01200E
:1005C00070BD000048000020540000200C4808B511
:1005D000816941F001018161816901F001010091AE
:1005E000C16941F08051C161C06900F08050009044
:1005F0000448416821F0E06141F00071416008BDAC
:100600000010024000000140002809DB00F01F023A
:10061000012191404009800000F1E020C0F8001164
:1006200070470000F0B40E4B1B680C46C3F3022366
:10063000C3F10705042D00D90425191D072901D28E
:10064000002300E0DB1E012606FA05F1491E2140C9
:1006500099409E40761E16403143F0BC01F0F8B838
:100660000CED00E0064900F0070208684FF6FF03B2
:10067000184040EA0220034A104308607047000017
:100680000CED00E00000FA052DE9F0470F460500EB
:1006900061D0434E306800F00700B84209D230689C
:1006A00020F0070038433060306800F00700B8429F
:1006B00051D128683B4C810712D5400703D56068AB
:1006C00040F4E06060602878000703D5606840F47B
:1006D000605060606068A96820F0F00008436060C6
:1006E0002878C00728D06868012810D0216802281F
:1006F00010D0890700292EDA616821F00301014337
:100700006160FFF723FF804641F288390DE02168E0
:100710008903EFE78901EDE7FFF718FFA0EB080178
:10072000494502D90320BDE8F0876068696800F098
:100730000C00B0EB810FEFD1306800F00700B84239
:100740000BD9306820F0070038433060306800F083
:100750000700B84201D00120E5E72878400705D519
:100760006068E96820F4E06008436060287800076A
:1007700006D56068296920F4605040EAC1006060D5
:1007800000F038F86168084AC1F30311515CC840B1
:100790000649086006480068FFF7F8FE0020C2E737
:1007A0000020024000100240981A00085400002067
:1007B0004C0000200448054900684968044AC1F318
:1007C0000221515CC84070475400002000100240D4
:1007D000A81A00080448054900684968044AC1F39A
:1007E000C221515CC84070475400002000100240F4
:1007F000A81A000812A185B00FC98DE80F0014A037
:10080000144A006804905168134801F00C03042B4B
:1008100010D0082B0ED1C1F38343C9031DF8030088
:100820000AD5516804AAC1F34041515C0A4A5043B9
:10083000B0FBF1F005B0704708494843FAE7000003
:1008400002030405060708090A0B0C0D0E0F101011
:10085000010200000010024000127A0000093D0071
:100860002DE9F84F040070D02078C04DC00749D062
:100870006868C0F38100012807D06868C0F3810070
:10088000022809D16868C00306D52868800339D5D5
:1008900060680028E7D035E06068B0F5803F0BD095
:1008A00010B1B0F5A02F11D0286820F48030286056
:1008B000286820F4802002E0286840F48030286016
:1008C000606890B1FFF742FE06460AE0286840F4EF
:1008D00080202860F0E700BFFFF738FE801B642807
:1008E00073D828688003F7D50CE0FFF72FFE064683
:1008F00005E000BFFFF72AFE801B6428F0D82868B7
:100900008003F7D420789A4E80074FF001094FF00A
:10091000000839D5686810F00C0F07D06868C0F37C
:100920008100022809D16868C00306D428688007BE
:1009300014D52069012808D110E02069B0B1C6F8AB
:100940000090FFF703FE074605E00AE1FFF7FEFD12
:10095000C01B0228C4D828688007F7D528686169B9
:1009600020F0F80040EAC10028600DE0C6F80080E1
:10097000FFF7ECFD074604E0FFF7E8FDC01B022887
:1009800023D828688007F7D4207800072CD5794829
:10099000A169D9B1C0F80090FFF7D8FD074604E07F
:1009A000FFF7D4FDC01B02280FD8686A8007F7D56F
:1009B00071484FF4FA510068B0FBF1F0009000BFAD
:1009C0000098411E0091FAD20EE080E0C0F800804D
:1009D000FFF7BCFD074604E0FFF7B8FDC01B022887
:1009E00075D8686A8007F7D42078400760D5E86931
:1009F0000027C00008D4E86940F08050E861E86949
:100A0000012700F0805000905C480168C90513D4AC
:100A10000168834641F480710160FFF797FD8246CB
:100A200006E000BFFFF792FDA0EB0A0064284ED855
:100A3000DBF80000C005F5D5E06801280AD008B150
:100A4000052813D0286A20F001002862286A20F0C7
:100A5000040002E0286A40F001002862E06841F2E8
:100A6000883B98B1FFF772FD82460BE0286A40F0A0
:100A700004002862EEE700BFFFF768FDA0EB0A0163
:100A800059455AD8286A8007F6D50CE0FFF75EFD75
:100A9000824605E0FFF75AFDA0EB0A0159454CD804
:100AA000286A8007F6D41FB1E86920F08050E86119
:100AB000E06988B36968C1F38101022944D0022842
:100AC000C6F8608004D0FFF741FD044638E034E00A
:100AD000FFF73CFD074604E0FFF738FDC01B022886
:100AE0002BD828688001F7D4206AB0F5803F05D163
:100AF0006868A16820F4003008436860D4E9080100
:100B00000843696821F4741108436860C6F860906E
:100B1000FFF71CFD044606E025E000BFFFF716FDC9
:100B2000001B022809D828688001F7D51BE000BF08
:100B3000FFF70CFD001B022802D90320BDE8F88F47
:100B400028688001F4D40EE00128F7D06868226A92
:100B500000F48031914204D1616A00F4701088423F
:100B600001D00120EAE70020E8E700000010024081
:100B700000004242800442425400002000700040C5
:100B800010B5401EB0F1807F01D3012010BD4FF0A1
:100B9000E02460610F21601700F05AFE0020A06180
:100BA00007202061002010BD7047704770B590F895
:100BB0003C20012A2CD0012480F83C40022280F8FD
:100BC0003D2003685A689D6822F070060A68324327
:100BD0005A60104B02689A420ED00F4B9A420BD0CB
:100BE000B2F1804F08D00D4B9A4205D00C4B9A427F
:100BF00002D00C4B9A4204D1496825F08003194376
:100C0000916080F83D40002180F83C10084670BD9E
:100C1000022070BD002C014000340140000400405F
:100C200000080040000C004010B5040003D094F808
:100C30003D0010B107E0012010BD002084F83C0009
:100C4000204600F01FF8022084F83D00211D206896
:100C500000F07CFC012084F8460084F83E0084F813
:100C60003F0084F8400084F8410084F8420084F892
:100C7000430084F8440084F8450084F83D000020D7
:100C800010BD000008B50068B0F1804F12D10A48CD
:100C9000C16941F00101C161C069002200F0010099
:100CA000009011461C20FFF7BDFCBDE808401C2049
:100CB000FFF7AABC08BD00000010024090F83D10EC
:100CC000012901D001207047022180F83D10016800
:100CD000CA6842F00102CA6000680E4988420ED01C
:100CE0000D4988420BD0B0F1804F08D00B498842A3
:100CF00005D00B49884202D00A49884204D1816854
:100D000001F00701062903D0016841F001010160EB
:100D100000207047002C01400034014000040040D6
:100D200000080040000C004070B5044690F83C00FC
:100D3000012817D0012584F83C50022084F83D009A
:100D40002068826822F0770222F47F42826008687D
:100D5000502830D00DDC20284DD005DC98B3102869
:100D60003BD148E0022070BD302844D0402834D127
:100D700039E0602828D0702806D0B0F5805F2CD0EC
:100D8000B0F5005F29D10AE0CB68D1E901212068E4
:100D900000F022FC2068816841F0770109E0CB680F
:100DA000D1E90121206800F017FC2068816841F436
:100DB0008041816011E0CA684968206800F01EFC2B
:100DC0005021206807E016E0CA684968206800F0F2
:100DD00026FC6021206800F009FC84F83D500020CA
:100DE00084F83C0070BDCA684968206800F006FCC1
:100DF00040212068EFE7226801461046EBE7704784
:100E000070B50446006801694FF00005C9438907C1
:100E100015D4C168C943890711D4E91E01610120B5
:100E20002077206880698007204602D0FFF7E7FF1F
:100E300004E000F098F8204600F096F82577206846
:100E40000169C943490717D4C168C943490713D485
:100E50006FF004010161022020772068806910F49E
:100E6000407F204602D0FFF7CAFF04E000F07BF885
:100E7000204600F079F8257720680169C943090701
:100E800016D4C168C943090712D46FF00801016183
:100E9000042020772068C0698007204602D0FFF731
:100EA000AEFF04E000F05FF8204600F05DF8257723
:100EB00020680169C943C90617D4C168C943C90676
:100EC00013D46FF010010161082020772068C069F9
:100ED00010F4407F204602D0FFF791FF04E000F0BD
:100EE00042F8204600F040F8257720680169C943A0
:100EF000C90708D1C168C943C90704D1891E016166
:100F0000204600F033F820680169C943090609D476
:100F1000C168C943090605D46FF08001016120460C
:100F2000FFF742FE20680169C943490609D4C16838
:100F3000C943490605D46FF040010161204600F025
:100F400039F820680169C94389060BD4C168C943CF
:100F5000890607D46FF0200101612046BDE870408A
:100F6000FFF723BE70BD70477047000010B5012128
:100F70000E48FFF7DDFA0E48C178491CC9B2C170AE
:100F8000022912D10021C1708278521CD2B2827023
:100F90003C2A0AD181704278521CD2B242703C2A5B
:100FA00003D141700178491C017010BD001001404F
:100FB000000000207047704770B502680446106852
:100FC000D168536910F00F0F53D003F0010501F4FD
:100FD00090762E435FD0C20705D0CA0503D5E26BD9
:100FE00042F00102E263420705D5DA0703D0E26B63
:100FF00042F00202E263820705D5DA0703D0E26B12
:1010000042F00402E263020707D501F020022A43FE
:1010100003D0E26B42F00802E263E26B002A34D0B4
:10102000800604D5880602D5204600F020FB206803
:101030004069E16BC0F3801001F0080101432046D4
:1010400024D000F006FB2068416949061AD54169A1
:1010500021F040014161606BA0B12D494163606B9B
:10106000FFF7C0F8002810D0606B416BBDE87040FE
:10107000084783060FD58B060DD52046BDE8704086
:1010800000F0F5BA2046FFF796FF70BDFFF793FF1B
:101090000020E06370BD03062BD50B0629D594F81C
:1010A00039002128F6D1A068B0F5805F01D1206910
:1010B000B0B1206A411C2162216800784860E08C50
:1010C000401E0004000CE084E4D12068C16821F0D7
:1010D0008001C1602068C16841F04001C16070BDFD
:1010E000206A0088C0F308005060206A801C2062DB
:1010F000E5E74006F3D54806F1D5D168204621F052
:101100004001D160202184F8391000F06CF970BDE5
:101110004316000870B5040004D094F83900002587
:1011200010B106E0012070BD84F83850204600F070
:1011300023F8242084F839002068C16821F4005184
:10114000C160204600F0DAFA2068016921F490417C
:1011500001612068416921F02A0141612068C1686C
:1011600041F40051C160E563202084F8390084F81F
:101170003A00002070BD000030B585B00024009416
:101180000194029403940068184988422CD11848AD
:10119000816941F480418161816901F48041049158
:1011A000816941F0040181618069124D00F0040001
:1011B00004904FF4007000900220019003200390EF
:1011C00069462846FFF7B8F82815CDE900046946B6
:1011D00028460294FFF7B0F8002211462520FFF7B9
:1011E00021FA2520FFF710FA05B030BD0038014084
:1011F000001002400008014090F83A30202B22D124
:10120000F9B1F2B190F83830012B1CD0816282859F
:10121000C2850021C163222280F83A2080F838106C
:101220000168CA6842F48072CA6001684A6942F083
:1012300001024A610068C16841F02001C1600020DC
:1012400070470120704702207047000038B50068E1
:101250001E49884238D11E480178BF2934D181788F
:10126000FB2931D141781B481B4CA12907D0A22969
:101270000FD0A07800906378227818A111E00022A6
:101280000221FFF75DF9A0780090637822781AA117
:1012900007E00221FFF74CF9A078009063782278EC
:1012A0001CA10B48403800F0BFFA094942F2107304
:1012B000402240391E4800F03DF8BDE83840032286
:1012C00003491B48FFF798BF38BD000000380140B4
:1012D00098000020001001400000002025643A25FD
:1012E000643A256420202020202020CED2B3ACB048
:1012F000F4B5C4A3A10D0A0025643A25643A256417
:1013000020202020202020CED2D6AAB5C0C1CBA339
:10131000A10D0A0025643A25643A25642020202086
:10132000202020BFECBFE4BFE4CED2A3A10D0A0071
:10133000F00000202DE9F843044690F839001F46DC
:1013400016460D4620284CD1C5B1BEB194F83800E0
:10135000012846D0012084F838004FF00008C4F876
:101360003C80212084F83900FFF7F0F8A6848146FC
:10137000E684A068B0F5805F03D004E00120BDE8FA
:10138000F883206928B12E465FF0000584F8388084
:101390000EE00026FAE78021204600F00BFAA0B903
:1013A000AEB116F8010B21684860E08C401EE08465
:1013B000E08C4B464FF0000200970028EBD14FF035
:1013C0004001204600F0F6F930B10320D7E735F8A8
:1013D000020BC0F30800E6E7202084F83900002063
:1013E000CDE70220CBE77047FEE7000030B585B0BF
:1013F000002414480094019402940394816941F0FC
:1014000010018161816901F010010491816941F04D
:101410000401816180690C4D00F0040004900022F9
:1014200003212846FFF78CF8032000900120CDE926
:1014300001040220039069462846FEF77DFF05B0AF
:1014400030BD0000001002400010014010B586B011
:1014500000241648009401940294039404944FF0DD
:1014600080410594016047F6FF41C0E901148911EC
:10147000C0E903148461FFF7D7FB08B1FEF7B0FEA3
:101480004FF48050009069460848FFF74DFC08B1C2
:10149000FEF7A6FE049404A904480594FFF786FB12
:1014A000002801D0FEF79CFE06B010BDA800002069
:1014B0000C4810B50A4901604FF4165141600021F3
:1014C00081600C22C160C0E904128161C161FFF733
:1014D00021FE002803D0BDE81040FEF781BE10BDFC
:1014E00000380140F0000020FEE770477047704769
:1014F000FFF732B830B58FB028216846FEF73BFEC3
:1015000014210AA8FEF737FE01210804CDE90010D6
:101510000024029402250491CDE90750C0000990EF
:101520006846FFF79DF90F200A90CDE90B540D9402
:1015300001210AA80E94FFF7A7F80FB030BD70473D
:101540000148FFF75DBC0000A8000020F0B502686C
:101550001C4B1D4D1D4E1E4F1E4C4FF0804C984293
:1015600009D0A04207D0604505D0A84203D0B042C0
:1015700001D0B84204D122F0700E4A6842EA0E024D
:10158000984209D0A04207D0604505D0A84203D0B8
:10159000B04201D0B84203D122F44075CA682A4350
:1015A0004D6922F080022A4302608A68C2620A689A
:1015B0008262984201D0A04201D1096901630121F0
:1015C0004161F0BD002C01400004004000080040D3
:1015D000000C00400034014010B5846842EA032248
:1015E00024F47F440A432243826010BD826822F0C3
:1015F00070020A4342F007018160704710B5036A28
:10160000046A24F001040462846924F0F00444EACA
:10161000021423F00A020A438461026210BD10B56D
:10162000036A23F0100303628369046A23F470439E
:1016300043EA023224F0A00343EA0111826101620D
:1016400010BD10B5406A0021C185C184FFF7B3FC0D
:1016500010BD0168CA6822F49072CA6001684A69C4
:1016600022F001024A61202180F83A10704710B53B
:1016700090F83A10222901D0022010BD82684FF460
:1016800080539A4201D1016921B1816A9A421BD0EB
:101690004AB10AE00268816A5268C2F308020A800D
:1016A000816A891C08E0026972B10268526802F01E
:1016B0007F020A70816A491C8162C18D491E09043A
:1016C000090CC18503D016E002685268F1E7016891
:1016D000CA6822F02002CA600168CA6822F48072D7
:1016E000CA6001684A6922F001024A61202180F83B
:1016F0003A10FFF7ABFD002010BD000070B50446A6
:1017000000680169E26821F44051114301612169D7
:10171000A0680843616908432168CA6841F20C6304
:101720009A430243CA6020684169A26921F440716A
:10173000114341611E492068884202D1FFF74AF8EF
:1017400001E0FFF737F800EBC00101EB0012606821
:1017500064218000B2FBF0F3B3FBF1F36FF01806E5
:101760007343B2FBF0F5B2FBF0F605EB83053223D1
:1017700003EB0515B5FBF1F5B6FBF1F605F0F00549
:1017800005EB0615B2FBF0F6B2FBF0F0B0FBF1F0A2
:101790006FF01802504306EB800003EB0010B0FB23
:1017A000F1F0216800F00F002844886070BD00004F
:1017B000003801402DE9F041984617460E46044690
:1017C000069D1DE0681C1BD02DB1FEF7BFFEA0EBEF
:1017D0000800A84214D92068C16821F4D071C16002
:1017E0002068416921F001014161202084F839001D
:1017F00084F83A00002084F838000320BDE8F08126
:101800002068006836EA000004D00020B842D9D031
:101810000020F3E70120F9E70148FFF7CDBB000006
:10182000F0000020FEE700000FB4084B10B504A93B
:1018300002AA039800F02CF8044602A9002000F048
:10184000D1F8204610BC5DF814FB0000E519000833
:101850000907090E002804DB00F1E02080F80014DD
:10186000704700F00F0000F1E02080F8141D704771
:1018700002E008C8121F08C1002AFAD17047704759
:10188000002001E001C1121F002AFBD170470000B7
:101890002DE9FF4F89B09B460446002506E0252828
:1018A0000BD05A460B999047641C6D1C2078002879
:1018B000F5D10DB02846BDE8F08F0027B8460122CB
:1018C000474900E0074314F8013F203B02FA03F0C8
:1018D0000842F7D120782E2819D114F8010F47F0CB
:1018E00004072A280ED06FF02F022078A0F13001D3
:1018F00009290CD808EB880102EB410100EB010833
:10190000641CF2E70A98641C50F8048B0A90207853
:101910000028CED0642808D0692806D075281ED0AB
:101920005A460B9990476D1C58E00A994FF00A09E6
:1019300001C90A91002802DA40422D2102E039054E
:1019400004D52B218DF82010012103E0F90704D0E4
:101950002021F7E78A4608AE0DE00021FAE70A9950
:101960004FF00A0901C90A91F7E74946FEF70EFC54
:10197000303106F8011D0028F7D1ADEB060000F16B
:101980002009780701D44FF00108C84502DDA8EB13
:10199000090000E000208046002706E008A85A461B
:1019A000C05D0B9990476D1C7F1C5745F6DB04E02A
:1019B00030205A460B9990476D1CB8F10001A8F1F0
:1019C0000108F5DC05E016F8010B5A460B99904723
:1019D0006D1CB9F10001A9F10109F4DC641C65E793
:1019E000092801000A68531C0B6010707047000042
:1019F000244C002201212046FEF7A2FD01212046B1
:101A0000FEF796FDFEF7B0FDFFF774FDFFF7EEFC65
:101A1000FFF71CFDFFF74CFD01212046FEF788FD76
:101A200002212046FEF784FD002201212046FEF718
:101A300087FD4FF4FA752846FEF76CFC012120461D
:101A4000FEF776FD2846FEF765FC002202212046BF
:101A5000FEF776FD2846FEF75DFC02212046FEF7E4
:101A600067FD42F21073432207490848FFF762FC02
:101A7000032207490548FFF7BFFB0648FFF71EF999
:101A8000FEE700000010014004000020F0000020EC
:101A900098000020A80000200000000000000000C6
:101AA0000102030406070809000000000102030404
:101AB000D01A00080000002058000000701800082C
:101AC000281B000858000020D804000080180008D7
:101AD000000000002A2A2A2A2A2A2A2A2A2A2A2A0E
:101AE0002A2A2A2A2A2A2A2A2A2A2A2A2A2A2A2A56
:101AF0002A2A2AB8B5D2A3A3ACC4E3BAC3A3A12AA5
:101B00002A2A2A2A2A2A2A2A2A2A2A2A2A2A2A2A35
:101B10002A2A2A2A0D0A00000100000010000000F5
:081B2000000000000024F400A5
:0400000508000131BD
:00000001FF
