:020000040800F2
:10000000A804002045010008D70F00088F0E000843
:10001000D50F000853020008D911000800000000A5
:10002000000000000000000000000000DB0F0008DE
:100030005502000800000000D90F0008DD0F00087D
:100040005F0100085F0100085F0100085F01000810
:100050005F0100085F0100085F0100085F01000800
:100060005F0100085F0100085F0100085F010008F0
:100070005F0100085F0100085F0100085F010008E0
:100080005F0100085F0100085F0100085F010008D0
:100090005F0100085F0100085F0100085F010008C0
:1000A0005F0100085F0100085F0100085F010008B0
:1000B0005F0100085F0100085F0100085F010008A0
:1000C0005F0100085F0100085F0100085F01000890
:1000D0005F0100085F0100085F0100085F01000880
:1000E000570200085F0100085F0100085F01000877
:1000F0005F0100085F0100085F0100085F01000860
:100100005F0100085F0100085F0100085F0100084F
:100110005F0100085F0100085F0100085F0100083F
:100120005F0100085F0100085F0100085F0100082F
:10013000DFF80CD000F06CF80048004745150008C7
:10014000A80400200648804706480047FEE7FEE76F
:10015000FEE7FEE7FEE7FEE7FEE7FEE7FEE7FEE777
:100160002F10000831010008202A04DB203A21FA70
:1001700002F00021704721FA02F3D040C2F12002C0
:100180009140084319467047D2B201E000F8012BB4
:10019000491EFBD270470022F6E710B513460A4607
:1001A00004461946FFF7F0FF204610BD2DE9F05F29
:1001B0000546002092469B468846064681464024D6
:1001C0001BE02846414647462246FFF7CDFF5346EF
:1001D0005A46C01A914110D311461846224600F0E3
:1001E00029F82D1A67EB01084F462246012000210D
:1001F00000F020F817EB00094E41201EA4F1010485
:10020000DFDC484631462A464346BDE8F09F000001
:10021000064C074D06E0E06840F0010394E8070053
:1002200098471034AC42F6D3FFF786FFF815000864
:1002300018160008202A04DB203A00FA02F10020F8
:1002400070479140C2F1200320FA03F31943904014
:100250007047FEE770474FF4004000F049B8704720
:1002600070B5044600F05EF90546601C02D00448F3
:100270000078044400F056F9401BA042FAD370BD48
:10028000080000202DE9F0470026DFF85C90174DAC
:1002900034464FF400484146484600F031F9012801
:1002A000F9D100F0F5FDFA2819D2A0F1C8013229E0
:1002B00001D201260BE0A0F13C011E2901D2012749
:1002C00003E00A38282800D20027012E09D16868E7
:1002D000202C07EB4000686003D301202870BDE8A4
:1002E000F087641CE4B2D6E7002001400000002043
:1002F000044910B50A68024202D00860FFF7C2FF45
:1003000010BD0000140401402DE9F84FDFF8C8913A
:10031000002409F1040A0AF1040B23460F270BF10C
:10032000040ED1E00125A54006EA0502AA4276D1D5
:10033000DFF8A8C14E68A6EB0C0866452BD00DDC93
:10034000032E34D005DC36B3012E19D0022E2FD166
:100350001BE0112E16D0122E2AD119E0B8F5881FF5
:1003600019D006DCB8F5803F15D0B8F5801F1FD135
:1003700011E0B8F5001F0ED0B8F5041F18D10AE03F
:10038000CB6815E0CB681B1D12E0CB6808330FE08B
:10039000CB680C330CE08B682BB1012B4FF00803BA
:1003A00003D0456104E0042302E0056100E000237E
:1003B000FF2A01D8064601E000F104064FEA840551
:1003C00001D9A5F12005D6F8008007FA05FC28EA36
:1003D0000C0803FA05F548EA0508C6F800804D68E0
:1003E000ED0070D53E4DAE6946F00106AE61AD69D7
:1003F00024F0030605F0010500953A4D06EB050CC7
:10040000DCF80850A607360F07FA06F825EA0805B3
:10041000DFF8D480404503D14FF0000825E052E0DA
:10042000DFF8C880404502D14FF001081DE0DFF839
:10043000C080404502D14FF0020816E0DFF8B480DA
:10044000404502D14FF003080FE0DFF8AC80404593
:1004500002D14FF0040808E0DFF8A080404502D147
:100460004FF0050801E04FF0060808FA06F848EAE0
:100470000508CCF808804D68D9F80060ED034D46BA
:1004800001D5164300E096432E604D68DAF800600F
:10049000AD03554601D5164300E096432E604D68E6
:1004A000DBF80060ED025D4601D5164300E096439F
:1004B0002E604D68DEF80060AD02754601D516432A
:1004C00000E096432E60641C0A681646E2407FF402
:1004D00029AFBDE8F88F00000004014000001110B2
:1004E000001002400000014000080140000C0140E3
:1004F000001001400014014000180140001C0140A0
:100500008068084000D001207047C26821EA0203D9
:100510000A4043EA0241016170470AB10161704734
:100520000904FBE7014880687047000008000020CC
:1005300002488168027811448160704708000020F9
:10054000074810B5016841F010010160032000F078
:1005500075F8002000F006F800F024F8002010BD27
:100560000020024070B50D4D04464FF47A71287892
:10057000B1FBF0F00A490968B1FBF0F000F0ECFAC9
:1005800048B9102C07D200222146501E00F036F840
:1005900000206C6070BD012070BD000008000020CC
:1005A000140000200C4808B5816941F00101816107
:1005B000816901F001010091C16941F08051C1617F
:1005C000C06900F0805000900448416821F0E0616B
:1005D00041F00071416008BD001002400000014080
:1005E000002809DB00F01F02012191404009800032
:1005F00000F1E020C0F8001170470000F0B40E4B8D
:100600001B680C46C3F30223C3F10705042D00D970
:100610000425191D072901D2002300E0DB1E012655
:1006200006FA05F1491E214099409E40761E16406B
:100630003143F0BC00F0E2BD0CED00E0064900F0F3
:10064000070208684FF6FF03184040EA0220034AF9
:1006500010430860704700000CED00E00000FA0550
:100660002DE9F0470F46050061D0434E306800F099
:100670000700B84209D2306820F0070038433060E4
:10068000306800F00700B84251D128683B4C810720
:1006900012D5400703D5606840F4E06060602878B8
:1006A000000703D5606840F4605060606068A96826
:1006B00020F0F000084360602878C00728D0686800
:1006C000012810D02168022810D0890700292EDACD
:1006D000616821F0030101436160FFF723FF804659
:1006E00041F288390DE021688903EFE78901EDE7E0
:1006F000FFF718FFA0EB0801494502D90320BDE828
:10070000F0876068696800F00C00B0EB810FEFD1F2
:10071000306800F00700B8420BD9306820F00700BD
:1007200038433060306800F00700B84201D0012043
:10073000E5E72878400705D56068E96820F4E060BF
:10074000084360602878000706D56068296920F4AE
:10075000605040EAC100606000F038F86168084A03
:10076000C1F30311515CC84006490860064800689F
:10077000FFF7F8FE0020C2E7002002400010024010
:10078000E0150008140000200C0000200448054972
:1007900000684968044AC1F30221515CC8407047AF
:1007A0001400002000100240F0150008044805491C
:1007B00000684968044AC1F3C221515CC8407047CF
:1007C0001400002000100240F015000812A185B0AE
:1007D0000FC98DE80F0014A0144A006804905168F6
:1007E000134801F00C03042B10D0082B0ED1C1F3D9
:1007F0008343C9031DF803000AD5516804AAC1F355
:100800004041515C0A4A5043B0FBF1F005B07047DB
:1008100008494843FAE700000203040506070809EF
:100820000A0B0C0D0E0F1010010200000010024008
:1008300000127A0000093D002DE9F84F040070D045
:100840002078C04DC00749D06868C0F381000128F6
:1008500007D06868C0F38100022809D16868C00326
:1008600006D52868800339D560680028E7D035E0D0
:100870006068B0F5803F0BD010B1B0F5A02F11D05B
:10088000286820F480302860286820F4802002E066
:10089000286840F480302860606890B1FFF742FE1D
:1008A00006460AE0286840F480202860F0E700BF90
:1008B000FFF738FE801B642873D828688003F7D5BB
:1008C0000CE0FFF72FFE064605E000BFFFF72AFE0B
:1008D000801B6428F0D828688003F7D420789A4ECB
:1008E00080074FF001094FF0000839D5686810F013
:1008F0000C0F07D06868C0F38100022809D168682E
:10090000C00306D42868800714D52069012808D1BF
:1009100010E02069B0B1C6F80090FFF703FE07466B
:1009200005E00AE1FFF7FEFDC01B0228C4D82868D5
:100930008007F7D52868616920F0F80040EAC10017
:1009400028600DE0C6F80080FFF7ECFD074604E0E4
:10095000FFF7E8FDC01B022823D828688007F7D4DA
:10096000207800072CD57948A169D9B1C0F800904A
:10097000FFF7D8FD074604E0FFF7D4FDC01B0228AF
:100980000FD8686A8007F7D571484FF4FA510068AC
:10099000B0FBF1F0009000BF0098411E0091FAD228
:1009A0000EE080E0C0F80080FFF7BCFD074604E0E1
:1009B000FFF7B8FDC01B022875D8686A8007F7D416
:1009C0002078400760D5E8690027C00008D4E869AE
:1009D00040F08050E861E869012700F08050009005
:1009E0005C480168C90513D40168834641F48071ED
:1009F0000160FFF797FD824606E000BFFFF792FD1A
:100A0000A0EB0A0064284ED8DBF80000C005F5D53D
:100A1000E06801280AD008B1052813D0286A20F020
:100A200001002862286A20F0040002E0286A40F0F1
:100A300001002862E06841F2883B98B1FFF772FD3F
:100A400082460BE0286A40F004002862EEE700BF0F
:100A5000FFF768FDA0EB0A0159455AD8286A8007BC
:100A6000F6D50CE0FFF75EFD824605E0FFF75AFD84
:100A7000A0EB0A0159454CD8286A8007F6D41FB16B
:100A8000E86920F08050E861E06988B36968C1F3E3
:100A90008101022944D00228C6F8608004D0FFF703
:100AA00041FD044638E034E0FFF73CFD074604E032
:100AB000FFF738FDC01B02282BD828688001F7D427
:100AC000206AB0F5803F05D16868A16820F4003045
:100AD00008436860D4E908010843696821F4741187
:100AE00008436860C6F86090FFF71CFD044606E006
:100AF00025E000BFFFF716FD001B022809D8286873
:100B00008001F7D51BE000BFFFF70CFD001B02289A
:100B100002D90320BDE8F88F28688001F4D40EE0E4
:100B20000128F7D06868226A00F48031914204D12C
:100B3000616A00F47010884201D00120EAE70020C9
:100B4000E8E70000001002400000424280044242F8
:100B5000140000200070004010B5401EB0F1807FEE
:100B600001D3012010BD4FF0E02460610F21601718
:100B700000F044FB0020A06107202061002010BD90
:100B800070B590F83C20012A2CD0012480F83C401C
:100B9000022280F83D2003685A689D6822F07006A2
:100BA0000A6832435A60104B02689A420ED00F4BCB
:100BB0009A420BD0B2F1804F08D00D4B9A4205D02B
:100BC0000C4B9A4202D00C4B9A4204D1496825F052
:100BD00080031943916080F83D40002180F83C106B
:100BE000084670BD022070BD002C01400034014059
:100BF0000004004000080040000C004010B5040054
:100C000003D094F83D0010B107E0012010BD002092
:100C100084F83C00204600F01FF8022084F83D00D4
:100C2000211D206800F004FA012084F8460084F8B1
:100C30003E0084F83F0084F8400084F8410084F8C6
:100C4000420084F8430084F8440084F8450084F8A6
:100C50003D00002010BD000008B50068064988422C
:100C600008D10648C16941F02001C161C06900F0A6
:100C70002000009008BD0000001400400010024059
:100C800090F83D10012901D001207047022180F821
:100C90003D1000680E4988420ED00E4988420BD0A4
:100CA000B0F1804F08D00C49884205D00B498842EA
:100CB00002D00B49884204D1816801F0070106295E
:100CC00003D0016841F0010101600020704700007D
:100CD000002C0140003401400004004000080040A6
:100CE000000C004001680A6A41F211131A4207D150
:100CF0000A6A9B101A4203D10A6822F001020A60B4
:100D0000012180F83D100020704770B5040004D028
:100D100094F83900002510B106E0012070BD84F878
:100D20003850204600F022F8242084F8390020684A
:100D3000C16821F40051C160204600F0BFF920686D
:100D4000016921F4904101612068416921F02A0183
:100D500041612068C16841F40051C160E563202011
:100D600084F8390084F83A00002070BD30B585B0B1
:100D7000002400940194029403940068144988426A
:100D800024D11448816941F480418161816901F471
:100D900080410491816941F00401816180690E4DB7
:100DA00000F0040004904FF40070009002200190C5
:100DB0000320039069462846FFF7A6FA2815CDE9D7
:100DC0000004694628460294FFF79EFA05B030BD3C
:100DD0000038014000100240000801402DE9F843AE
:100DE000044690F839001F4616460D4620284CD17F
:100DF000C5B1BEB194F83800012846D0012084F86E
:100E000038004FF00008C4F83C80212084F83900F5
:100E1000FFF788FBA6848146E684A068B0F5805F72
:100E200003D004E00120BDE8F883206928B12E46F4
:100E30005FF0000584F838800EE00026FAE7802194
:100E4000204600F097F9A0B9AEB116F8010B216861
:100E50004860E08C401EE084E08C4B464FF000027E
:100E600000970028EBD14FF04001204600F082F9B6
:100E700030B10320D7E735F8020BC0F30800E6E7EE
:100E8000202084F839000020CDE70220CBE7FEE7E0
:100E900070B500244FF40045084E06E0641CE4B22F
:100EA000142000F02BFBFA2C05D229463046FFF720
:100EB00027FB0128F2D0204670BD00000020014031
:100EC00030B585B0002000900190029003901E483C
:100ED000816941F010018161816901F01001049183
:100EE000816941F004018161816901F0040104918B
:100EF000816941F4807181618069144D00F48070D2
:100F00000122049011462846FFF707FB0124032025
:100F1000CDE902400094694601942846FFF7F4F9B0
:100F2000E00300900A48CDE9010469460948FFF74B
:100F3000EBF9002211462820FFF760FB2820FFF77D
:100F40004FFB05B030BD0000001002400010014012
:100F500000002110002001401CB500240E48009420
:100F60000C49019401604721C0E901144FF6FF715B
:100F70008461C160FFF742FE08B1FFF770F9009489
:100F8000694605480194FFF7FBFD002801D0FFF7F3
:100F900066F91CBD001400401C0000200C4810B570
:100FA0000A4901604FF4E1314160002181600C2267
:100FB000C160C0E904128161C161FFF7A6FE00288B
:100FC00003D0BDE81040FFF74AB910BD003801401A
:100FD00064000020FEE7704770477047FFF7A8BA2B
:100FE00030B58FB028216846FFF7D5F814210AA83C
:100FF000FFF7D1F801210804CDE900100024029484
:1010000002250491CDE907504FF4E010099068469D
:10101000FFF712FC0F20CDE90A056802CDE90C406C
:1010200002210AA80E94FFF71BFB0FB030BD7047DA
:10103000F0B502681C4B1D4D1D4E1E4F1E4C4FF04F
:10104000804C984209D0A04207D0604505D0A84204
:1010500003D0B04201D0B84204D122F0700E4A68E9
:1010600042EA0E02984209D0A04207D0604505D05E
:10107000A84203D0B04201D0B84203D122F4407557
:10108000CA682A434D6922F080022A4302608A68B6
:10109000C2620A688262984201D0A04201D1096905
:1010A000016301214161F0BD002C014000040040BA
:1010B00000080040000C00400034014070B50446B8
:1010C00000680169E26821F440511143016121691E
:1010D000A0680843616908432168CA6841F20C634B
:1010E0009A430243CA6020684169A26921F44071B1
:1010F000114341611E492068884202D1FFF756FB27
:1011000001E0FFF743FB00EBC00101EB0012606858
:1011100064218000B2FBF0F3B3FBF1F36FF018062B
:101120007343B2FBF0F5B2FBF0F605EB8305322317
:1011300003EB0515B5FBF1F5B6FBF1F605F0F0058F
:1011400005EB0615B2FBF0F6B2FBF0F0B0FBF1F0E8
:101150006FF01802504306EB800003EB0010B0FB69
:10116000F1F0216800F00F002844886070BD000095
:10117000003801402DE9F041984617460E460446D6
:10118000069D1DE0681C1BD02DB1FFF7CBF9A0EB2D
:101190000800A84214D92068C16821F4D071C16048
:1011A0002068416921F001014161202084F8390063
:1011B00084F83A00002084F838000320BDE8F0816C
:1011C0002068006836EA000004D00020B842D9D078
:1011D0000020F3E70120F9E7FEE700000FB4054B1C
:1011E00010B503A9044A029800F028F810BC5DF875
:1011F00014FB00002D150008180000200907090E37
:10120000002804DB00F1E02080F80014704700F0B3
:101210000F0000F1E02080F8141D704702E008C8BC
:10122000121F08C1002AFAD170477047002001E060
:1012300001C1121F002AFBD1704700002DE9FF4FAA
:101240008DB09B460F460446002606E025280BD0AD
:101250005A460F999047641C761C20780028F5D1D7
:1012600011B03046BDE8F08F0025A846012298490C
:1012700000E0054314F8013F203B02FA03F0084266
:10128000F7D120782E2817D114F8010F45F0040566
:101290002A280ED06FF02F022078A0F13001092902
:1012A0000AD808EB880102EB410100EB0108641C3D
:1012B000F2E757F8048B641C20786C280DD004DC0E
:1012C0004C2812D06A2811D104E074280DD07A2855
:1012D0000CD10AE045F4001507E0617845F480156B
:1012E000814202D1641C05F58015641C2278692AAC
:1012F00045D008DC002AB3D0582A69D0632A10D020
:10130000642A08D13BE0702A67D0732A13D0752A6B
:101310005CD0782A5CD010465A460F999047761CCC
:10132000D3E017F8040B8DF8000000208DF80100C1
:10133000E946012003E057F8049B4FF0FF306907AE
:101340004FF0000501D40AE06D1C45450DDA8542D9
:10135000FADB19F805100029F6D106E06D1C85426C
:10136000FCDB19F805100029F8D12E4404E019F827
:10137000010B5A460F9990476D1EF8D2A5E00A203E
:101380000021CDE90801C5F3025002280DD001CF9C
:10139000C117031E71F100030DDA4FF0000CD0EB02
:1013A0000C006CEB01012D2308E0FF1D27F007075F
:1013B000F7E80201EDE72B0504D52B238DF8283043
:1013C00001233BE0EB0739D02023F7E70A2000E0B8
:1013D00010200021CDE9080107E01020002145F090
:1013E0000405CDE908014FF00808C5F302500228B2
:1013F0000FD001CF00214FF0000A2B071FD5702A14
:101400000DD0DDE908C38CF0100C5CEA030C0CD0A5
:1014100015E0FF1D27F00707F7E80201EBE7402280
:101420008DF828204FF0010A0BE050EA010306D0A6
:1014300030238DF828308DF8292002239A46582A27
:1014400004D024A20DF120090B9209E026A2F9E7AD
:10145000DDE90823FEF7AAFE0B9B9B5C09F8013D22
:1014600050EA0102F4D1ADEB090020300890680782
:1014700001D44FF001080899884502DDA8EB01006E
:1014800000E000208046002506E00AA85A46405D9C
:101490000F9990476D1C761C5545F6DB04E0302013
:1014A0005A460F999047761CB8F10001A8F101083F
:1014B000F5DC05E019F8010B5A460F999047761CA8
:1014C0000899481E08900029F4DC641CC5E6000059
:1014D000092801003031323334353637383961620A
:1014E00063646566000000003031323334353637CE
:1014F00038394142434445460000000070B54FF67C
:10150000FA75094E281A84B2306844623046FFF7F3
:10151000B7FB306801E0416A8CB2AC42FBD3BDE856
:1015200070400148FFF7DEBB1C00002013B54FF6EA
:10153000FF73012269460248FFF750FC00981CBD6A
:1015400064000020FEF7FCFFFFF74AFDFFF7B8FC40
:10155000FFF702FDFFF722FD0CA0FFF73FFE154C41
:10156000154D164F00264FF47A782078012805D1C2
:10157000267013A02968FFF731FE2E60012138463E
:10158000FEF7C3FF4046FEF76BFEEEE72F2A2A2A3E
:101590002A2A2A2A2A2A2A2A2A6972207465787411
:1015A0002A2A2A2A2A2A2A2A2A2A2A2A2A2F0D0AD3
:1015B0000000000000000020040000200010014096
:1015C0004952207265636569766520436F646520C2
:1015D00069733A202025302E38780D0A000000006B
:1015E00000000000000000000102030406070809D3
:1015F000000000000102030418160008000000208B
:101600001C0000001C120008341600081C000020FA
:101610008C0400002C1200080000000000000000F4
:101620000100000010000000000000000024F40091
:0416300000000000B6
:0400000508000131BD
:00000001FF
